BL51 BANKED LINKER/LOCATER V6.22.2.0                                                    03/27/2025  23:40:35  PAGE 1


BL51 BANKED LINKER/LOCATER V6.22.2.0, INVOKED BY:
E:\KEIL-C51\KEIL\C51\BIN\BL51.EXE .\Objects\fonts.obj, .\Objects\iic_uart.obj, .\Objects\main.obj, .\Objects\oled.obj TO
>>  .\Objects\tiny_pow PRINT (.\Listings\tiny_pow.m51) RAMSIZE (256)


MEMORY MODEL: LARGE WITH FLOATING POINT ARITHMETIC


INPUT MODULES INCLUDED:
  .\Objects\fonts.obj (FONTS)
  .\Objects\iic_uart.obj (IIC_UART)
  .\Objects\main.obj (MAIN)
  .\Objects\oled.obj (OLED)
  E:\KEIL-C51\KEIL\C51\LIB\C51FPL.LIB (?C?FPADD)
  E:\KEIL-C51\KEIL\C51\LIB\C51FPL.LIB (?C?FPMUL)
  E:\KEIL-C51\KEIL\C51\LIB\C51FPL.LIB (?C?FPDIV)
  E:\KEIL-C51\KEIL\C51\LIB\C51FPL.LIB (?C?FPCMP)
  E:\KEIL-C51\KEIL\C51\LIB\C51FPL.LIB (?C?FPNEG)
  E:\KEIL-C51\KEIL\C51\LIB\C51FPL.LIB (?C?FCAST)
  E:\KEIL-C51\KEIL\C51\LIB\C51FPL.LIB (?C?CASTF)
  E:\KEIL-C51\KEIL\C51\LIB\C51FPL.LIB (PRINTF)
  E:\KEIL-C51\KEIL\C51\LIB\C51FPL.LIB (?C?FPGETOPN)
  E:\KEIL-C51\KEIL\C51\LIB\C51FPL.LIB (?C?FPROUND)
  E:\KEIL-C51\KEIL\C51\LIB\C51FPL.LIB (?C?FPCONVERT)
  E:\KEIL-C51\KEIL\C51\LIB\C51FPL.LIB (?C?FTNPWR)
  E:\KEIL-C51\KEIL\C51\LIB\C51L.LIB (?C_STARTUP)
  E:\KEIL-C51\KEIL\C51\LIB\C51L.LIB (?C?COPY)
  E:\KEIL-C51\KEIL\C51\LIB\C51L.LIB (?C?CLDPTR)
  E:\KEIL-C51\KEIL\C51\LIB\C51L.LIB (?C?CLDOPTR)
  E:\KEIL-C51\KEIL\C51\LIB\C51L.LIB (?C?CSTPTR)
  E:\KEIL-C51\KEIL\C51\LIB\C51L.LIB (?C?CSTOPTR)
  E:\KEIL-C51\KEIL\C51\LIB\C51L.LIB (?C?UIDIV)
  E:\KEIL-C51\KEIL\C51\LIB\C51L.LIB (?C?SIDIV)
  E:\KEIL-C51\KEIL\C51\LIB\C51L.LIB (?C?IILDX)
  E:\KEIL-C51\KEIL\C51\LIB\C51L.LIB (?C?ILDIX)
  E:\KEIL-C51\KEIL\C51\LIB\C51L.LIB (?C?LMUL)
  E:\KEIL-C51\KEIL\C51\LIB\C51L.LIB (?C?ULDIV)
  E:\KEIL-C51\KEIL\C51\LIB\C51L.LIB (?C?SLDIV)
  E:\KEIL-C51\KEIL\C51\LIB\C51L.LIB (?C?LNEG)
  E:\KEIL-C51\KEIL\C51\LIB\C51L.LIB (?C?SLCMP)
  E:\KEIL-C51\KEIL\C51\LIB\C51L.LIB (?C?LSTXDATA)
  E:\KEIL-C51\KEIL\C51\LIB\C51L.LIB (?C?LSTKXDATA)
  E:\KEIL-C51\KEIL\C51\LIB\C51L.LIB (?C?PLDIXDATA)
  E:\KEIL-C51\KEIL\C51\LIB\C51L.LIB (?C?PSTXDATA)
  E:\KEIL-C51\KEIL\C51\LIB\C51L.LIB (?C?CCASE)
  E:\KEIL-C51\KEIL\C51\LIB\C51L.LIB (PUTCHAR)
  E:\KEIL-C51\KEIL\C51\LIB\C51L.LIB (?C_INIT)


LINK MAP OF MODULE:  .\Objects\tiny_pow (FONTS)


            TYPE    BASE      LENGTH    RELOCATION   SEGMENT NAME
            -----------------------------------------------------

            * * * * * * *   D A T A   M E M O R Y   * * * * * * *
            REG     0000H     0008H     ABSOLUTE     "REG BANK 0"
            DATA    0008H     0005H     UNIT         _DATA_GROUP_
BL51 BANKED LINKER/LOCATER V6.22.2.0                                                  03/27/2025  23:40:35  PAGE 2


                    000DH     0013H                  *** GAP ***
            BIT     0020H.0   0001H.1   UNIT         _BIT_GROUP_
            BIT     0021H.1   0000H.2   UNIT         ?BI?IIC_UART
                    0021H.3   0000H.5                *** GAP ***
            IDATA   0022H     0001H     UNIT         ?STACK

            * * * * * * *  X D A T A   M E M O R Y  * * * * * * *
            XDATA   0000H     0228H     UNIT         ?XD?FONTS
            XDATA   0228H     0067H     UNIT         ?XD?MAIN
            XDATA   028FH     0030H     UNIT         _XDATA_GROUP_
            XDATA   02BFH     0020H     UNIT         ?XD?_OLED_FLOAT?OLED
            XDATA   02DFH     000BH     UNIT         ?XD?_OLED_SHOWNUMBER?OLED
            XDATA   02EAH     0006H     UNIT         ?XD?_OLED_POW?OLED
            XDATA   02F0H     0003H     UNIT         ?XD?_UARTSENDSTR?IIC_UART
            XDATA   02F3H     0001H     UNIT         ?XD?_SEEK?MAIN

            * * * * * * *   C O D E   M E M O R Y   * * * * * * *
            CODE    0000H     0003H     ABSOLUTE     
            CODE    0003H     001CH     UNIT         ?PR?_OLED_WR_BYTE?OLED
            CODE    001FH     0001H     UNIT         ?PR?INIT2?MAIN
                    0020H     0003H                  *** GAP ***
            CODE    0023H     0003H     ABSOLUTE     
            CODE    0026H     009CH     UNIT         ?PR?_OLED_SHOWNUMBER?OLED
                    00C2H     0001H                  *** GAP ***
            CODE    00C3H     0003H     ABSOLUTE     
            CODE    00C6H     0984H     UNIT         ?C?LIB_CODE
            CODE    0A4AH     0483H     UNIT         ?PR?PRINTF?PRINTF
            CODE    0ECDH     0246H     UNIT         ?C_INITSEG
            CODE    1113H     0211H     UNIT         ?PR?_OLED_FLOAT?OLED
            CODE    1324H     00F9H     UNIT         ?PR?MAIN?MAIN
            CODE    141DH     00C6H     UNIT         ?PR?OLED_INIT?OLED
            CODE    14E3H     008CH     UNIT         ?C_C51STARTUP
            CODE    156FH     0081H     UNIT         ?PR?READ_INA?MAIN
            CODE    15F0H     0066H     UNIT         ?PR?_OLED_SHOWCHAR?OLED
            CODE    1656H     0063H     UNIT         ?PR?_READ_REG?IIC_UART
            CODE    16B9H     0060H     UNIT         ?PR?OLED_CLEAR?OLED
            CODE    1719H     0060H     UNIT         ?PR?OLED
            CODE    1779H     005AH     UNIT         ?PR?_OLED_SHOWSTRING?OLED
            CODE    17D3H     004EH     UNIT         ?PR?INIT3?MAIN
            CODE    1821H     004AH     UNIT         ?PR?_SEEK?MAIN
            CODE    186BH     0044H     UNIT         ?C?LDIV
            CODE    18AFH     0039H     UNIT         ?PR?_OLED_POW?OLED
            CODE    18E8H     0033H     UNIT         ?PR?_UARTSENDSTR?IIC_UART
            CODE    191BH     0033H     UNIT         ?PR?SCAN_KEY?MAIN
            CODE    194EH     0032H     UNIT         ?PR?_OLED_SET_POS?OLED
            CODE    1980H     002FH     UNIT         ?PR?_C_MEMSET?MAIN
            CODE    19AFH     0029H     UNIT         ?CO?MAIN
            CODE    19D8H     0027H     UNIT         ?PR?_WRITE_IIC_DATA?OLED
            CODE    19FFH     0027H     UNIT         ?PR?PUTCHAR?PUTCHAR
            CODE    1A26H     0026H     UNIT         ?PR?_WRITE_IIC_COMMAND?OLED
            CODE    1A4CH     0021H     UNIT         ?PR?_DELAY_US?IIC_UART
            CODE    1A6DH     0021H     UNIT         ?PR?I2C_ISR?IIC_UART
            CODE    1A8EH     001BH     UNIT         ?PR?MAIN
            CODE    1AA9H     0014H     UNIT         ?PR?UARTINIT?IIC_UART
            CODE    1ABDH     0013H     UNIT         ?PR?DELAY?IIC_UART
            CODE    1AD0H     0011H     UNIT         ?PR?RECVDATA?IIC_UART
            CODE    1AE1H     000FH     UNIT         ?PR?RECVACK?IIC_UART
BL51 BANKED LINKER/LOCATER V6.22.2.0                                                  03/27/2025  23:40:35  PAGE 3


            CODE    1AF0H     000EH     UNIT         ?PR?_SENDDATA?IIC_UART
            CODE    1AFEH     000DH     UNIT         ?PR?UARTISR?IIC_UART
            CODE    1B0BH     000CH     UNIT         ?PR?START?IIC_UART
            CODE    1B17H     000CH     UNIT         ?PR?SENDNAK?IIC_UART
            CODE    1B23H     000CH     UNIT         ?PR?STOP?IIC_UART
            CODE    1B2FH     000CH     UNIT         ?CO?OLED
            CODE    1B3BH     000BH     UNIT         ?PR?SENDACK?IIC_UART
            CODE    1B46H     000AH     UNIT         ?PR?IIC_UART
            CODE    1B50H     0008H     UNIT         ?PR?_UARTSEND?IIC_UART



OVERLAY MAP OF MODULE:   .\Objects\tiny_pow (FONTS)


SEGMENT                                BIT_GROUP          DATA_GROUP          XDATA_GROUP
  +--> CALLED SEGMENT               START    LENGTH     START    LENGTH     START    LENGTH
-------------------------------------------------------------------------------------------
?C_C51STARTUP                       -----    -----      -----    -----      -----    -----
  +--> ?PR?MAIN?MAIN
  +--> ?C_INITSEG

?PR?MAIN?MAIN                       -----    -----      -----    -----      -----    -----
  +--> ?PR?OLED_INIT?OLED
  +--> ?PR?_DELAY_US?IIC_UART
  +--> ?PR?OLED_CLEAR?OLED
  +--> ?PR?INIT3?MAIN
  +--> ?PR?READ_INA?MAIN
  +--> ?PR?MAIN
  +--> ?CO?MAIN
  +--> ?PR?PRINTF?PRINTF
  +--> ?PR?_OLED_SHOWSTRING?OLED
  +--> ?PR?_C_MEMSET?MAIN

?PR?OLED_INIT?OLED                  -----    -----      -----    -----      -----    -----
  +--> ?PR?_DELAY_US?IIC_UART
  +--> ?PR?_OLED_WR_BYTE?OLED

?PR?_OLED_WR_BYTE?OLED              -----    -----      -----    -----      029CH    0002H
  +--> ?PR?_WRITE_IIC_DATA?OLED
  +--> ?PR?_WRITE_IIC_COMMAND?OLED

?PR?_WRITE_IIC_DATA?OLED            -----    -----      -----    -----      029EH    0001H
  +--> ?PR?START?IIC_UART
  +--> ?PR?_SENDDATA?IIC_UART
  +--> ?PR?RECVACK?IIC_UART
  +--> ?PR?STOP?IIC_UART

?PR?_SENDDATA?IIC_UART              -----    -----      -----    -----      -----    -----
  +--> ?PR?IIC_UART

?PR?RECVACK?IIC_UART                -----    -----      -----    -----      -----    -----
  +--> ?PR?_SENDDATA?IIC_UART

?PR?_WRITE_IIC_COMMAND?OLED         -----    -----      -----    -----      029EH    0001H
  +--> ?PR?START?IIC_UART
  +--> ?PR?_SENDDATA?IIC_UART
BL51 BANKED LINKER/LOCATER V6.22.2.0                                                  03/27/2025  23:40:35  PAGE 4


  +--> ?PR?RECVACK?IIC_UART
  +--> ?PR?STOP?IIC_UART

?PR?OLED_CLEAR?OLED                 -----    -----      -----    -----      028FH    0002H
  +--> ?PR?_OLED_WR_BYTE?OLED

?PR?INIT3?MAIN                      -----    -----      -----    -----      -----    -----
  +--> ?PR?STOP?IIC_UART
  +--> ?PR?_SENDDATA?IIC_UART
  +--> ?PR?RECVACK?IIC_UART
  +--> ?PR?DELAY?IIC_UART
  +--> ?PR?START?IIC_UART

?PR?READ_INA?MAIN                   -----    -----      -----    -----      -----    -----
  +--> ?PR?_READ_REG?IIC_UART
  +--> ?PR?_DELAY_US?IIC_UART
  +--> ?PR?MAIN

?PR?_READ_REG?IIC_UART              -----    -----      -----    -----      028FH    0003H
  +--> ?PR?DELAY?IIC_UART
  +--> ?PR?START?IIC_UART
  +--> ?PR?RECVACK?IIC_UART
  +--> ?PR?_SENDDATA?IIC_UART
  +--> ?PR?RECVDATA?IIC_UART
  +--> ?PR?SENDACK?IIC_UART
  +--> ?PR?SENDNAK?IIC_UART
  +--> ?PR?STOP?IIC_UART

?PR?SENDACK?IIC_UART                -----    -----      -----    -----      -----    -----
  +--> ?PR?IIC_UART

?PR?SENDNAK?IIC_UART                -----    -----      -----    -----      -----    -----
  +--> ?PR?IIC_UART

?PR?PRINTF?PRINTF                   0020H.0  0001H.1    0008H    0005H      028FH    0030H
  +--> ?PR?PUTCHAR?PUTCHAR

?PR?_OLED_SHOWSTRING?OLED           -----    -----      -----    -----      028FH    0006H
  +--> ?PR?_OLED_SHOWCHAR?OLED

?PR?_OLED_SHOWCHAR?OLED             -----    -----      -----    -----      0295H    0006H
  +--> ?PR?_OLED_SET_POS?OLED
  +--> ?PR?_OLED_WR_BYTE?OLED

?PR?_OLED_SET_POS?OLED              -----    -----      -----    -----      029BH    0001H
  +--> ?PR?_OLED_WR_BYTE?OLED

?PR?_C_MEMSET?MAIN                  -----    -----      -----    -----      028FH    0005H



SYMBOL TABLE OF MODULE:  .\Objects\tiny_pow (FONTS)

  VALUE           TYPE          NAME
  ----------------------------------

  -------         MODULE        FONTS
BL51 BANKED LINKER/LOCATER V6.22.2.0                                                  03/27/2025  23:40:35  PAGE 5


  C:0000H         SYMBOL        _ICE_DUMMY_
  X:0000H         PUBLIC        F6x8s
  -------         ENDMOD        FONTS

  -------         MODULE        IIC_UART
  C:0000H         SYMBOL        _ICE_DUMMY_
  C:1AF0H         PUBLIC        _SendData
  D:00BAH         PUBLIC        P_SW2
  C:1AD0H         PUBLIC        RecvData
  C:1B0BH         PUBLIC        Start
  B:0098H.0       PUBLIC        RI
  B:0098H.1       PUBLIC        TI
  C:1B23H         PUBLIC        Stop
  C:1B50H         PUBLIC        _UartSend
  D:0099H         PUBLIC        SBUF
  D:0098H         PUBLIC        SCON
  C:1AA9H         PUBLIC        UartInit
  D:0089H         PUBLIC        TMOD
  C:1656H         PUBLIC        _read_reg
  D:008EH         PUBLIC        AUXR
  B:0021H.1       PUBLIC        busy
  D:008DH         PUBLIC        TH1
  C:1A6DH         PUBLIC        I2C_Isr
  C:1AFEH         PUBLIC        UartIsr
  D:008BH         PUBLIC        TL1
  B:0088H.6       PUBLIC        TR1
  C:1A4CH         PUBLIC        _delay_us
  C:1B3BH         PUBLIC        SendACK
  C:1AE4H         PUBLIC        RecvACK
  C:18E8H         PUBLIC        _UartSendStr
  C:1B17H         PUBLIC        SendNAK
  C:1ABDH         PUBLIC        Delay
  B:0021H.2       PUBLIC        busy2
  C:1B46H         SYMBOL        Com0031
  C:1B46H         SYMBOL        L?0050
  C:1B49H         SYMBOL        L?0051
  -------         PROC          COM0031
  -------         ENDPROC       COM0031
  -------         PROC          UARTISR
  C:1AFEH         LINE#         4
  C:1AFEH         LINE#         6
  C:1B01H         LINE#         7
  C:1B01H         LINE#         8
  C:1B03H         LINE#         9
  C:1B05H         LINE#         10
  C:1B05H         LINE#         11
  C:1B08H         LINE#         12
  C:1B08H         LINE#         13
  C:1B0AH         LINE#         14
  C:1B0AH         LINE#         15
  -------         ENDPROC       UARTISR
  -------         PROC          UARTINIT
  C:1AA9H         LINE#         17
  C:1AA9H         LINE#         18
  C:1AA9H         LINE#         19
  C:1AACH         LINE#         20
  C:1AAFH         LINE#         21
BL51 BANKED LINKER/LOCATER V6.22.2.0                                                  03/27/2025  23:40:35  PAGE 6


  C:1AB2H         LINE#         22
  C:1AB5H         LINE#         23
  C:1AB7H         LINE#         24
  C:1ABAH         LINE#         25
  C:1ABCH         LINE#         26
  -------         ENDPROC       UARTINIT
  -------         PROC          _UARTSEND
  D:0007H         SYMBOL        dat
  C:1B50H         LINE#         28
  C:1B50H         LINE#         29
  C:1B50H         LINE#         30
  C:1B53H         LINE#         31
  C:1B55H         LINE#         32
  C:1B57H         LINE#         33
  -------         ENDPROC       _UARTSEND
  -------         PROC          _UARTSENDSTR
  X:02F0H         SYMBOL        p
  C:18E8H         LINE#         34
  C:18F3H         LINE#         35
  C:18F3H         LINE#         36
  C:1903H         LINE#         37
  C:1903H         LINE#         38
  C:1918H         LINE#         39
  C:191AH         LINE#         40
  -------         ENDPROC       _UARTSENDSTR
  -------         PROC          _DELAY_US
  D:0006H         SYMBOL        us
  -------         DO            
  D:0004H         SYMBOL        i
  D:0002H         SYMBOL        j
  -------         ENDDO         
  C:1A4CH         LINE#         41
  C:1A4CH         LINE#         44
  C:1A56H         LINE#         45
  C:1A59H         LINE#         46
  C:1A5AH         LINE#         47
  C:1A6CH         LINE#         48
  -------         ENDPROC       _DELAY_US
  -------         PROC          I2C_ISR
  C:1A6DH         LINE#         51
  C:1A73H         LINE#         53
  C:1A75H         LINE#         54
  C:1A78H         LINE#         55
  C:1A7FH         LINE#         56
  C:1A7FH         LINE#         57
  C:1A83H         LINE#         58
  C:1A85H         LINE#         59
  C:1A85H         LINE#         60
  C:1A87H         LINE#         61
  -------         ENDPROC       I2C_ISR
  -------         PROC          START
  C:1B0BH         LINE#         63
  C:1B0BH         LINE#         64
  C:1B0BH         LINE#         65
  C:1B0DH         LINE#         66
  C:1B13H         LINE#         67
  C:1B16H         LINE#         68
BL51 BANKED LINKER/LOCATER V6.22.2.0                                                  03/27/2025  23:40:35  PAGE 7


  -------         ENDPROC       START
  -------         PROC          _SENDDATA
  D:0007H         SYMBOL        dat
  C:1AF0H         LINE#         70
  C:1AF0H         LINE#         71
  C:1AF0H         LINE#         72
  C:1AF4H         LINE#         73
  C:1AF4H         LINE#         74
  C:1AFAH         LINE#         75
  C:1AFDH         LINE#         76
  -------         ENDPROC       _SENDDATA
  -------         PROC          L?0052
  -------         ENDPROC       L?0052
  -------         PROC          RECVACK
  C:1AE4H         LINE#         78
  C:1AE4H         LINE#         79
  C:1AE4H         LINE#         80
  C:1AE6H         LINE#         81
  C:1AECH         LINE#         82
  C:1AEFH         LINE#         83
  -------         ENDPROC       RECVACK
  -------         PROC          RECVDATA
  C:1AD0H         LINE#         85
  C:1AD0H         LINE#         86
  C:1AD0H         LINE#         87
  C:1AD2H         LINE#         88
  C:1AD8H         LINE#         89
  C:1ADBH         LINE#         90
  C:1AE0H         LINE#         91
  -------         ENDPROC       RECVDATA
  -------         PROC          SENDACK
  C:1B3BH         LINE#         93
  C:1B3BH         LINE#         94
  C:1B3BH         LINE#         95
  C:1B3CH         LINE#         96
  C:1B3CH         LINE#         97
  C:1B42H         LINE#         98
  C:1B45H         LINE#         99
  -------         ENDPROC       SENDACK
  -------         PROC          SENDNAK
  C:1B17H         LINE#         101
  C:1B17H         LINE#         102
  C:1B17H         LINE#         103
  C:1B19H         LINE#         104
  C:1B19H         LINE#         105
  C:1B1FH         LINE#         106
  C:1B22H         LINE#         107
  -------         ENDPROC       SENDNAK
  -------         PROC          STOP
  C:1B23H         LINE#         109
  C:1B23H         LINE#         110
  C:1B23H         LINE#         111
  C:1B25H         LINE#         112
  C:1B2BH         LINE#         113
  C:1B2EH         LINE#         114
  -------         ENDPROC       STOP
  -------         PROC          _READ_REG
BL51 BANKED LINKER/LOCATER V6.22.2.0                                                  03/27/2025  23:40:35  PAGE 8


  X:028FH         SYMBOL        addr
  -------         DO            
  X:0290H         SYMBOL        value
  -------         ENDDO         
  C:1656H         LINE#         115
  C:165BH         LINE#         116
  C:1660H         LINE#         117
  C:1663H         LINE#         119
  C:1666H         LINE#         120
  C:1668H         LINE#         121
  C:166BH         LINE#         122
  C:1670H         LINE#         123
  C:1673H         LINE#         125
  C:1676H         LINE#         126
  C:167BH         LINE#         127
  C:167EH         LINE#         128
  C:168CH         LINE#         129
  C:168FH         LINE#         130
  C:16A7H         LINE#         131
  C:16AAH         LINE#         132
  C:16ADH         LINE#         133
  C:16B0H         LINE#         134
  C:16B8H         LINE#         135
  -------         ENDPROC       _READ_REG
  -------         PROC          DELAY
  -------         DO            
  D:0006H         SYMBOL        i
  -------         ENDDO         
  C:1ABDH         LINE#         136
  C:1ABDH         LINE#         137
  C:1ABDH         LINE#         140
  C:1AC0H         LINE#         141
  C:1AC0H         LINE#         142
  C:1AC1H         LINE#         143
  C:1AC2H         LINE#         144
  C:1AC3H         LINE#         145
  C:1AC4H         LINE#         146
  C:1ACFH         LINE#         147
  -------         ENDPROC       DELAY
  -------         ENDMOD        IIC_UART

  -------         MODULE        MAIN
  C:0000H         SYMBOL        _ICE_DUMMY_
  D:0092H         PUBLIC        P1M0
  D:0093H         PUBLIC        P0M1
  D:0096H         PUBLIC        P2M0
  D:0091H         PUBLIC        P1M1
  D:00B2H         PUBLIC        P3M0
  D:0095H         PUBLIC        P2M1
  D:0090H         PUBLIC        P1
  D:00B4H         PUBLIC        P4M0
  D:00B1H         PUBLIC        P3M1
  D:00CAH         PUBLIC        P5M0
  D:00B3H         PUBLIC        P4M1
  D:00B0H         PUBLIC        P3
  D:00C9H         PUBLIC        P5M1
  B:00A8H.7       PUBLIC        EA
BL51 BANKED LINKER/LOCATER V6.22.2.0                                                  03/27/2025  23:40:35  PAGE 9


  D:00BAH         PUBLIC        P_SW2
  X:0228H         PUBLIC        FM
  B:00B0H.2       PUBLIC        ch_n
  B:00B0H.3       PUBLIC        ch_p
  X:0253H         PUBLIC        read_value
  C:1324H         PUBLIC        main
  X:0255H         PUBLIC        seek_flag
  C:1821H         PUBLIC        _seek
  C:156FH         PUBLIC        read_ina
  X:0257H         PUBLIC        dat
  X:0259H         PUBLIC        cnt
  X:025BH         PUBLIC        seek_dir
  X:025DH         PUBLIC        sound_val
  C:191BH         PUBLIC        scan_key
  C:1980H         PUBLIC        _c_memset
  X:025FH         PUBLIC        ina226
  X:026FH         PUBLIC        send_str
  C:001FH         PUBLIC        init2
  C:17D3H         PUBLIC        init3
  X:028DH         PUBLIC        refresh_flag
  B:00B0H.1       PUBLIC        sound_n
  B:00B0H.0       PUBLIC        sound_p
  D:0094H         PUBLIC        P0M0
  C:1A8EH         SYMBOL        Com0021
  C:1A8EH         SYMBOL        L?0034
  C:1A9AH         SYMBOL        L?0035
  C:1A9AH         SYMBOL        L?0036
  C:1AA2H         SYMBOL        L?0037
  C:1AA2H         SYMBOL        L?0038
  -------         PROC          COM0021
  -------         ENDPROC       COM0021
  -------         PROC          _C_MEMSET
  X:028FH         SYMBOL        src
  D:0005H         SYMBOL        dat
  X:0293H         SYMBOL        len
  -------         DO            
  D:0007H         SYMBOL        index
  -------         ENDDO         
  C:1980H         LINE#         35
  C:198BH         LINE#         36
  C:198DH         LINE#         37
  C:1997H         LINE#         38
  C:19ABH         LINE#         39
  C:19AEH         LINE#         40
  -------         ENDPROC       _C_MEMSET
  -------         PROC          INIT2
  C:001FH         LINE#         41
  C:001FH         LINE#         43
  -------         ENDPROC       INIT2
  C:1802H         SYMBOL        L?0029
  C:1811H         SYMBOL        L?0030
  C:181AH         SYMBOL        L?0031
  -------         PROC          INIT3
  C:17D3H         LINE#         44
  C:17D3H         LINE#         48
  C:17D3H         LINE#         49
  C:17D3H         LINE#         50
BL51 BANKED LINKER/LOCATER V6.22.2.0                                                  03/27/2025  23:40:35  PAGE 10


  C:17D3H         LINE#         51
  C:17D6H         LINE#         52
  C:17D6H         LINE#         53
  C:17D9H         LINE#         54
  C:17DBH         LINE#         55
  C:17DEH         LINE#         56
  C:17E0H         LINE#         57
  C:17E3H         LINE#         58
  C:17E6H         LINE#         59
  C:17E6H         LINE#         61
  C:17E6H         LINE#         62
  C:17E6H         LINE#         63
  C:17E9H         LINE#         64
  C:17EEH         LINE#         65
  C:17F1H         LINE#         66
  C:17F6H         LINE#         67
  C:17F9H         LINE#         68
  C:17F9H         LINE#         69
  C:17FCH         LINE#         70
  C:17FFH         LINE#         71
  C:1802H         LINE#         72
  -------         ENDPROC       INIT3
  -------         PROC          READ_INA
  C:156FH         LINE#         73
  C:156FH         LINE#         74
  C:158DH         LINE#         75
  C:1594H         LINE#         76
  C:15A1H         LINE#         77
  C:15A8H         LINE#         78
  C:15CEH         LINE#         79
  C:15E9H         LINE#         80
  -------         ENDPROC       READ_INA
  C:1864H         SYMBOL        L?0032
  -------         PROC          _SEEK
  X:02F3H         SYMBOL        dir
  C:1821H         LINE#         82
  C:1826H         LINE#         84
  C:1829H         LINE#         85
  C:182CH         LINE#         86
  C:182EH         LINE#         87
  C:1831H         LINE#         88
  C:1833H         LINE#         89
  C:1836H         LINE#         90
  C:184FH         LINE#         91
  C:1852H         LINE#         92
  C:185BH         LINE#         93
  C:185EH         LINE#         94
  C:1861H         LINE#         95
  C:1864H         LINE#         98
  -------         ENDPROC       _SEEK
  -------         PROC          SCAN_KEY
  C:191BH         LINE#         100
  C:191BH         LINE#         101
  C:191EH         LINE#         102
  C:1921H         LINE#         103
  C:1924H         LINE#         104
  C:1927H         LINE#         105
BL51 BANKED LINKER/LOCATER V6.22.2.0                                                  03/27/2025  23:40:35  PAGE 11


  C:1927H         LINE#         106
  C:192AH         LINE#         107
  C:192DH         LINE#         108
  C:1930H         LINE#         109
  C:1933H         LINE#         110
  C:1933H         LINE#         111
  C:1936H         LINE#         112
  C:1939H         LINE#         113
  C:193CH         LINE#         114
  C:193FH         LINE#         115
  C:193FH         LINE#         116
  C:1942H         LINE#         117
  C:1945H         LINE#         118
  C:1948H         LINE#         119
  C:194BH         LINE#         120
  C:194BH         LINE#         121
  C:194DH         LINE#         122
  -------         ENDPROC       SCAN_KEY
  C:13E1H         SYMBOL        L?0027
  C:1407H         SYMBOL        L?0028
  -------         PROC          MAIN
  C:1324H         LINE#         124
  C:1324H         LINE#         125
  C:1324H         LINE#         126
  C:1327H         LINE#         127
  C:1329H         LINE#         128
  C:132BH         LINE#         129
  C:132DH         LINE#         130
  C:132FH         LINE#         131
  C:1331H         LINE#         132
  C:1333H         LINE#         133
  C:1336H         LINE#         134
  C:1338H         LINE#         135
  C:133AH         LINE#         136
  C:133CH         LINE#         137
  C:133EH         LINE#         139
  C:1341H         LINE#         141
  C:1347H         LINE#         142
  C:134CH         LINE#         146
  C:134EH         LINE#         151
  C:1351H         LINE#         152
  C:1358H         LINE#         153
  C:135BH         LINE#         154
  C:1362H         LINE#         155
  C:1365H         LINE#         156
  C:136CH         LINE#         157
  C:136CH         LINE#         158
  C:136FH         LINE#         165
  C:1376H         LINE#         166
  C:1383H         LINE#         167
  C:1387H         LINE#         168
  C:138AH         LINE#         169
  C:1397H         LINE#         170
  C:139CH         LINE#         171
  C:139FH         LINE#         172
  C:13BBH         LINE#         173
  C:13C9H         LINE#         174
BL51 BANKED LINKER/LOCATER V6.22.2.0                                                  03/27/2025  23:40:35  PAGE 12


  C:13D7H         LINE#         175
  C:13DEH         LINE#         176
  C:13E1H         LINE#         177
  -------         ENDPROC       MAIN
  -------         ENDMOD        MAIN

  -------         MODULE        OLED
  C:0000H         SYMBOL        _ICE_DUMMY_
  C:1113H         PUBLIC        _OLED_Float
  C:0026H         PUBLIC        _OLED_ShowNumber
  C:141DH         PUBLIC        OLED_Init
  C:19D8H         PUBLIC        _Write_IIC_Data
  C:1779H         PUBLIC        _OLED_ShowString
  C:0003H         PUBLIC        _OLED_WR_Byte
  C:15F0H         PUBLIC        _OLED_ShowChar
  C:1B2FH         SYMBOL        _?ix1000
  C:194EH         PUBLIC        _OLED_Set_Pos
  C:18AFH         PUBLIC        _oled_pow
  C:1A26H         PUBLIC        _Write_IIC_Command
  C:16B9H         PUBLIC        OLED_Clear
  C:1719H         SYMBOL        Com0031
  C:1719H         SYMBOL        L?0050
  C:171DH         SYMBOL        L?0051
  C:1720H         SYMBOL        L?0052
  C:172CH         SYMBOL        L?0053
  C:1734H         SYMBOL        L?0054
  C:1740H         SYMBOL        L?0055
  C:1742H         SYMBOL        L?0056
  C:1747H         SYMBOL        L?0057
  C:174EH         SYMBOL        L?0059
  C:1750H         SYMBOL        L?0060
  C:175CH         SYMBOL        L?0061
  C:176DH         SYMBOL        L?0062
  -------         PROC          COM0031
  -------         ENDPROC       COM0031
  C:1A44H         SYMBOL        L?0064
  -------         PROC          _WRITE_IIC_COMMAND
  X:029EH         SYMBOL        IIC_Command
  C:1A26H         LINE#         6
  C:1A2BH         LINE#         7
  C:1A2BH         LINE#         9
  C:1A2EH         LINE#         10
  C:1A33H         LINE#         11
  C:1A36H         LINE#         12
  C:1A37H         LINE#         13
  C:1A3AH         LINE#         14
  C:1A3EH         LINE#         15
  C:1A41H         LINE#         16
  C:1A44H         LINE#         17
  -------         ENDPROC       _WRITE_IIC_COMMAND
  C:19F8H         SYMBOL        L?0066
  -------         PROC          _WRITE_IIC_DATA
  X:029EH         SYMBOL        IIC_Data
  C:19D8H         LINE#         21
  C:19DDH         LINE#         22
  C:19DDH         LINE#         23
  C:19E0H         LINE#         24
BL51 BANKED LINKER/LOCATER V6.22.2.0                                                  03/27/2025  23:40:35  PAGE 13


  C:19E2H         LINE#         25
  C:19E5H         LINE#         26
  C:19E7H         LINE#         27
  C:19EAH         LINE#         28
  C:19F2H         LINE#         29
  C:19F5H         LINE#         30
  C:19F8H         LINE#         31
  -------         ENDPROC       _WRITE_IIC_DATA
  -------         PROC          _OLED_WR_BYTE
  X:029CH         SYMBOL        dat
  D:0004H         SYMBOL        cmd
  C:0003H         LINE#         32
  C:000BH         LINE#         33
  C:000BH         LINE#         34
  C:0012H         LINE#         35
  C:0012H         LINE#         36
  C:0018H         LINE#         37
  C:0018H         LINE#         39
  C:0018H         LINE#         40
  C:001EH         LINE#         41
  C:001EH         LINE#         42
  -------         ENDPROC       _OLED_WR_BYTE
  -------         PROC          _OLED_POW
  X:02EAH         SYMBOL        m
  X:02EBH         SYMBOL        n
  -------         DO            
  X:02ECH         SYMBOL        result
  -------         ENDDO         
  C:18AFH         LINE#         44
  C:18B7H         LINE#         45
  C:18B7H         LINE#         46
  C:18BFH         LINE#         47
  C:18E1H         LINE#         48
  C:18E7H         LINE#         49
  -------         ENDPROC       _OLED_POW
  C:1975H         SYMBOL        L?0065
  -------         PROC          _OLED_SET_POS
  X:029BH         SYMBOL        x
  D:0005H         SYMBOL        y
  C:194EH         LINE#         52
  C:1953H         LINE#         53
  C:195AH         LINE#         54
  C:1967H         LINE#         55
  C:1975H         LINE#         56
  -------         ENDPROC       _OLED_SET_POS
  -------         PROC          _OLED_SHOWCHAR
  D:0004H         SYMBOL        x
  D:0005H         SYMBOL        y
  D:0003H         SYMBOL        chr
  X:0298H         SYMBOL        Char_Size
  -------         DO            
  X:0299H         SYMBOL        c
  X:029AH         SYMBOL        i
  -------         ENDDO         
  C:15F0H         LINE#         62
  C:15F2H         LINE#         63
  C:15F2H         LINE#         64
BL51 BANKED LINKER/LOCATER V6.22.2.0                                                  03/27/2025  23:40:35  PAGE 14


  C:15F9H         LINE#         65
  C:1600H         LINE#         66
  C:160EH         LINE#         68
  C:1613H         LINE#         69
  C:1626H         LINE#         70
  C:1655H         LINE#         71
  -------         ENDPROC       _OLED_SHOWCHAR
  -------         PROC          _OLED_SHOWSTRING
  X:028FH         SYMBOL        x
  X:0290H         SYMBOL        y
  X:0291H         SYMBOL        chr
  X:0294H         SYMBOL        Char_Size
  C:1779H         LINE#         73
  C:178AH         LINE#         74
  C:178AH         LINE#         75
  C:179BH         LINE#         76
  C:17AEH         LINE#         77
  C:17B5H         LINE#         78
  C:17C6H         LINE#         79
  C:17D0H         LINE#         80
  C:17D2H         LINE#         81
  -------         ENDPROC       _OLED_SHOWSTRING
  -------         PROC          _OLED_FLOAT
  X:02BFH         SYMBOL        X
  X:02C0H         SYMBOL        Y
  X:02C1H         SYMBOL        real
  X:02C5H         SYMBOL        N
  -------         DO            
  X:02C6H         SYMBOL        i_Count
  X:02C7H         SYMBOL        n
  X:02D3H         SYMBOL        j
  X:02D7H         SYMBOL        real_int
  X:02D9H         SYMBOL        decimal
  X:02DDH         SYMBOL        real_decimal
  -------         ENDDO         
  C:1113H         LINE#         82
  C:111BH         LINE#         83
  C:111BH         LINE#         84
  C:1121H         LINE#         85
  C:1133H         LINE#         86
  C:113DH         LINE#         87
  C:1144H         LINE#         88
  C:114CH         LINE#         89
  C:1153H         LINE#         90
  C:1161H         LINE#         91
  C:1161H         LINE#         92
  C:1164H         LINE#         93
  C:1166H         LINE#         95
  C:1166H         LINE#         96
  C:1171H         LINE#         97
  C:1171H         LINE#         98
  C:118CH         LINE#         99
  C:11A8H         LINE#         100
  C:11C8H         LINE#         101
  C:11C8H         LINE#         102
  C:11E3H         LINE#         103
  C:11E5H         LINE#         104
BL51 BANKED LINKER/LOCATER V6.22.2.0                                                  03/27/2025  23:40:35  PAGE 15


  C:11FAH         LINE#         105
  C:1204H         LINE#         106
  C:1216H         LINE#         107
  C:1220H         LINE#         108
  C:1230H         LINE#         109
  C:1234H         LINE#         110
  C:1249H         LINE#         111
  C:1253H         LINE#         112
  C:1263H         LINE#         113
  C:1270H         LINE#         114
  C:1273H         LINE#         115
  C:12CCH         LINE#         116
  C:12D5H         LINE#         117
  C:12D5H         LINE#         118
  C:12DBH         LINE#         119
  C:12F3H         LINE#         120
  C:12F3H         LINE#         121
  C:12F8H         LINE#         122
  C:12FBH         LINE#         123
  -------         ENDPROC       _OLED_FLOAT
  -------         PROC          _OLED_SHOWNUMBER
  X:02DFH         SYMBOL        x
  X:02E0H         SYMBOL        y
  X:02E1H         SYMBOL        num
  X:02E5H         SYMBOL        len
  X:02E6H         SYMBOL        size2
  -------         DO            
  X:02E7H         SYMBOL        t
  X:02E8H         SYMBOL        temp
  X:02E9H         SYMBOL        enshow
  -------         ENDDO         
  C:0026H         LINE#         129
  C:002EH         LINE#         130
  C:002EH         LINE#         132
  C:0033H         LINE#         133
  C:0045H         LINE#         134
  C:0045H         LINE#         135
  C:0066H         LINE#         136
  C:0079H         LINE#         137
  C:0079H         LINE#         138
  C:007DH         LINE#         139
  C:007DH         LINE#         140
  C:0090H         LINE#         141
  C:0092H         LINE#         142
  C:0098H         LINE#         144
  C:0098H         LINE#         145
  C:00B8H         LINE#         146
  C:00C1H         LINE#         147
  -------         ENDPROC       _OLED_SHOWNUMBER
  -------         PROC          OLED_CLEAR
  -------         DO            
  X:028FH         SYMBOL        i
  X:0290H         SYMBOL        n
  -------         ENDDO         
  C:16B9H         LINE#         149
  C:16B9H         LINE#         150
  C:16B9H         LINE#         152
BL51 BANKED LINKER/LOCATER V6.22.2.0                                                  03/27/2025  23:40:35  PAGE 16


  C:16CEH         LINE#         153
  C:16CEH         LINE#         154
  C:16DBH         LINE#         155
  C:16E3H         LINE#         156
  C:16ECH         LINE#         157
  C:1710H         LINE#         158
  C:1718H         LINE#         159
  -------         ENDPROC       OLED_CLEAR
  C:14A4H         SYMBOL        L?0045
  C:14AFH         SYMBOL        L?0046
  C:14BAH         SYMBOL        L?0047
  C:14C5H         SYMBOL        L?0048
  C:14D0H         SYMBOL        L?0058
  C:14DBH         SYMBOL        L?0063
  -------         PROC          OLED_INIT
  C:141DH         LINE#         161
  C:141DH         LINE#         162
  C:141DH         LINE#         163
  C:1424H         LINE#         164
  C:1426H         LINE#         165
  C:142FH         LINE#         166
  C:1431H         LINE#         168
  C:143AH         LINE#         170
  C:143CH         LINE#         171
  C:1445H         LINE#         173
  C:1447H         LINE#         175
  C:1450H         LINE#         177
  C:1452H         LINE#         178
  C:145BH         LINE#         180
  C:145DH         LINE#         181
  C:1465H         LINE#         183
  C:1467H         LINE#         184
  C:1470H         LINE#         186
  C:1472H         LINE#         187
  C:147BH         LINE#         189
  C:147DH         LINE#         190
  C:1486H         LINE#         192
  C:1488H         LINE#         193
  C:148DH         LINE#         195
  C:1492H         LINE#         196
  C:149BH         LINE#         197
  C:14A4H         LINE#         198
  -------         ENDPROC       OLED_INIT
  -------         ENDMOD        OLED

  -------         MODULE        ?C?FPADD
  C:00CDH         PUBLIC        ?C?FPADD
  C:00C9H         PUBLIC        ?C?FPSUB
  -------         ENDMOD        ?C?FPADD

  -------         MODULE        ?C?FPMUL
  C:01BEH         PUBLIC        ?C?FPMUL
  -------         ENDMOD        ?C?FPMUL

  -------         MODULE        ?C?FPDIV
  C:02C7H         PUBLIC        ?C?FPDIV
  -------         ENDMOD        ?C?FPDIV
BL51 BANKED LINKER/LOCATER V6.22.2.0                                                  03/27/2025  23:40:35  PAGE 17



  -------         MODULE        ?C?FPCMP
  C:0366H         PUBLIC        ?C?FPCMP
  C:0364H         PUBLIC        ?C?FPCMP3
  -------         ENDMOD        ?C?FPCMP

  -------         MODULE        ?C?FPNEG
  C:03DDH         PUBLIC        ?C?FPNEG
  -------         ENDMOD        ?C?FPNEG

  -------         MODULE        ?C?FCAST
  C:03F8H         PUBLIC        ?C?FCASTC
  C:03F3H         PUBLIC        ?C?FCASTI
  C:03EEH         PUBLIC        ?C?FCASTL
  -------         ENDMOD        ?C?FCAST

  -------         MODULE        ?C?CASTF
  C:042CH         PUBLIC        ?C?CASTF
  -------         ENDMOD        ?C?CASTF

  -------         MODULE        PRINTF
  X:028FH         PUBLIC        ?_PRINTF?BYTE
  X:028FH         PUBLIC        ?_SPRINTF?BYTE
  C:0AB5H         PUBLIC        _PRINTF
  C:0AAFH         PUBLIC        _SPRINTF
  -------         ENDMOD        PRINTF

  -------         MODULE        ?C?FPROUND
  C:04ADH         PUBLIC        ?C?FPROUND
  -------         ENDMOD        ?C?FPROUND

  -------         MODULE        ?C?FPCONVERT
  C:04EAH         PUBLIC        ?C?FPCONVERT
  -------         ENDMOD        ?C?FPCONVERT

  -------         MODULE        ?C?FTNPWR
  C:061FH         PUBLIC        ?C?FTNPWR
  -------         ENDMOD        ?C?FTNPWR

  -------         MODULE        ?C?COPY
  C:072FH         PUBLIC        ?C?COPY
  -------         ENDMOD        ?C?COPY

  -------         MODULE        ?C?CLDPTR
  C:0755H         PUBLIC        ?C?CLDPTR
  -------         ENDMOD        ?C?CLDPTR

  -------         MODULE        ?C?CLDOPTR
  C:076EH         PUBLIC        ?C?CLDOPTR
  -------         ENDMOD        ?C?CLDOPTR

  -------         MODULE        ?C?CSTPTR
  C:079BH         PUBLIC        ?C?CSTPTR
  -------         ENDMOD        ?C?CSTPTR

  -------         MODULE        ?C?CSTOPTR
  C:07ADH         PUBLIC        ?C?CSTOPTR
BL51 BANKED LINKER/LOCATER V6.22.2.0                                                  03/27/2025  23:40:35  PAGE 18


  -------         ENDMOD        ?C?CSTOPTR

  -------         MODULE        ?C?UIDIV
  C:07CFH         PUBLIC        ?C?UIDIV
  -------         ENDMOD        ?C?UIDIV

  -------         MODULE        ?C?SIDIV
  C:0824H         PUBLIC        ?C?SIDIV
  -------         ENDMOD        ?C?SIDIV

  -------         MODULE        ?C?IILDX
  C:085AH         PUBLIC        ?C?IILDX
  -------         ENDMOD        ?C?IILDX

  -------         MODULE        ?C?ILDIX
  C:0870H         PUBLIC        ?C?ILDIX
  -------         ENDMOD        ?C?ILDIX

  -------         MODULE        ?C?LMUL
  C:0886H         PUBLIC        ?C?LMUL
  -------         ENDMOD        ?C?LMUL

  -------         MODULE        ?C?ULDIV
  C:0911H         PUBLIC        ?C?ULDIV
  -------         ENDMOD        ?C?ULDIV

  -------         MODULE        ?C?SLDIV
  C:186BH         PUBLIC        ?C?SLDIV
  -------         ENDMOD        ?C?SLDIV

  -------         MODULE        ?C?LNEG
  C:09A3H         PUBLIC        ?C?LNEG
  -------         ENDMOD        ?C?LNEG

  -------         MODULE        ?C?SLCMP
  C:09B1H         PUBLIC        ?C?SLCMP
  -------         ENDMOD        ?C?SLCMP

  -------         MODULE        ?C?LSTXDATA
  C:09C7H         PUBLIC        ?C?LSTXDATA
  -------         ENDMOD        ?C?LSTXDATA

  -------         MODULE        ?C?LSTKXDATA
  C:09D3H         PUBLIC        ?C?LSTKXDATA
  -------         ENDMOD        ?C?LSTKXDATA

  -------         MODULE        ?C?PLDIXDATA
  C:0A04H         PUBLIC        ?C?PLDIXDATA
  -------         ENDMOD        ?C?PLDIXDATA

  -------         MODULE        ?C?PSTXDATA
  C:0A1BH         PUBLIC        ?C?PSTXDATA
  -------         ENDMOD        ?C?PSTXDATA

  -------         MODULE        ?C?CCASE
  C:0A24H         PUBLIC        ?C?CCASE
  -------         ENDMOD        ?C?CCASE
BL51 BANKED LINKER/LOCATER V6.22.2.0                                                  03/27/2025  23:40:35  PAGE 19



  -------         MODULE        PUTCHAR
  C:19FFH         PUBLIC        _PUTCHAR
  -------         ENDMOD        PUTCHAR

*** WARNING L16: UNCALLED SEGMENT, IGNORED FOR OVERLAY PROCESS
    SEGMENT: ?PR?UARTINIT?IIC_UART

*** WARNING L16: UNCALLED SEGMENT, IGNORED FOR OVERLAY PROCESS
    SEGMENT: ?PR?_UARTSENDSTR?IIC_UART

*** WARNING L16: UNCALLED SEGMENT, IGNORED FOR OVERLAY PROCESS
    SEGMENT: ?PR?INIT2?MAIN

*** WARNING L16: UNCALLED SEGMENT, IGNORED FOR OVERLAY PROCESS
    SEGMENT: ?PR?_SEEK?MAIN

*** WARNING L16: UNCALLED SEGMENT, IGNORED FOR OVERLAY PROCESS
    SEGMENT: ?PR?SCAN_KEY?MAIN

*** WARNING L16: UNCALLED SEGMENT, IGNORED FOR OVERLAY PROCESS
    SEGMENT: ?PR?_OLED_FLOAT?OLED

*** WARNING L16: UNCALLED SEGMENT, IGNORED FOR OVERLAY PROCESS
    SEGMENT: ?PR?_OLED_SHOWNUMBER?OLED

Program Size: data=15.3 xdata=756 code=6996
LINK/LOCATE RUN COMPLETE.  7 WARNING(S),  0 ERROR(S)
