BL51 BANKED LINKER/LOCATER V6.22.2.0                                                    03/06/2025  20:40:51  PAGE 1


BL51 BANKED LINKER/LOCATER V6.22.2.0, INVOKED BY:
E:\KEIL-C51\KEIL\C51\BIN\BL51.EXE .\Objects\main.obj, .\Objects\fonts.obj TO .\Objects\line_pow PRINT (.\Listings\line_p
>> ow.m51) RAMSIZE (256)


MEMORY MODEL: LARGE WITH FLOATING POINT ARITHMETIC


INPUT MODULES INCLUDED:
  .\Objects\main.obj (MAIN)
  .\Objects\fonts.obj (FONTS)
  E:\KEIL-C51\KEIL\C51\LIB\C51FPL.LIB (?C?FPADD)
  E:\KEIL-C51\KEIL\C51\LIB\C51FPL.LIB (?C?FPMUL)
  E:\KEIL-C51\KEIL\C51\LIB\C51FPL.LIB (?C?FPDIV)
  E:\KEIL-C51\KEIL\C51\LIB\C51FPL.LIB (?C?FCAST)
  E:\KEIL-C51\KEIL\C51\LIB\C51FPL.LIB (?C?CASTF)
  E:\KEIL-C51\KEIL\C51\LIB\C51FPL.LIB (PRINTF)
  E:\KEIL-C51\KEIL\C51\LIB\C51FPL.LIB (?C?FPGETOPN)
  E:\KEIL-C51\KEIL\C51\LIB\C51FPL.LIB (?C?FPROUND)
  E:\KEIL-C51\KEIL\C51\LIB\C51FPL.LIB (?C?FPCONVERT)
  E:\KEIL-C51\KEIL\C51\LIB\C51FPL.LIB (?C?FTNPWR)
  E:\KEIL-C51\KEIL\C51\LIB\C51L.LIB (?C_STARTUP)
  E:\KEIL-C51\KEIL\C51\LIB\C51L.LIB (?C?CLDPTR)
  E:\KEIL-C51\KEIL\C51\LIB\C51L.LIB (?C?CLDOPTR)
  E:\KEIL-C51\KEIL\C51\LIB\C51L.LIB (?C?CSTPTR)
  E:\KEIL-C51\KEIL\C51\LIB\C51L.LIB (?C?CSTOPTR)
  E:\KEIL-C51\KEIL\C51\LIB\C51L.LIB (?C?IMUL)
  E:\KEIL-C51\KEIL\C51\LIB\C51L.LIB (?C?IILDX)
  E:\KEIL-C51\KEIL\C51\LIB\C51L.LIB (?C?ILDIX)
  E:\KEIL-C51\KEIL\C51\LIB\C51L.LIB (?C?LNEG)
  E:\KEIL-C51\KEIL\C51\LIB\C51L.LIB (?C?LSTXDATA)
  E:\KEIL-C51\KEIL\C51\LIB\C51L.LIB (?C?PLDIXDATA)
  E:\KEIL-C51\KEIL\C51\LIB\C51L.LIB (?C?PSTXDATA)
  E:\KEIL-C51\KEIL\C51\LIB\C51L.LIB (?C?CCASE)
  E:\KEIL-C51\KEIL\C51\LIB\C51L.LIB (PUTCHAR)
  E:\KEIL-C51\KEIL\C51\LIB\C51L.LIB (?C_INIT)


LINK MAP OF MODULE:  .\Objects\line_pow (MAIN)


            TYPE    BASE      LENGTH    RELOCATION   SEGMENT NAME
            -----------------------------------------------------

            * * * * * * *   D A T A   M E M O R Y   * * * * * * *
            REG     0000H     0008H     ABSOLUTE     "REG BANK 0"
            DATA    0008H     0005H     UNIT         _DATA_GROUP_
                    000DH     0013H                  *** GAP ***
            BIT     0020H.0   0001H.1   UNIT         _BIT_GROUP_
            BIT     0021H.1   0000H.1   UNIT         ?BI?MAIN
                    0021H.2   0000H.6                *** GAP ***
            IDATA   0022H     0001H     UNIT         ?STACK

            * * * * * * *  X D A T A   M E M O R Y  * * * * * * *
            XDATA   0000H     0228H     UNIT         ?XD?FONTS
            XDATA   0228H     00B0H     UNIT         ?XD?MAIN
            XDATA   02D8H     0030H     UNIT         _XDATA_GROUP_
            XDATA   0308H     0003H     UNIT         ?XD?_UARTSENDSTR?MAIN
BL51 BANKED LINKER/LOCATER V6.22.2.0                                                  03/06/2025  20:40:51  PAGE 2



            * * * * * * *   C O D E   M E M O R Y   * * * * * * *
            CODE    0000H     0003H     ABSOLUTE     
            CODE    0003H     001DH     UNIT         ?PR?DELAY?MAIN
                    0020H     0003H                  *** GAP ***
            CODE    0023H     0003H     ABSOLUTE     
            CODE    0026H     0627H     UNIT         ?C?LIB_CODE
            CODE    064DH     0483H     UNIT         ?PR?PRINTF?PRINTF
            CODE    0AD0H     0320H     UNIT         ?PR?MAIN?MAIN
            CODE    0DF0H     024EH     UNIT         ?C_INITSEG
            CODE    103EH     011FH     UNIT         ?PR?MAIN
            CODE    115DH     00C5H     UNIT         ?PR?OLED_INIT?MAIN
            CODE    1222H     008CH     UNIT         ?C_C51STARTUP
            CODE    12AEH     006EH     UNIT         ?PR?_OLED_SHOWCHAR?MAIN
            CODE    131CH     005CH     UNIT         ?PR?OLED_CLEAR?MAIN
            CODE    1378H     004EH     UNIT         ?PR?_OLED_SHOWSTRING?MAIN
            CODE    13C6H     0043H     UNIT         ?PR?_IIC_SEND_BYTE?MAIN
            CODE    1409H     0032H     UNIT         ?PR?_OLED_SET_POS?MAIN
            CODE    143BH     0030H     UNIT         ?CO?MAIN
            CODE    146BH     0029H     UNIT         ?PR?_UARTSENDSTR?MAIN
            CODE    1494H     0028H     UNIT         ?PR?IIC_WAIT_ACK?MAIN
            CODE    14BCH     0027H     UNIT         ?PR?_WRITE_IIC_DATA?MAIN
            CODE    14E3H     0027H     UNIT         ?PR?PUTCHAR?PUTCHAR
            CODE    150AH     0026H     UNIT         ?PR?_WRITE_IIC_COMMAND?MAIN
            CODE    1530H     0025H     UNIT         ?PR?_C_MEMSET?MAIN
            CODE    1555H     0021H     UNIT         ?PR?_DELAY_US?MAIN
            CODE    1576H     0021H     UNIT         ?PR?_DELAY_MS?MAIN
            CODE    1597H     001CH     UNIT         ?PR?_OLED_WR_BYTE?MAIN
            CODE    15B3H     0014H     UNIT         ?PR?UARTINIT?MAIN
            CODE    15C7H     0012H     UNIT         ?PR?IIC_START?MAIN
            CODE    15D9H     0011H     UNIT         ?PR?I2C_ACK?MAIN
            CODE    15EAH     000EH     UNIT         ?PR?IIC_INIT?MAIN
            CODE    15F8H     000EH     UNIT         ?PR?IIC_STOP?MAIN
            CODE    1606H     000DH     UNIT         ?PR?UARTISR?MAIN
            CODE    1613H     000CH     UNIT         ?PR?I2C_NACK?MAIN
            CODE    161FH     0008H     UNIT         ?PR?_UARTSEND?MAIN



OVERLAY MAP OF MODULE:   .\Objects\line_pow (MAIN)


SEGMENT                                BIT_GROUP          DATA_GROUP          XDATA_GROUP
  +--> CALLED SEGMENT               START    LENGTH     START    LENGTH     START    LENGTH
-------------------------------------------------------------------------------------------
?C_C51STARTUP                       -----    -----      -----    -----      -----    -----
  +--> ?PR?MAIN?MAIN
  +--> ?C_INITSEG

?PR?MAIN?MAIN                       -----    -----      -----    -----      -----    -----
  +--> ?PR?OLED_INIT?MAIN
  +--> ?PR?OLED_CLEAR?MAIN
  +--> ?PR?MAIN
  +--> ?CO?MAIN
  +--> ?PR?_OLED_SHOWSTRING?MAIN
  +--> ?PR?_DELAY_MS?MAIN
  +--> ?PR?PRINTF?PRINTF
BL51 BANKED LINKER/LOCATER V6.22.2.0                                                  03/06/2025  20:40:51  PAGE 3


  +--> ?PR?_C_MEMSET?MAIN

?PR?OLED_INIT?MAIN                  -----    -----      -----    -----      -----    -----
  +--> ?PR?_DELAY_MS?MAIN
  +--> ?PR?_OLED_WR_BYTE?MAIN

?PR?_OLED_WR_BYTE?MAIN              -----    -----      -----    -----      02E5H    0002H
  +--> ?PR?_WRITE_IIC_DATA?MAIN
  +--> ?PR?_WRITE_IIC_COMMAND?MAIN

?PR?_WRITE_IIC_DATA?MAIN            -----    -----      -----    -----      02E7H    0001H
  +--> ?PR?IIC_START?MAIN
  +--> ?PR?_IIC_SEND_BYTE?MAIN
  +--> ?PR?I2C_NACK?MAIN
  +--> ?PR?IIC_STOP?MAIN

?PR?IIC_START?MAIN                  -----    -----      -----    -----      -----    -----
  +--> ?PR?MAIN
  +--> ?PR?_DELAY_US?MAIN

?PR?MAIN                            -----    -----      -----    -----      -----    -----
  +--> ?PR?_DELAY_US?MAIN

?PR?_IIC_SEND_BYTE?MAIN             -----    -----      -----    -----      02E8H    0003H
  +--> ?PR?MAIN
  +--> ?PR?_DELAY_US?MAIN

?PR?I2C_NACK?MAIN                   -----    -----      -----    -----      -----    -----
  +--> ?PR?_DELAY_US?MAIN

?PR?IIC_STOP?MAIN                   -----    -----      -----    -----      -----    -----
  +--> ?PR?MAIN
  +--> ?PR?_DELAY_US?MAIN

?PR?_WRITE_IIC_COMMAND?MAIN         -----    -----      -----    -----      02E7H    0001H
  +--> ?PR?IIC_START?MAIN
  +--> ?PR?_IIC_SEND_BYTE?MAIN
  +--> ?PR?I2C_NACK?MAIN
  +--> ?PR?IIC_STOP?MAIN

?PR?OLED_CLEAR?MAIN                 -----    -----      -----    -----      02D8H    0002H
  +--> ?PR?MAIN
  +--> ?PR?_OLED_WR_BYTE?MAIN

?PR?_OLED_SHOWSTRING?MAIN           -----    -----      -----    -----      02D8H    0006H
  +--> ?PR?MAIN
  +--> ?PR?_OLED_SHOWCHAR?MAIN

?PR?_OLED_SHOWCHAR?MAIN             -----    -----      -----    -----      02DEH    0006H
  +--> ?PR?_OLED_SET_POS?MAIN
  +--> ?PR?_OLED_WR_BYTE?MAIN

?PR?_OLED_SET_POS?MAIN              -----    -----      -----    -----      02E4H    0001H
  +--> ?PR?_OLED_WR_BYTE?MAIN

?PR?PRINTF?PRINTF                   0020H.0  0001H.1    0008H    0005H      02D8H    0030H
  +--> ?PR?PUTCHAR?PUTCHAR
BL51 BANKED LINKER/LOCATER V6.22.2.0                                                  03/06/2025  20:40:51  PAGE 4



?PR?_C_MEMSET?MAIN                  -----    -----      -----    -----      02D8H    0005H
  +--> ?PR?MAIN



SYMBOL TABLE OF MODULE:  .\Objects\line_pow (MAIN)

  VALUE           TYPE          NAME
  ----------------------------------

  -------         MODULE        MAIN
  C:0000H         SYMBOL        _ICE_DUMMY_
  D:0092H         PUBLIC        P1M0
  D:0093H         PUBLIC        P0M1
  X:0228H         PUBLIC        ave_output_cur
  D:0096H         PUBLIC        P2M0
  D:0091H         PUBLIC        P1M1
  D:00B2H         PUBLIC        P3M0
  D:0095H         PUBLIC        P2M1
  X:0250H         PUBLIC        temp_i
  D:00B1H         PUBLIC        P3M1
  X:0251H         PUBLIC        send_v
  D:00CAH         PUBLIC        P5M0
  D:00B0H         PUBLIC        P3
  D:00C9H         PUBLIC        P5M1
  D:00C8H         PUBLIC        P5
  X:0253H         PUBLIC        input_v
  X:0255H         PUBLIC        output_v
  D:00BAH         PUBLIC        P_SW2
  B:00B0H.1       PUBLIC        IIC_SDA
  C:0003H         PUBLIC        delay
  D:00BDH         PUBLIC        ADC_RES
  X:0257H         PUBLIC        ref_v
  B:00C8H.5       PUBLIC        IIC_SCL
  D:00DEH         PUBLIC        ADCCFG
  B:0098H.0       PUBLIC        RI
  C:115DH         PUBLIC        OLED_Init
  B:0098H.1       PUBLIC        TI
  C:14BCH         PUBLIC        _Write_IIC_Data
  C:1378H         PUBLIC        _OLED_ShowString
  C:1597H         PUBLIC        _OLED_WR_Byte
  C:0AD0H         PUBLIC        main
  X:0259H         PUBLIC        ave_input_v
  C:12AEH         PUBLIC        _OLED_ShowChar
  X:0281H         PUBLIC        ave_output_v
  C:161FH         PUBLIC        _UartSend
  C:15D9H         PUBLIC        I2C_Ack
  D:00BCH         PUBLIC        ADC_CONTR
  D:0099H         PUBLIC        SBUF
  D:0098H         PUBLIC        SCON
  C:15B3H         PUBLIC        UartInit
  D:0089H         PUBLIC        TMOD
  C:13C6H         PUBLIC        _IIC_Send_Byte
  C:1494H         PUBLIC        IIC_Wait_Ack
  D:008EH         PUBLIC        AUXR
  B:0021H.1       PUBLIC        busy
BL51 BANKED LINKER/LOCATER V6.22.2.0                                                  03/06/2025  20:40:51  PAGE 5


  C:1409H         PUBLIC        _OLED_Set_Pos
  C:15C7H         PUBLIC        IIC_Start
  X:02A9H         PUBLIC        src
  D:008DH         PUBLIC        TH1
  C:1606H         PUBLIC        UartIsr
  X:02ABH         PUBLIC        num
  D:008BH         PUBLIC        TL1
  C:1530H         PUBLIC        _c_memset
  C:1576H         PUBLIC        _delay_ms
  B:0088H.6       PUBLIC        TR1
  C:1555H         PUBLIC        _delay_us
  C:15F8H         PUBLIC        IIC_Stop
  X:02B5H         PUBLIC        BGV
  D:00BEH         PUBLIC        ADC_RESL
  X:02B8H         PUBLIC        output_cur
  C:146BH         PUBLIC        _UartSendStr
  X:02BAH         PUBLIC        send_str
  C:150AH         PUBLIC        _Write_IIC_Command
  C:15EAH         PUBLIC        IIC_init
  C:131CH         PUBLIC        OLED_Clear
  C:1613H         PUBLIC        I2C_NAck
  D:0094H         PUBLIC        P0M0
  C:103EH         SYMBOL        Com0061
  C:103EH         SYMBOL        L?0098
  C:1041H         SYMBOL        L?0099
  C:1044H         SYMBOL        L?0100
  C:1050H         SYMBOL        L?0101
  C:1050H         SYMBOL        L?0102
  C:107DH         SYMBOL        L?0108
  C:107FH         SYMBOL        L?0109
  C:108DH         SYMBOL        L?0110
  C:1095H         SYMBOL        L?0111
  C:1095H         SYMBOL        L?0112
  C:10AAH         SYMBOL        L?0114
  C:10ACH         SYMBOL        L?0115
  C:10B9H         SYMBOL        L?0116
  C:10B9H         SYMBOL        L?0117
  C:10BBH         SYMBOL        L?0118
  C:10C7H         SYMBOL        L?0120
  C:10C7H         SYMBOL        L?0121
  C:10CFH         SYMBOL        L?0122
  C:10CFH         SYMBOL        L?0123
  C:10D9H         SYMBOL        L?0125
  C:10D9H         SYMBOL        L?0126
  C:10E3H         SYMBOL        L?0127
  C:10E3H         SYMBOL        L?0128
  C:10ECH         SYMBOL        L?0129
  C:10ECH         SYMBOL        L?0130
  C:10F5H         SYMBOL        L?0131
  C:1103H         SYMBOL        L?0132
  C:1103H         SYMBOL        L?0133
  C:110BH         SYMBOL        L?0134
  C:110BH         SYMBOL        L?0135
  C:1112H         SYMBOL        L?0136
  C:1112H         SYMBOL        L?0137
  C:1119H         SYMBOL        L?0138
  C:1125H         SYMBOL        L?0139
BL51 BANKED LINKER/LOCATER V6.22.2.0                                                  03/06/2025  20:40:51  PAGE 6


  C:1131H         SYMBOL        L?0140
  C:113DH         SYMBOL        L?0143
  C:113DH         SYMBOL        L?0144
  C:1143H         SYMBOL        L?0145
  C:1143H         SYMBOL        L?0146
  C:1149H         SYMBOL        L?0147
  C:1153H         SYMBOL        L?0148
  -------         PROC          COM0061
  -------         ENDPROC       COM0061
  -------         PROC          _C_MEMSET
  X:02D8H         SYMBOL        src
  D:0005H         SYMBOL        dat
  X:02DCH         SYMBOL        len
  -------         DO            
  D:0007H         SYMBOL        index
  -------         ENDDO         
  C:1530H         LINE#         51
  C:1536H         LINE#         52
  C:1538H         LINE#         53
  C:1542H         LINE#         54
  C:1551H         LINE#         55
  C:1554H         LINE#         56
  -------         ENDPROC       _C_MEMSET
  -------         PROC          UARTISR
  C:1606H         LINE#         71
  C:1606H         LINE#         73
  C:1609H         LINE#         74
  C:1609H         LINE#         75
  C:160BH         LINE#         76
  C:160DH         LINE#         77
  C:160DH         LINE#         78
  C:1610H         LINE#         79
  C:1610H         LINE#         80
  C:1612H         LINE#         81
  C:1612H         LINE#         82
  -------         ENDPROC       UARTISR
  -------         PROC          UARTINIT
  C:15B3H         LINE#         84
  C:15B3H         LINE#         85
  C:15B3H         LINE#         86
  C:15B6H         LINE#         87
  C:15B9H         LINE#         88
  C:15BCH         LINE#         89
  C:15BFH         LINE#         90
  C:15C1H         LINE#         91
  C:15C4H         LINE#         92
  C:15C6H         LINE#         93
  -------         ENDPROC       UARTINIT
  -------         PROC          _UARTSEND
  D:0007H         SYMBOL        dat
  C:161FH         LINE#         95
  C:161FH         LINE#         96
  C:161FH         LINE#         97
  C:1622H         LINE#         98
  C:1624H         LINE#         99
  C:1626H         LINE#         100
  -------         ENDPROC       _UARTSEND
BL51 BANKED LINKER/LOCATER V6.22.2.0                                                  03/06/2025  20:40:51  PAGE 7


  -------         PROC          _UARTSENDSTR
  X:0308H         SYMBOL        p
  C:146BH         LINE#         101
  C:1471H         LINE#         102
  C:1471H         LINE#         103
  C:147CH         LINE#         104
  C:147CH         LINE#         105
  C:1491H         LINE#         106
  C:1493H         LINE#         107
  -------         ENDPROC       _UARTSENDSTR
  -------         PROC          _DELAY_US
  D:0006H         SYMBOL        us
  -------         DO            
  D:0004H         SYMBOL        i
  D:0002H         SYMBOL        j
  -------         ENDDO         
  C:1555H         LINE#         108
  C:1555H         LINE#         111
  C:155FH         LINE#         112
  C:1562H         LINE#         113
  C:1563H         LINE#         114
  C:1575H         LINE#         115
  -------         ENDPROC       _DELAY_US
  -------         PROC          DELAY
  -------         DO            
  D:0006H         SYMBOL        i
  D:0004H         SYMBOL        j
  -------         ENDDO         
  C:0003H         LINE#         120
  C:0003H         LINE#         121
  C:0003H         LINE#         124
  C:0006H         LINE#         125
  C:001FH         LINE#         126
  -------         ENDPROC       DELAY
  -------         PROC          _DELAY_MS
  D:0006H         SYMBOL        dms
  -------         DO            
  D:0004H         SYMBOL        i
  D:0002H         SYMBOL        j
  -------         ENDDO         
  C:1576H         LINE#         127
  C:1576H         LINE#         129
  C:1580H         LINE#         130
  C:1583H         LINE#         131
  C:1584H         LINE#         132
  C:1596H         LINE#         133
  -------         ENDPROC       _DELAY_MS
  -------         PROC          IIC_INIT
  C:15EAH         LINE#         134
  C:15EAH         LINE#         136
  C:15EAH         LINE#         138
  C:15ECH         LINE#         140
  C:15F3H         LINE#         142
  C:15F5H         LINE#         144
  -------         ENDPROC       IIC_INIT
  -------         PROC          IIC_START
  C:15C7H         LINE#         150
BL51 BANKED LINKER/LOCATER V6.22.2.0                                                  03/06/2025  20:40:51  PAGE 8


  C:15C7H         LINE#         152
  C:15C7H         LINE#         153
  C:15C9H         LINE#         154
  C:15CBH         LINE#         155
  C:15CEH         LINE#         156
  C:15D1H         LINE#         157
  C:15D3H         LINE#         158
  C:15D6H         LINE#         159
  C:15D8H         LINE#         161
  -------         ENDPROC       IIC_START
  -------         PROC          IIC_STOP
  C:15F8H         LINE#         167
  C:15F8H         LINE#         168
  C:15F8H         LINE#         170
  C:15FAH         LINE#         171
  C:15FCH         LINE#         172
  C:15FEH         LINE#         173
  C:1601H         LINE#         174
  C:1603H         LINE#         175
  -------         ENDPROC       IIC_STOP
  -------         PROC          I2C_ACK
  C:15D9H         LINE#         181
  C:15D9H         LINE#         182
  C:15D9H         LINE#         183
  C:15DBH         LINE#         184
  C:15DDH         LINE#         185
  C:15DFH         LINE#         186
  C:15E2H         LINE#         187
  C:15E7H         LINE#         188
  C:15E9H         LINE#         189
  -------         ENDPROC       I2C_ACK
  -------         PROC          I2C_NACK
  C:1613H         LINE#         196
  C:1613H         LINE#         197
  C:1613H         LINE#         201
  C:1615H         LINE#         202
  C:161CH         LINE#         203
  C:161EH         LINE#         204
  -------         ENDPROC       I2C_NACK
  -------         PROC          IIC_WAIT_ACK
  -------         DO            
  D:0001H         SYMBOL        ucErrTime
  -------         ENDDO         
  C:1494H         LINE#         208
  C:1494H         LINE#         209
  C:1494H         LINE#         210
  C:1496H         LINE#         212
  C:149EH         LINE#         213
  C:14A3H         LINE#         214
  C:14A6H         LINE#         215
  C:14A6H         LINE#         216
  C:14A7H         LINE#         217
  C:14B1H         LINE#         218
  C:14B1H         LINE#         219
  C:14B4H         LINE#         220
  C:14B7H         LINE#         221
  C:14B7H         LINE#         222
BL51 BANKED LINKER/LOCATER V6.22.2.0                                                  03/06/2025  20:40:51  PAGE 9


  C:14B7H         LINE#         223
  C:14B9H         LINE#         224
  C:14BBH         LINE#         225
  -------         ENDPROC       IIC_WAIT_ACK
  -------         PROC          _IIC_SEND_BYTE
  X:02E8H         SYMBOL        txdat
  -------         DO            
  D:0001H         SYMBOL        t
  X:02E9H         SYMBOL        dat_t
  -------         ENDDO         
  C:13C6H         LINE#         241
  C:13CBH         LINE#         242
  C:13CBH         LINE#         244
  C:13D2H         LINE#         247
  C:13D4H         LINE#         248
  C:13DCH         LINE#         249
  C:13DCH         LINE#         251
  C:13EBH         LINE#         252
  C:13EDH         LINE#         253
  C:13EFH         LINE#         254
  C:13EFH         LINE#         255
  C:13F1H         LINE#         256
  C:13F1H         LINE#         257
  C:13F8H         LINE#         258
  C:13FAH         LINE#         259
  C:13FDH         LINE#         261
  C:1400H         LINE#         262
  C:1402H         LINE#         264
  C:1405H         LINE#         265
  C:1408H         LINE#         269
  -------         ENDPROC       _IIC_SEND_BYTE
  C:1528H         SYMBOL        L?0141
  -------         PROC          _WRITE_IIC_COMMAND
  X:02E7H         SYMBOL        IIC_Command
  C:150AH         LINE#         274
  C:150FH         LINE#         275
  C:150FH         LINE#         276
  C:1512H         LINE#         277
  C:1517H         LINE#         279
  C:151AH         LINE#         280
  C:151BH         LINE#         282
  C:151EH         LINE#         283
  C:1522H         LINE#         285
  C:1525H         LINE#         286
  C:1528H         LINE#         287
  -------         ENDPROC       _WRITE_IIC_COMMAND
  C:14DCH         SYMBOL        L?0149
  -------         PROC          _WRITE_IIC_DATA
  X:02E7H         SYMBOL        IIC_Data
  C:14BCH         LINE#         291
  C:14C1H         LINE#         292
  C:14C1H         LINE#         293
  C:14C4H         LINE#         294
  C:14C6H         LINE#         296
  C:14C9H         LINE#         297
  C:14CBH         LINE#         299
  C:14CEH         LINE#         300
BL51 BANKED LINKER/LOCATER V6.22.2.0                                                  03/06/2025  20:40:51  PAGE 10


  C:14D6H         LINE#         302
  C:14D9H         LINE#         303
  C:14DCH         LINE#         304
  -------         ENDPROC       _WRITE_IIC_DATA
  -------         PROC          _OLED_WR_BYTE
  X:02E5H         SYMBOL        dat
  D:0004H         SYMBOL        cmd
  C:1597H         LINE#         305
  C:159FH         LINE#         306
  C:159FH         LINE#         307
  C:15A6H         LINE#         308
  C:15A6H         LINE#         309
  C:15ACH         LINE#         310
  C:15ACH         LINE#         312
  C:15ACH         LINE#         313
  C:15B2H         LINE#         314
  C:15B2H         LINE#         315
  -------         ENDPROC       _OLED_WR_BYTE
  C:11EBH         SYMBOL        L?0096
  C:11F6H         SYMBOL        L?0103
  C:1201H         SYMBOL        L?0105
  C:120CH         SYMBOL        L?0106
  C:1217H         SYMBOL        L?0119
  -------         PROC          OLED_INIT
  C:115DH         LINE#         317
  C:115DH         LINE#         318
  C:115DH         LINE#         319
  C:1164H         LINE#         320
  C:116CH         LINE#         321
  C:116EH         LINE#         322
  C:1177H         LINE#         324
  C:1179H         LINE#         326
  C:1182H         LINE#         327
  C:1184H         LINE#         329
  C:118DH         LINE#         331
  C:118FH         LINE#         333
  C:1198H         LINE#         334
  C:119AH         LINE#         336
  C:11A3H         LINE#         337
  C:11ABH         LINE#         339
  C:11ADH         LINE#         340
  C:11B6H         LINE#         342
  C:11B8H         LINE#         343
  C:11C1H         LINE#         345
  C:11C3H         LINE#         346
  C:11CCH         LINE#         348
  C:11CEH         LINE#         349
  C:11D7H         LINE#         351
  C:11D9H         LINE#         352
  C:11E2H         LINE#         353
  C:11EBH         LINE#         355
  -------         ENDPROC       OLED_INIT
  -------         PROC          OLED_CLEAR
  -------         DO            
  X:02D8H         SYMBOL        i
  X:02D9H         SYMBOL        n
  -------         ENDDO         
BL51 BANKED LINKER/LOCATER V6.22.2.0                                                  03/06/2025  20:40:51  PAGE 11


  C:131CH         LINE#         357
  C:131CH         LINE#         358
  C:131CH         LINE#         360
  C:132DH         LINE#         361
  C:132DH         LINE#         362
  C:133AH         LINE#         363
  C:1342H         LINE#         364
  C:134BH         LINE#         365
  C:136FH         LINE#         366
  C:1377H         LINE#         367
  -------         ENDPROC       OLED_CLEAR
  C:1430H         SYMBOL        L?0142
  -------         PROC          _OLED_SET_POS
  X:02E4H         SYMBOL        x
  D:0005H         SYMBOL        y
  C:1409H         LINE#         370
  C:140EH         LINE#         371
  C:1415H         LINE#         372
  C:1422H         LINE#         373
  C:1430H         LINE#         374
  -------         ENDPROC       _OLED_SET_POS
  -------         PROC          _OLED_SHOWCHAR
  D:0004H         SYMBOL        x
  D:0005H         SYMBOL        y
  D:0003H         SYMBOL        chr
  X:02E1H         SYMBOL        Char_Size
  -------         DO            
  X:02E2H         SYMBOL        c
  X:02E3H         SYMBOL        i
  -------         ENDDO         
  C:12AEH         LINE#         380
  C:12B0H         LINE#         381
  C:12B0H         LINE#         382
  C:12B7H         LINE#         383
  C:12BEH         LINE#         384
  C:12CCH         LINE#         385
  C:12D4H         LINE#         386
  C:12D4H         LINE#         393
  C:12D4H         LINE#         394
  C:12D4H         LINE#         395
  C:12D9H         LINE#         396
  C:12ECH         LINE#         397
  C:131BH         LINE#         399
  C:131BH         LINE#         400
  -------         ENDPROC       _OLED_SHOWCHAR
  -------         PROC          _OLED_SHOWSTRING
  X:02D8H         SYMBOL        x
  X:02D9H         SYMBOL        y
  X:02DAH         SYMBOL        chr
  X:02DDH         SYMBOL        Char_Size
  C:1378H         LINE#         402
  C:1384H         LINE#         403
  C:1384H         LINE#         404
  C:1390H         LINE#         405
  C:13A1H         LINE#         406
  C:13A8H         LINE#         407
  C:13B9H         LINE#         408
BL51 BANKED LINKER/LOCATER V6.22.2.0                                                  03/06/2025  20:40:51  PAGE 12


  C:13C3H         LINE#         409
  C:13C5H         LINE#         410
  -------         ENDPROC       _OLED_SHOWSTRING
  C:0D8BH         SYMBOL        L?0104
  C:0DA6H         SYMBOL        L?0107
  C:0DC3H         SYMBOL        L?0113
  C:0DDEH         SYMBOL        L?0124
  -------         PROC          MAIN
  C:0AD0H         LINE#         411
  C:0AD0H         LINE#         412
  C:0AD0H         LINE#         413
  C:0AD3H         LINE#         414
  C:0AD5H         LINE#         415
  C:0AD7H         LINE#         416
  C:0AD9H         LINE#         417
  C:0ADBH         LINE#         418
  C:0ADDH         LINE#         419
  C:0AE0H         LINE#         420
  C:0AE2H         LINE#         422
  C:0AE4H         LINE#         423
  C:0AE6H         LINE#         425
  C:0AF3H         LINE#         432
  C:0AF6H         LINE#         433
  C:0AF9H         LINE#         434
  C:0AFCH         LINE#         435
  C:0AFFH         LINE#         437
  C:0B02H         LINE#         438
  C:0B08H         LINE#         439
  C:0B0BH         LINE#         440
  C:0B0EH         LINE#         441
  C:0B11H         LINE#         443
  C:0B14H         LINE#         444
  C:0B17H         LINE#         445
  C:0B17H         LINE#         446
  C:0B17H         LINE#         447
  C:0B1AH         LINE#         448
  C:0B1DH         LINE#         449
  C:0B1EH         LINE#         450
  C:0B1FH         LINE#         451
  C:0B24H         LINE#         452
  C:0B24H         LINE#         454
  C:0B24H         LINE#         455
  C:0B24H         LINE#         456
  C:0B2AH         LINE#         458
  C:0B31H         LINE#         459
  C:0B34H         LINE#         460
  C:0B35H         LINE#         461
  C:0B36H         LINE#         462
  C:0B3BH         LINE#         463
  C:0B3BH         LINE#         465
  C:0B3BH         LINE#         466
  C:0B3BH         LINE#         467
  C:0B41H         LINE#         469
  C:0B48H         LINE#         470
  C:0B4BH         LINE#         471
  C:0B4CH         LINE#         472
  C:0B4DH         LINE#         473
BL51 BANKED LINKER/LOCATER V6.22.2.0                                                  03/06/2025  20:40:51  PAGE 13


  C:0B52H         LINE#         474
  C:0B52H         LINE#         476
  C:0B52H         LINE#         477
  C:0B52H         LINE#         478
  C:0B58H         LINE#         480
  C:0B5FH         LINE#         481
  C:0B62H         LINE#         482
  C:0B63H         LINE#         483
  C:0B64H         LINE#         484
  C:0B69H         LINE#         485
  C:0B69H         LINE#         487
  C:0B69H         LINE#         488
  C:0B69H         LINE#         489
  C:0B74H         LINE#         491
  C:0B77H         LINE#         494
  C:0BA3H         LINE#         495
  C:0BCDH         LINE#         496
  C:0BF6H         LINE#         498
  C:0C05H         LINE#         499
  C:0C14H         LINE#         500
  C:0C25H         LINE#         502
  C:0C37H         LINE#         503
  C:0C48H         LINE#         504
  C:0C64H         LINE#         505
  C:0C77H         LINE#         507
  C:0C84H         LINE#         508
  C:0C9BH         LINE#         509
  C:0CAEH         LINE#         511
  C:0CBBH         LINE#         512
  C:0CD5H         LINE#         513
  C:0CEBH         LINE#         514
  C:0CF4H         LINE#         515
  C:0D00H         LINE#         516
  C:0D0CH         LINE#         517
  C:0D18H         LINE#         519
  C:0D2CH         LINE#         520
  C:0D30H         LINE#         521
  C:0D30H         LINE#         522
  C:0D3DH         LINE#         523
  C:0D42H         LINE#         524
  C:0D42H         LINE#         525
  C:0D52H         LINE#         526
  C:0D5BH         LINE#         527
  C:0D5EH         LINE#         528
  C:0D78H         LINE#         529
  C:0D81H         LINE#         530
  C:0D88H         LINE#         536
  C:0D8BH         LINE#         537
  -------         ENDPROC       MAIN
  -------         ENDMOD        MAIN

  -------         MODULE        FONTS
  C:0000H         SYMBOL        _ICE_DUMMY_
  X:0000H         PUBLIC        F6x8s
  -------         ENDMOD        FONTS

  -------         MODULE        ?C?FPADD
BL51 BANKED LINKER/LOCATER V6.22.2.0                                                  03/06/2025  20:40:51  PAGE 14


  C:002DH         PUBLIC        ?C?FPADD
  C:0029H         PUBLIC        ?C?FPSUB
  -------         ENDMOD        ?C?FPADD

  -------         MODULE        ?C?FPMUL
  C:011EH         PUBLIC        ?C?FPMUL
  -------         ENDMOD        ?C?FPMUL

  -------         MODULE        ?C?FPDIV
  C:0227H         PUBLIC        ?C?FPDIV
  -------         ENDMOD        ?C?FPDIV

  -------         MODULE        ?C?FCAST
  C:02CEH         PUBLIC        ?C?FCASTC
  C:02C9H         PUBLIC        ?C?FCASTI
  C:02C4H         PUBLIC        ?C?FCASTL
  -------         ENDMOD        ?C?FCAST

  -------         MODULE        ?C?CASTF
  C:0302H         PUBLIC        ?C?CASTF
  -------         ENDMOD        ?C?CASTF

  -------         MODULE        PRINTF
  X:02D8H         PUBLIC        ?_PRINTF?BYTE
  X:02D8H         PUBLIC        ?_SPRINTF?BYTE
  C:06B8H         PUBLIC        _PRINTF
  C:06B2H         PUBLIC        _SPRINTF
  -------         ENDMOD        PRINTF

  -------         MODULE        ?C?FPROUND
  C:0383H         PUBLIC        ?C?FPROUND
  -------         ENDMOD        ?C?FPROUND

  -------         MODULE        ?C?FPCONVERT
  C:03C0H         PUBLIC        ?C?FPCONVERT
  -------         ENDMOD        ?C?FPCONVERT

  -------         MODULE        ?C?FTNPWR
  C:04F5H         PUBLIC        ?C?FTNPWR
  -------         ENDMOD        ?C?FTNPWR

  -------         MODULE        ?C?CLDPTR
  C:0535H         PUBLIC        ?C?CLDPTR
  -------         ENDMOD        ?C?CLDPTR

  -------         MODULE        ?C?CLDOPTR
  C:054EH         PUBLIC        ?C?CLDOPTR
  -------         ENDMOD        ?C?CLDOPTR

  -------         MODULE        ?C?CSTPTR
  C:057BH         PUBLIC        ?C?CSTPTR
  -------         ENDMOD        ?C?CSTPTR

  -------         MODULE        ?C?CSTOPTR
  C:058DH         PUBLIC        ?C?CSTOPTR
  -------         ENDMOD        ?C?CSTOPTR

BL51 BANKED LINKER/LOCATER V6.22.2.0                                                  03/06/2025  20:40:51  PAGE 15


  -------         MODULE        ?C?IMUL
  C:05AFH         PUBLIC        ?C?IMUL
  -------         ENDMOD        ?C?IMUL

  -------         MODULE        ?C?IILDX
  C:05C1H         PUBLIC        ?C?IILDX
  -------         ENDMOD        ?C?IILDX

  -------         MODULE        ?C?ILDIX
  C:05D7H         PUBLIC        ?C?ILDIX
  -------         ENDMOD        ?C?ILDIX

  -------         MODULE        ?C?LNEG
  C:05EDH         PUBLIC        ?C?LNEG
  -------         ENDMOD        ?C?LNEG

  -------         MODULE        ?C?LSTXDATA
  C:05FBH         PUBLIC        ?C?LSTXDATA
  -------         ENDMOD        ?C?LSTXDATA

  -------         MODULE        ?C?PLDIXDATA
  C:0607H         PUBLIC        ?C?PLDIXDATA
  -------         ENDMOD        ?C?PLDIXDATA

  -------         MODULE        ?C?PSTXDATA
  C:061EH         PUBLIC        ?C?PSTXDATA
  -------         ENDMOD        ?C?PSTXDATA

  -------         MODULE        ?C?CCASE
  C:0627H         PUBLIC        ?C?CCASE
  -------         ENDMOD        ?C?CCASE

  -------         MODULE        PUTCHAR
  C:14E3H         PUBLIC        _PUTCHAR
  -------         ENDMOD        PUTCHAR

*** WARNING L16: UNCALLED SEGMENT, IGNORED FOR OVERLAY PROCESS
    SEGMENT: ?PR?UARTINIT?MAIN

*** WARNING L16: UNCALLED SEGMENT, IGNORED FOR OVERLAY PROCESS
    SEGMENT: ?PR?_UARTSENDSTR?MAIN

*** WARNING L16: UNCALLED SEGMENT, IGNORED FOR OVERLAY PROCESS
    SEGMENT: ?PR?DELAY?MAIN

*** WARNING L16: UNCALLED SEGMENT, IGNORED FOR OVERLAY PROCESS
    SEGMENT: ?PR?IIC_INIT?MAIN

*** WARNING L16: UNCALLED SEGMENT, IGNORED FOR OVERLAY PROCESS
    SEGMENT: ?PR?I2C_ACK?MAIN

*** WARNING L16: UNCALLED SEGMENT, IGNORED FOR OVERLAY PROCESS
    SEGMENT: ?PR?IIC_WAIT_ACK?MAIN

Program Size: data=15.2 xdata=779 code=5668
LINK/LOCATE RUN COMPLETE.  6 WARNING(S),  0 ERROR(S)
