:020000040800F2
:100000000020002091210008151B0008171B000884
:1000100000000000000000000000000000000000E0
:10002000000000000000000000000000191B000894
:1000300000000000000000001B1B00081D1B000842
:10004000E121000800000000E1210008E121000892
:10005000E1210008251B0008E12100082F1B0008F2
:1000600000000000E1210008E1210008E121000872
:10007000E1210008E1210008E12100080000000062
:10008000E12100080000000000000000E12100085C
:1000900000000000E1210008E1210008E121000842
:1000A000E1210008E1210008E12100083D1B0008D2
:0800B000591B000800000000CC
:1000B80010B5064C2378002B07D1054B002B02D036
:1000C800044800E000BF0123237010BD5C0000203D
:1000D80000000000FC5A0008044B10B5002B03D0A8
:1000E8000349044800E000BF10BDC04600000000FE
:1000F80060000020FC5A000803B47146490840001B
:100108004900095E49008E4403BC70470022430839
:100118008B4274D303098B425FD3030A8B4244D3C7
:10012800030B8B4228D3030C8B420DD3FF22090209
:1001380012BA030C8B4202D31212090265D0030BC8
:100148008B4219D300E0090AC30B8B4201D3CB03BE
:10015800C01A5241830B8B4201D38B03C01A524100
:10016800430B8B4201D34B03C01A5241030B8B4202
:1001780001D30B03C01A5241C30A8B4201D3CB02ED
:10018800C01A5241830A8B4201D38B02C01A5241D2
:10019800430A8B4201D34B02C01A5241030A8B42D5
:1001A80001D30B02C01A5241CDD2C3098B4201D3ED
:1001B800CB01C01A524183098B4201D38B01C01A6B
:1001C800524143098B4201D34B01C01A52410309E2
:1001D8008B4201D30B01C01A5241C3088B4201D391
:1001E800CB00C01A524183088B4201D38B00C01A3E
:1001F800524143088B4201D34B00C01A5241411A65
:1002080000D20146524110467047FFE701B5002071
:1002180000F0F0F802BDC0460029F7D076E7704735
:1002280003460B437FD4002243088B4274D303094F
:100238008B425FD3030A8B4244D3030B8B4228D3F0
:10024800030C8B420DD3FF22090212BA030C8B4216
:1002580002D31212090265D0030B8B4219D300E0B6
:10026800090AC30B8B4201D3CB03C01A5241830B3B
:100278008B4201D38B03C01A5241430B8B4201D3EB
:100288004B03C01A5241030B8B4201D30B03C01A14
:100298005241C30A8B4201D3CB02C01A5241830A8E
:1002A8008B4201D38B02C01A5241430A8B4201D3BD
:1002B8004B02C01A5241030A8B4201D30B02C01AE7
:1002C8005241CDD2C3098B4201D3CB01C01A52414E
:1002D80083098B4201D38B01C01A524143098B42D7
:1002E80001D34B01C01A524103098B4201D30B01C0
:1002F800C01A5241C3088B4201D3CB00C01A5241E5
:1003080083088B4201D38B00C01A524143088B42A9
:1003180001D34B00C01A5241411A00D20146524142
:10032800104670475DE0CA0F00D04942031000D361
:100338004042534000229C4603098B422DD3030AB6
:100348008B4212D3FC22890112BA030A8B420CD3C6
:10035800890192118B4208D3890192118B4204D3EF
:1003680089013AD0921100E08909C3098B4201D36F
:10037800CB01C01A524183098B4201D38B01C01AA9
:10038800524143098B4201D34B01C01A5241030920
:100398008B4201D30B01C01A5241C3088B4201D3CF
:1003A800CB00C01A524183088B4201D38B00C01A7C
:1003B8005241D9D243088B4201D34B00C01A524153
:1003C800411A00D20146634652415B10104601D3E0
:1003D8004042002B00D54942704763465B1000D36A
:1003E800404201B5002000F005F802BD0029F8D010
:1003F80016E770477047C046844608006146FFE725
:100408001FB500F0BBF8002801D40021C8421FBD69
:1004180010B500F043F84042013010BD10B500F0AF
:10042800ADF8002801DB002010BD012010BDC0463A
:1004380010B500F0A3F8002801DD002010BD012050
:1004480010BDC04610B500F051F8002801DC0020AE
:1004580010BD012010BDC04610B500F047F80028B7
:1004680001DA002010BD012010BDC0469E2110B544
:10047800C905041CFFF7F0FF002803D1201C00F079
:1004880083FC10BD9E21201CC90500F019FA00F05C
:100498007BFC80231B069C466044F2E770B5420053
:1004A8004E024C0045026D0A120EC30F760A240E46
:1004B800C90FFF2A10D0FF2C0CD00120A2420AD16C
:1004C800B54208D18B420FD0002A04D12800431E20
:1004D800984100E0012070BD0120FF2CFBD135437D
:1004E800F9D14B401800F6E70020F4E730B5420098
:1004F80044024D02C30F4800640A120E6D0A000E32
:10050800C90FFF2A18D0FF280AD0002A1ED10028B8
:100518000AD1002D29D0002C2DD14800013830BD3A
:10052800002D25D1002A01D1002CF6D08B4219D0FC
:1005380001205B421843F2E7002C19D1FF28F7D1BC
:10054800002D15D100208B42F2D1E8E70028EFD02A
:100558008B42EDD18242EBDC04DBAC42E8D80020D0
:10056800AC42DCD258000138D9E7002CD7D0DFE7FD
:1005780002204042D3E78B42DAD1EEE730B54200A1
:1005880044024D02C30F4800640A120E6D0A000EA1
:10059800C90FFF2A17D0FF280AD0002A1BD100282C
:1005A8000AD1002D1DD0002C2DD14800013811E0B2
:1005B800002D0ED1002A01D1002CF6D08B420CD18F
:1005C8005800013806E0002C03D1FF2805D1002D82
:1005D80015D0022030BD002806D101205B42184307
:1005E800F8E7002CF6D0F8E78B42F6D18242F4DC2B
:1005F800E6DBAC42F1D80020AC42EBD2E0E70020C9
:100608008B42EAD1E6E78B42E7D1F2E7F0B54F46F5
:100618004646D6464400C0B546020F1C760A240E4C
:10062800C50F002C00D1DAE0FF2C74D08023F6002F
:10063800DB041E43002399469A467F3C7B025B0AF3
:1006480098467B001B0EFF0F002B74D0FF2B00D1A8
:100658008EE042468021D200C90411437F3B2A0024
:10066800E4184B467A408846D2B20A2B75DC4B46D2
:100678000020022B0FDD494601238B40A621C9002B
:100688000B4269D1902189000B4200D000E18821FA
:10069800194200D0F5E041460904090C4346080018
:1006A800350C36041B0C360C704369435E435D43BE
:1006B8007618030C9B19994203D9802149028C466C
:1006C800654400041904000C09188E01701E864147
:1006D8001B0C890E5B190E439B011E431B016CD436
:1006E80023007F33002B00DCB1E0150071070BD02D
:1006F8000F2021003040042806D00436320103D5EB
:100708006E4B1E400B008033FE2B00DDBDE0B201B6
:10071800520ADBB248E0002E00D092E00823994646
:10072800063B9A467B025B0A98467B00FF241B0E19
:10073800FF0F002B8AD14246002A64D14946013274
:10074800114389460A2908DC7D400120EAB20229C2
:1007580091DC1500002227E015005346022B00D13A
:1007680093E0032B1AD0012B2CD1002300221BE08D
:100778004346FF34002B55D003214B460B43190049
:100788000A2B00DC92E00F2B00D08CE08022D203F1
:10079800164203D04346134200D17DE08022D203A3
:1007A80032435202520AFF23D805ED07104328436B
:1007B800E0BCBA46B146A846F0BD01231500710851
:1007C8001E400E4323008033611C002B41DD72075D
:1007D80094D00F223240042A00D08EE78EE7002EF4
:1007E80005D104239946033B00249A4626E73000A6
:1007F80000F03AFB7624431F9E400023644299464A
:100808009A46241A1AE7404600F02EFB4B46241A53
:10081800763C0A2BA1DC4346053883407D40984648
:10082800EAB224E74A46023313432A007A40D2B296
:100838000A2B92DC49461500002926D09946022049
:1008480019E70C239946093BFF249A46F6E615005A
:1008580021000122D31A1B2B00DD86E79E313200CE
:100868008E40DA40731E9E413243530704D00F2353
:100878001340042B00D00432530110D50123002269
:1008880092E73D004646824667E7FF2300228BE752
:1008980080220025D20386E73D001A4383E79201B0
:1008A8000023520A80E73D00464677E72A000123E5
:1008B8007A408B400320D2B2E9E6C046FFFFFFF73B
:1008C800F8B54746CE46430280B55F0A9B09450006
:1008D8004A009C464B02C40FCE0F2D0E580A120E2A
:1008E8009909FF2A6BD001235E40AB1AB4424BD062
:1008F800002B00DCFFE0002A00D188E0FF2D00D1AA
:10090800EFE08022D204114301201B2B08DC0800F1
:100918002022D840D31A99400B005A1E93411843FD
:1009280063461B1A9C4663465B0100D4CDE06346D0
:100938009F01BF09380000F097FA3B000538834053
:10094800854200DCA2E0B74A2D1A1A4094465A079D
:1009580000D1C3E00F221340042B00D1BEE00423D2
:100968009846C44463465B0100D4B7E0681CFE2D7A
:1009780000D0A5E0FF200022C0051043E407204373
:10098800C0BCB946B046F8BD002B00DCEBE1002A3C
:1009980046D0FF2D00D1A4E08022D20411431B2BA6
:1009A80000DCFBE0052398462B00C4446246D708C8
:1009B800FF2B00D195E07A02520AD8B2DCE72B006F
:1009C800FF3B9946002918D101235E40B44200D16B
:1009D800CAE04B46002B2DD0002D00D03CE1FF2370
:1009E8006446002C00D15FE15D1E012B00D174E14B
:1009F8003400FF2B74D02B0003E1B44200D19CE0FB
:100A0800002B17D0002DEAD0070034006CE0002935
:100A1800CCD05A1E012B2BD0FF2B62D0130073E7CA
:100A28000029C3D05A1E012B00D11EE1FF2B58D03C
:100A38001300B4E7FE226B1C1A420DD1002D60D0C2
:100A48006346002B00D020E1002900D028E1802255
:100A58000024FF20D2038FE763465F1A7B0100D58D
:100A6800FEE0002F00D065E700240020002283E785
:100A78006346591A4B0100D419E18F01BF093800A8
:100A880000F0F2F93B000538834001252022401B85
:100A98000130121A19009340C1405A1E934119435C
:100AA8008C460B1EE1D05B0700D152E10F230025D5
:100AB8000B40042B00D052E701204A0100D492E0F9
:100AC800C0B263469A01520A56E763465B0705D0EF
:100AD8000F2362461340042B00D040E72B0065E744
:100AE8000700002F00D145E78022D2033A43520283
:100AF800FF20520A40E7002B79D1FE226B1C1A42D4
:100B0800AAD16346002B00D1F5E0002900D1D1E03D
:100B18005F1A8023DB041F4200D10EE162460124E4
:100B28008A1A944600203440002A00D124E7012084
:100B38001A42C6D10023D7083DE7002B17D0002D55
:100B480000D0AFE0FF236546002D00D1ADE05E1E6A
:100B5800012B00D189E0FF2BC2D01B2E00DCABE0BB
:100B68004B1D9C46130021E74B46002B70D1FE22FB
:100B78006B1C1A425ED1002D00D0C3E06346002BE7
:100B880000D1D0E0002900D194E00A00624453016A
:100B980000D4D8E092010120520AEDE60800202294
:100BA800D840D31A99400B005A1E934103439C44E2
:100BB80063465B0189D50135FF2D00D1DAE662462F
:100BC80001231949134052080A401A431300944656
:100BD8005B0704D00F231340042B00D0BFE6634605
:100BE8005B0100D5C2E66346DF082B00E3E6531B32
:100BF800002D00D1F4E680206446C0040443A446D6
:100C0800340001201B2B09DC20256046D840EB1A54
:100C180065469D402B005D1EAB4118430B1A9C4650
:100C2800150080E6FFFFFFFBFFFFFF7DFE226B1C28
:100C38001342A3D0FF2B00D19CE6614449084A0720
:100C480049D00F220A40042A45D00A1D9446ADE631
:100C5800002D00D176E78DE63400FF2000228BE6D8
:100C680063460124CF1A344064E661444B016DD5D4
:100C780048084449014043072CD00F230340042B64
:100C880028D00B1D9C46022390E6002900D12BE7B3
:100C98008023DB039F4200D226E7984200D323E754
:100CA8000124344007001FE734008C467EE6012308
:100CB800CF0880E600237EE620206546801B85401D
:100CC80063462800F340451EA84103439C4615008F
:100CD8008C446DE70223CF086DE60F1B7B0128D5F6
:100CE800BF01BF09380000F0BFF83B00053883405A
:100CF80034000125CAE6002900D1B5E60124070021
:100D0800344058E66346002B00D1E9E6002900D1BB
:100D1800EAE68023DB039F4200D2E5E6984200D34F
:100D2800E2E60700E0E6002900D19EE60023CF08AE
:100D380041E634000123FF083DE6002F00D193E689
:100D48000023FF0837E60023D70834E60123CF083D
:100D580031E680220B00D20401201340114200D05A
:100D6800AEE6CF0827E6002B00D15FE7561B002D23
:100D780001D13300E7E680236046DB04184384464C
:100D8800EBE6C046FFFFFF7D41024200C30F490A60
:100D98000020120E7E2A03DD9D2A02DD094A9818DA
:100DA8007047802000040143952A07DC9620821AA8
:100DB800D1404842002BF3D10800F1E7963A914020
:100DC800F7E7C046FFFFFF7F70B5002812D0C317B2
:100DD800C5185D40C40F280000F046F89E231B1A72
:100DE800962B0FDC082838D0083885406D026D0A2C
:100DF800D8B202E0002400200025C0052843E407FB
:100E0800204370BD992B14DC421F95402A001549D8
:100E1800114055071CD00F252A40042A18D0043148
:100E2800CA08490115D59F235202181A550AC0B29B
:100E3800E3E705222900121AD14002001B3295402F
:100E48002A00551EAA410A43064911405507E2D116
:100E5800CA085202550AD8B2CFE76D026D0A8E3021
:100E6800CBE7C046FFFFFFFB1C2101231B04984270
:100E780001D3000C10391B0A984201D3000A083923
:100E88001B09984201D30009043902A2105C4018DA
:100E98007047C0460403020201010101000000007E
:100EA8000000000010B5040006E00548054B0122CB
:100EB800210003F0FFFE01342378002BF5D110BD8B
:100EC800E8010020FFFF000010B5002806D0A02090
:100ED80000220221C00502F03AF810BDA02001222C
:100EE8000221C00502F033F8F7E7000070B50E4B99
:100EF8001D880E4C200001F059FD0A21200001F048
:100F08000BFB00280AD00024084801F0CDFD200181
:100F1800001B40002900FFF7F9F870BD034801F0F5
:100F28005BFB0400F0E7C046A875FF1FA400002083
:100F380010B5084C200000F03FFD60680649FFF737
:100F480065FB064CFFF792FA2060FFF7CFFF044BD2
:100F5800186010BD7800002000007A448C00002042
:100F680088000020384BC218384B9A4242D8384B78
:100F7800984241D9374B984240D9374B98423FD98C
:100F8800364B98423ED9364B98423DD9354B98421C
:100F98003CD9354B98423BD9344B98423AD9344BDB
:100FA800984239D9334B984238D9334B984237D97C
:100FB800324B984236D9324B984235D9314B984208
:100FC80034D9314B984233D9304B984232D9304BCF
:100FD800984231D92F4B984230D92F4B98422FD96C
:100FE8002E4B98422ED92E4B984201D9002002E070
:100FF800142000E0002070470120FCE70220FAE7F7
:101008000320F8E70420F6E70520F4E70620F2E7D6
:101018000720F0E70820EEE70920ECE70A20EAE7D6
:101028000B20E8E70C20E6E70D20E4E70E20E2E7D6
:101038000F20E0E71020DEE71120DCE71220DAE7D6
:101048001320D8E71420D6E7D8DCFFFF941100005E
:101058003028000029290000DB290000662A00004A
:10106800E32A0000502B0000BD2B0000292C0000B3
:101078008F2C00000B2D0000872D0000FB2D000099
:10108800772E0000FB2E0000772F0000EC2F0000C9
:1010980059300000B630000014310000A0310000C3
:1010A800BC34000010B50A4B1B68013306D1084B4D
:1010B80098680849FFF7C6F9002804D10020FFF70F
:1010C80003FF002010BD0120FFF7FEFE0120F9E715
:1010D800780000200000A04010B5214B1868FFF7E9
:1010E80041FF142838D880001E4B1B589F46052402
:1010F800FFF7D8FF1C4B18701C4B1B78002B03D034
:10110800A34201D8012801D1184B1C70200010BD42
:101118000F24EDE71424EBE71924E9E71E24E7E799
:101128002324E5E72824E3E72D24E1E73224DFE759
:101138003724DDE73C24DBE74124D9E74624D7E719
:101148004B24D5E75024D3E75524D1E75A24CFE7D9
:101158005F24CDE76424CBE70024C9E70A24C7E766
:101168008C000020145B0008A0000020A1000020D3
:1011780070B586B0144B5A6B012632435A635B6BC9
:1011880033400093009B03250295002404940394A4
:1011980042230193A02001A9C00501F097FD029503
:1011A80004940394019601A9084801F08FFD029563
:1011B80004940394C0231B02019301A9044801F07D
:1011C80085FD06B070BDC046001002400004005006
:1011D8000008005010B500F023FC00F0B5FA00F04C
:1011E800EBFC054800F04EFD00F026FD034800F03A
:1011F80049FD00F039FB10BDE8010020580100202E
:1012080010B582B0144BDA6B802149050A43DA63C2
:10121800DB6B0B400193019B00F00EFEFFF7A8FF6C
:101228000E4C200000F0A2FD01F03CF801F04AF855
:1012380080200121C00102F0B5FA01F03BF8FFF768
:10124800C9FF200000F01EFD00F0E8FD642001F059
:1012580017F802B010BDC04600100240E801002097
:1012680010B50400314BD86080231B02984202D08D
:10127800012C2BD010BD802109022D4801F060FE01
:101288000028F5D02B4B1A780F231340012BEFD1F0
:1012980000F0F0FF284B1A68801A18609623DB00CC
:1012A800984208D9234A13780F218B4313700321DE
:1012B8000B431370DCE75028DAD91E4A13780F2144
:1012C8008B43137002210B431370D1E7A020012137
:1012D800C00501F035FE0028CCD0164B1B780F2234
:1012E8009343102BC6D100F0C5FF144C2368C01AD5
:1012F80020600020FFF7E8FD23689622D200934281
:1013080008D90C4A11780F230B40137030210B4376
:101318001370AFE7502BADD9064A11780F230B4055
:10132800137020210B431370A4E7C0460018024035
:1013380000080050980000209C0000209400002025
:10134800002310E0C046C046C046C046C046C0465E
:10135800C046C046C046C046C046C046C046C04655
:10136800C046C04601338342ECD3704710B5040031
:101378001F4B186180231B02984202D0012C1AD0FF
:1013880010BD0A20FFF7DCFF80210902194801F08F
:10139800D7FD0028F2D1184B1B781A07EED10F227F
:1013A8009343154A137001210B43137000F062FF39
:1013B800124B1860E2E70A20FFF7C2FFA0200121C4
:1013C800C00501F0BDFD0028DAD10130FFF77CFD32
:1013D800094B1A780F2AD3D80F231340064A1370E3
:1013E80010210B43137000F045FF054B1860C7E749
:1013F8000018024000080050980000209C000020BF
:101408009400002010B5002808D0094B01221A705A
:10141800A0208021C00501F09AFD10BD044B0022D8
:101428001A70A0208021C00501F091FDF5E7C046A3
:1014380090000020F0B5DE4657464E464546E0B5DA
:1014480091B02022002108A803F0DAFE7A4B1B781D
:101458001A0703D0784A0F218B431370764B1B78F9
:101468000F22190091430F2B11D9102920D00020E9
:10147800FFF72AFD704B1B780F229343302B32D095
:10148800202B3CD06C4A11780F230B40137001209D
:1014980011B0F0BCBB46B246A946A046F0BD664AAC
:1014A80011780F230B40137030210B431370DEE7C4
:1014B800A0200121C00501F043FD0028D7D100F08C
:1014C800D9FE5E4B1B68C01A9623DB009842E6D80B
:1014D8005028EDD9584A11780F230B40137020215A
:1014E8000B431370E4E7564B1B78002B03D0002006
:1014F800FFF788FFC6E70120FFF784FFC2E7514FD7
:101508003800FFF7CFFC504D2B689A464F4CA06827
:101518004F49FFF77BF88046FA2189005046FEF7CD
:101528007FFE07904B4E327893464046FFF72CFCDF
:101538000490494B1B780393414A914613780293D0
:101548003D4A904613780193FA2189005046FEF7E8
:101558004DFF0091079B5A46404908A803F02EFE0C
:1015680008A8FFF79FFC4B461B78424612783C4977
:1015780008A803F023FE08A8FFF794FC394B1A6863
:10158800390008A803F01AFE01270097082308AAC3
:101598000021002000F05CFD3278334908A803F0F0
:1015A8000DFE0097102308AA0821002000F050FD26
:1015B8002022002108A803F023FE2E68FA218900C2
:1015C8003000FEF713FF0D00FA2189003000FEF706
:1015D80027FE020025492B0008A803F0EFFD00971D
:1015E800102308AA1821002000F032FD2022002133
:1015F80008A803F005FEA0681549FFF707F8FFF7EC
:10160800C3FB02001A4908A803F0D8FD009710236D
:1016180008AA2821002000F01BFD2022002108A88C
:1016280003F0EEFD00F016FCFA20800000F028FE22
:1016380000F044FC26E7C0469800002094000020F3
:1016480090000020685B00088C00002078000020D3
:1016580000007A44A1000020A0000020785B000868
:10166800A85B000888000020C45B0008CC5B000869
:10167800D85B000800B585B00C22002101A803F052
:10168800BFFD1A481A4B03608023DB054360002323
:101698008360C360036104224261037643768376E4
:1016A800033AC2611F328354436283620C3283540B
:1016B80003634363836310328354C36400F00AFEF8
:1016C80000280CD10B4B0193002302930393074886
:1016D80001A900F085FF002804D105B000BD00F085
:1016E8009DF9EFE700F09AF9F7E7C046A40000205B
:1016F80000240140001000B010B588B00400182282
:10170800002102A803F07CFD22680D4B9A4201D00B
:1017180008B010BD8023DB01029302A802F020FC70
:1017280000280AD1074B1A6C802149030A431A641E
:101738001B6C0B400193019BEAE700F06FF9F1E79E
:101748000024014000100240F0B5CE46474680B55F
:1017580089B01422002103A803F052FD3F4B596BB6
:10176800022211435963596B0A400092009A596B3F
:10177800042211435963596B0A400192019A5A6B2A
:1017880001252A435A635B6B2B400293029B8024FA
:10179800E401334F00222100380001F0D8FBA026D5
:1017A800F60501220221300001F0D1FB0022802140
:1017B800300001F0CCFB2B4B984600220121180089
:1017C80001F0C5FB0394049500240594069403A92D
:1017D800380001F07BFA80231B02039384239B03C8
:1017E80099460493059403A9380001F06FFA03950C
:1017F8004B460493059403A9300001F067FA82234D
:10180800039304950594069403A9300001F05EFA49
:10181800402303930494059403A9300001F056FA79
:10182800039504950594069403A9404601F04EFAE1
:1018380000220321052001F0A5F9052001F0A6F9F1
:1018480000220321072001F09DF9072001F09EF9ED
:1018580009B0C0BCB946B046F0BDC0460010024051
:10186800000800500004005010B51448144B0360E1
:10187800144B4360002383600122C260036143610B
:101888008361C361036201F02DFD00280CD10B4870
:10189800002101F031FF002809D10848002101F09A
:1018A80057FF002806D110BD00F0B8F8EFE700F0A8
:1018B800B5F8F2E700F0B2F8F5E7C04608010020F5
:1018C800005800405B3D300010B588B00400142279
:1018D800002103A803F094FC2268124B9A4201D01D
:1018E80008B010BD104C626B01231A436263626B2F
:1018F80013400193019BC0235B01039312230493BC
:101908000C3B0793A02003A9C00501F0DFF9E36BA6
:101918008022D2031343E363E36B13400293029BD9
:10192800DEE7C046005800400010024030B587B0DE
:10193800020005AC00232380084D32330293303B6C
:1019480001930094013B8121280001F001FE2378D6
:101958001B026078184307B030BDC046080100205C
:1019680010B586B00200080A05AB18705970074C0C
:101978003221029130390191009301237E312000F8
:1019880001F016FD012006B010BDC0460801002078
:1019980010B508490020FFF7E3FF0A2000F070FCAB
:1019A800802109010520FFF7DBFF0A2000F068FC11
:1019B80010BDC0462745000010B504000120FFF700
:1019C800B5FF000420D4012323600220FFF7AEFFF7
:1019D80000B2FFF7F9F90E49FEF718FE606004201F
:1019E800FFF7A4FF00B2FFF7EFF90A49FEF70EFE72
:1019F800A0600320FFF79AFF00B2FFF7E5F9064958
:101A0800FEF704FEE06010BD01235B42DCE7C04640
:101A18000AD7A33A6F12033ACDCC4C3C72B6FEE714
:101A280000B593B03422002105A803F0E9FB102289
:101A3800002101A803F0E4FB8020800001F0D8FE1B
:101A480002230593FE3308930023099340220A9248
:101A58000C9305A801F0F6FE00280DD10723019389
:101A68000023029303930493002101A802F098F93C
:101A7800002803D113B000BDFFF7D0FFFFF7CEFF5A
:101A880010B500F0D7FBFFF7CBFFFFF75DFEFFF7C0
:101A9800EBFE00F091F800F0CFF8FFF7EBFDFFF751
:101AA80077FF0120FFF7AEFC0020FFF70DFA00F0EA
:101AB800F7FA00F003FAFFF73BFAFFF70DFBFFF721
:101AC800B9FC642000F0DCFB034B1B78002BF2D13F
:101AD800FFF796FBEFE7C0469000002082B00A4B64
:101AE800196C012211431964196C0A400092009A7A
:101AF800DA6B802149050A43DA63DB6B0B400193FB
:101B0800019B02B07047C04600100240FEE7FEE7A6
:101B18007047704710B500F0A1FB10BD10B501204B
:101B280001F01CFA10BD10B58020000201F016FA71
:101B380010BD000010B504480268044B1B68526AC7
:101B48009A6202F021FB10BDE80100205801002034
:101B580010B504480268044B1B68526A9A6202F086
:101B680013FB10BD58010020E801002010B5030048
:101B78000C4A0D49521A0D490968002907D00B492A
:101B88000868C318934206D8084A136010BD07496D
:101B980007480860F3E703F03BFB0C2303600120D0
:101BA8004042F3E700200020000400005401002018
:101BB800C80800207047000010B51C481C4B036083
:101BC800E1235B02436000238360C36003610C224E
:101BD80042618361C36103624362836203F02AF94D
:101BE800002816D11148002103F09AFA002813D1D1
:101BF8000E48002103F0BAFA002810D10B4803F070
:101C08006FFA00280ED10B490848012203F002FAA6
:101C180010BDFFF703FFE5E7FFF700FFE8E7FFF771
:101C2800FDFEEBE7FFF7FAFEEDE7C046E80100200E
:101C3800003801407802002010B50F480F4B0360B0
:101C4800E1235B02436000238360C36003610C22CD
:101C580042618361C36103624362836203F0EAF80D
:101C6800002805D106490448012203F0D3F910BD24
:101C7800FFF7D4FEF6E7C0465801002000440040B4
:101C88007802002010B590B00400142200210BA89F
:101C980003F0B6FA1822002105A803F0B1FA236868
:101CA8002E4A934204D02E4A934231D010B010BD30
:101CB8000123059305A802F053F9002825D1294BE3
:101CC8001A6C8021C9010A431A641A6C0A400192ED
:101CD800019A596B0222114359635B6B13400293BB
:101CE800029BC0230B930C9200230D930E930F932A
:101CF8000BA91D4800F0EAFF002200211B2000F07C
:101D080041FF1B2000F042FFD0E7FFF787FED6E730
:101D1800144BDA6B802189020A43DA63DA6B0A40D2
:101D28000392039A596B0122114359635B6B134069
:101D38000493049B0C230B930A3B0C930F92A02053
:101D48000BA9C00500F0C2FF002200211C2000F0F2
:101D580019FF1C2000F01AFFA8E7C0460038014010
:101D680000440040001002400004005010B5036811
:101D7800104A934203D0104A93420DD010BD0F4A27
:101D8800136C0F490B401364C0210E4801F058F83A
:101D98001B2000F007FFF1E7084AD36B0A490B4004
:101DA800D363A0200C21C00501F04AF81C2000F0E4
:101DB800F9FEE3E70038014000440040001002400B
:101DC800FFBFFFFF00040050FFFFFDFF00B587B015
:101DD80017236B44187000290FD00F4880235B002D
:101DE8000293FF3B019316336B4400930123402277
:101DF800782101F0DDFA07B000BD074880235B00B9
:101E08000293FF3B019316336B4400930123002296
:101E1800782101F0CDFAEEE70801002010B5002185
:101E28008D20FFF7D3FF00211420FFF7CFFF0021FB
:101E3800AF20FFF7CBFF10BD10B500218D20FFF7B5
:101E4800C5FF00211020FFF7C1FF0021AE20FFF7DA
:101E5800BDFF10BD30B585B0002516E015488023BC
:101E68005B000293FF3B0193E3005B19124A9B1846
:101E7800009301234022782101F09AFA0134E4B258
:101E880063B2002BEADA0135EDB2072D0FD828002E
:101E98005038C0B20021FFF799FF00210020FFF75A
:101EA80095FF00211020FFF791FF0024E8E705B017
:101EB80030BDC04608010020F802002010B50020FF
:101EC8000BE0094AD9005218002111540133DBB242
:101ED8005AB2002AF5DA0130C0B2072801D8002327
:101EE800F6E7FFF7B7FF10BDF802002010B5CC08E1
:101EF80007230B4001219940C9B2002A06D0094B9B
:101F0800C0001818035D0B43035510BD054BC000F6
:101F18001818035DDB43DBB203550B430355DB4362
:101F28000355F2E7F8020020F0B5DE4657464E4664
:101F38004546E0B585B0039001919A460EA90B7805
:101F480098465346082B15D0D90807201840441E38
:101F5800A041091858084143CBB20293203AD3B2A2
:101F68009946039F00239B464346D846D346CA4614
:101F7800994643E006230293F0E7314A5346580056
:101F88005044400012184346D65C019D00241CE0D2
:101F98002C4A534658005044800012184346D65CD9
:101FA800F3E7294A5346180112184346D65CECE772
:101FB8004B465A425A41D2B229003800FFF796FFE1
:101FC80076080135EDB20134E4B2072C07D8F307DF
:101FD800EED54A4629003800FFF788FFF0E70137B9
:101FE800FFB25B46082B05D0039BFA1A5B465808DC
:101FF800824218D043460133DBB29846029B98458B
:1020080017D25B46082BB8D00C2BC1D0102BC8D0E8
:10201800182B0ED10D4A5346D80050448000121890
:102028004346D65CB1E7019F0837FBB20193039F93
:10203800E0E705B0F0BCBB46B246A946A046F0BDF5
:10204800007400088C6F00089C690008405C000858
:10205800F0B5CE46474680B583B0050088461600E1
:102068001F000AAB1B78994602E00635EDB201362F
:1020780032781400203CE4B25E2C0CD84B46009316
:102088003B0041462800FFF74FFF082FEDD07B08A3
:10209800ED18EDB2EBE703B0C0BCB946B046F0BDF1
:1020A80010B50021AE20FFF791FE00210020FFF7B8
:1020B8008DFE00211020FFF789FE00214020FFF748
:1020C80085FE00218120FFF781FE0021CF20FFF748
:1020D8007DFE0021A120FFF779FE0021C820FFF72F
:1020E80075FE0021A620FFF771FE0021A820FFF74A
:1020F8006DFE00213F20FFF769FE0021D320FFF786
:1021080065FE00210020FFF761FE0021D520FFF7C2
:102118005DFE00218020FFF759FE0021D920FFF73E
:1021280055FE0021F120FFF751FE0021DA20FFF7CC
:102138004DFE00211220FFF749FE0021DB20FFF7AA
:1021480045FE00214020FFF741FE00212020FFF737
:102158003DFE00210220FFF739FE00218D20FFF708
:1021680035FE00211420FFF731FE0021A420FFF7DF
:102178002DFE0021A620FFF729FEFFF79FFE002174
:10218800AF20FFF723FE10BD0D488546FFF712FD6F
:102198000C480D490D4A002302E0D458C4500433BA
:1021A800C4188C42F9D30A4A0A4C002301E0136090
:1021B8000432A242FBD303F031F8FFF761FCFEE7DB
:1021C80000200020000000205C0000208C76000821
:1021D8005C000020C4080020FEE7000010B50400E1
:1021E800114B1978002901D1012010BDFA20800077
:1021F800FDF78CFF01000D4B1868FDF787FF00F015
:10220800E1FC00280DD1032C01D90120EDE70130B4
:1022180000222100404200F0B5FC054B1C60002064
:10222800E3E70120E1E7C0460400002000000020A9
:102238000800002010B5084A116880235B000B4392
:1022480013600220FFF7CAFF041E02D001242000F9
:1022580010BDFFF743FCFAE700200240034B1B7850
:10226800034A11685B1813607047C04604000020D9
:1022780078070020014B18687047C046780700208F
:1022880070B50400FFF7F6FF0500631C02D0044B8D
:102298001B78E418FFF7EEFF401BA042FAD370BD8D
:1022A80004000020024A136802218B431360704720
:1022B80010E000E0024A136802210B4313607047E4
:1022C80010E000E0024A536802210B435360704754
:1022D8000058014030B583B0040000230193002862
:1022E80000D106E1836D002B13D023689A68D200D1
:1022F8001CD49968804A1140802252050A439A608A
:102308007E4B18687E49FDF701FF013040000190BF
:1023180009E0FFF7F1F90023E3655422A354E4E749
:10232800019B013B0193019B002BF9D123689A681B
:10233800D20000D59DE0A26D10210A43A265E26D8E
:102348000F390A43E26501209A6804210D001540FF
:10235800114200D00125A26DD20600D5C2E0002DA1
:1023680000D0BFE0A26D67490A400631FF310A4339
:10237800A2659A68D20752D4A268217E89030A43CB
:10238800617EC9030A43A57E69030A43216B0029BC
:1023980001D0802149010A43E1680A4321690029E3
:1023A80069DB802189030A432C21615C49000A43C7
:1023B8002021615C012961D0616A002905D0E025EE
:1023C8006D002940A56A29430A43D9684E4D294022
:1023D8000A43DA6063689B0F9B07E26C1A433C214F
:1023E800615C012959D021680B69484D2B40134382
:1023F8000B616368C0221206934210D08022D20576
:1024080093420CD080221206934208D040490A68B1
:10241800404D2A40F025AD032B4013430B60216843
:10242800636B4A690725AA4313434B612168A26B72
:102438004B696935AB43120113434B612369002B88
:1024480035D12268916A103B0B43936223685A691D
:1024580007231340626B9A423BD0A36D1222934329
:10246800023A1343A365E36D0F3A1343E365012072
:102478003DE0002068E74900490894E7002D03D1B2
:10248800802149020A4397E7A16D20252943A165C8
:10249800E16D1F3D2943E1658EE7216C0B43616CBB
:1024A8000B43A16C0B43134301221A439BE7802281
:1024B80092039342CAD121688B6AE369013B9B006E
:1024C8001C221A4010235B429340226E13438B62F6
:1024D800BCE70023E365A36D03229343023A134349
:1024E800A36504E0A36D10221343A365012003B084
:1024F80030BD0120FBE7C046E8FFFF6F0000002069
:10250800400D0300FDFEFFFF0102FEFF02FCFF1F5E
:1025180008270140FFFFC3FFF8B504000D00466916
:10252800082E04D00368DB68DB071DD40426FFF7F8
:10253800A1FE070023681A6816421BD16B1CF9D04C
:10254800FFF798FEC01BA84201D8002DF2D12368DE
:102558001B681E42EED1A36D04221343A3655423C6
:102568000022E254032029E0836D2022134383656F
:10257800012023E0A16D802292000A43A265D96858
:10258800C0221201114213D1A27E002A10D11A686A
:1025980012070DD59A68520711D45A680C218A433C
:1025A8005A60A36D0B4A13400432FF321343A365EC
:1025B800207E00280CD123680C221A60F8BDA36D78
:1025C80020221343A365E36D1F3A1343E365EFE746
:1025D8000020F3E7FEFEFFFF0368186C7047000059
:1025E800F0B583B004000023019305695433C35C3C
:1025F800012B00D12FE154230122C25400688368C3
:10260800033216001E401A4209D0A36D1C32134330
:10261800A365012054230022E25403B0F0BD4B68A7
:10262800022B00D1D5E080221206954225D08B4A94
:10263800954222D0226E1F271F400F25BD40AA4376
:102648000B685D032FD19B0E1F261E40BE403243F0
:1026580022664D68AB080133E269934213D80E68CD
:10266800826A1F231D40103B1F00AF40BA43B60EBD
:102678003340AB401343836205E00B68826A5B0317
:102688005B0B1343836220680B688D6842691B02E9
:102698009A432B40724D2B40134343610B68002B28
:1026A8004FDB0020B6E7DD07D0D49D0727D45D07B0
:1026B80027D41D0727D4DD0627D49D0627D45D0619
:1026C80027D41D0627D4DD0527D49D0527D45D050D
:1026D80027D41D0527D4DD0427D49D0427D45D0401
:1026E80027D41D0427D4DD0327D49D0327D48025B0
:1026F800ED021E002E402B42A8D01226A6E7012686
:10270800A4E70226A2E70326A0E704269EE70526FB
:102718009CE706269AE7072698E7082696E70926FB
:1027280094E70A2692E70B2690E70C268EE70D26FB
:102738008CE70E268AE70F2688E7102686E71126FB
:1027480084E7484A1168E02252040A404648834216
:1027580007D04648834222D0454883422CD00020E7
:1027680058E70802F5D480231B0413433D490A683F
:102778004048024013430B603F4B18683F49FDF740
:10278800C5FC013043001B189B00019302E0019B2C
:10279800013B0193019B002BF9D100203AE7C801C6
:1027A800DAD480235B0413432E490A683148024077
:1027B80013430B6000202DE749024AD48023DB0332
:1027C800134328490A682B48024013430B60002032
:1027D80020E780231B069D4202D0204B9D4205D155
:1027E8000B68826A5B035B0B9A4382620B68002B5F
:1027F80001DB00200EE71B4A12681B498B4207D0F9
:102808001A498B420FD01A498B4217D0002001E792
:10281800A0235B041A4013490B68164803401A4367
:102828000A600020F6E6C0231B041A400D490B6815
:10283800104803401A430A600020EBE6C0235B04FB
:102848001A4008490B680B4803401A430A600020E5
:10285800E0E60020DEE60220DFE6C0460400008055
:1028680000FFFF0708270140001000B0004000B833
:10287800002000B4FFFF3FFE00000020400D0300D1
:1028880070B50400026893685B0724D593689B07BA
:1028980005D4936811490B4010210B439360FFF74F
:1028A800E9FC050023689B685B0712D5FFF7E2FC8B
:1028B800401B0228F6D923689B685B07F2D5A36DF5
:1028C80010221343A365E36D0F3A1343E365012018
:1028D80002E0002000E0002070BDC046E8FFFF7F56
:1028E80030B583B004000023019303689A68D207C7
:1028F8004FD49968284A114211D19A6827490A4049
:1029080001210A439A60264B1B681B0217D5254BE9
:1029180018682549FDF7FAFB013001900CE0836D3A
:10292800102213438365C36D0F3A1343C365012017
:1029380030E0019B013B0193019B002BF9D1637EA1
:10294800012B01D1002025E0FFF794FC0500236846
:102958001A68D2071BD49A68D20705D49A680F4917
:102968000A4001210A439A60FFF784FC401B0228B1
:10297800EDD923681B68DB07E9D4A36D1022134344
:10298800A365E36D0F3A1343E365012002E00020DD
:1029980000E0002003B030BD17000080E8FFFF7F93
:1029A8000827014000000020400D030010B5040076
:1029B80003689B685B0724D45423C35C012B22D093
:1029C80054230122C254FFF78BFF002815D1A26DB2
:1029D8000E4B1A4080235B001343A3650023E36575
:1029E80022681C2111605422A35422689368084964
:1029F8000B4004210B43936004E054230022E2546B
:102A080000E0022010BD0220FCE7C046FEF0FFFFF8
:102A1800E8FFFF7F70B5040003689A680221080088
:102A28001040114200D001209A68D20735D50028FD
:102A380035D1996805220A40012A09D0A36D1022D0
:102A48001343A365E36D0F3A1343E365012025E0C3
:102A58009A6814490A4002210A439A6023680322AB
:102A68001A60FFF707FC050023689B68DB0712D58F
:102A7800FFF700FC401B0228F6D923689B68DB0798
:102A8800F2D5A36D10221343A365E36D0F3A1343E8
:102A9800E365012002E0002000E0002070BD002076
:102AA800FCE7C046E8FFFF7F10B504005423C35C71
:102AB800012B17D054230122C254FFF7E1FE00284E
:102AC80003D054230022E25410BD2000FFF7A2FFD8
:102AD8000028F6D1A36D044A13400432FF32134391
:102AE800A365EEE70220EFE7FEFEFFFF70B50028C2
:102AF80011DB8308134DC0339B005C59032210403F
:102B0800C000FC3216008640B44389010A40824066
:102B180022435A5170BD0F230340083B9B080633DC
:102B28009B00094A944663445C6803221040C00035
:102B3800FC3215008540AC4389010A40824022439B
:102B48005A60E7E700E100E000ED00E0013880238B
:102B58005B0498420FD2094A50600948036A1B0275
:102B68001B0AC02109060B43036200239360073345
:102B78001360002070470120FCE7C04610E000E029
:102B880000ED00E010B5FFF7B1FF10BD002805DB30
:102B98001F22024001239340014A13607047C04638
:102BA80000E100E000280ADB1F22024001239340D5
:102BB800034980228B50BFF34F8FBFF36F8F70474D
:102BC80000E100E010B5FFF7C1FF10BD30B50028E7
:102BD80036D02523C35C022B06D00423C3632033DD
:102BE8000022C254012030BD026813680E218B43B5
:102BF8001360426C136813490B40136001680A683C
:102C080001239A430A60104C6268056C1C21294014
:102C18008B4013436360836CC26C5A60036D002B56
:102C280006D01A6807490A401A60436D826D5A60D7
:102C380025230122C254013B0022C2540020D2E7BE
:102C48000120D0E7FFFEFFFF0000024070B52523FA
:102C5800C35C022B03D00423C363012070BD026848
:102C680013680E218B43136001680A6801239A4395
:102C78000A60416C0A68134C22400A60124C626870
:102C8800056C1C2129408B4013436360836CC26C24
:102C98005A60036D002B06D01A680A490A401A6068
:102CA800436D826D5A6025230122C254013B0022E4
:102CB800C254836B002B02D098470020CEE7002037
:102CC800CCE7C046FFFEFFFF00000240F0B500233E
:102CD80059E086685F000324BC40A643CC68BC402A
:102CE80034438460446894434E6836090122324074
:102CF8009A402243426056E0DE080836B60037584C
:102D080005321A4092000F249440A7430C6994405E
:102D180022003A43325059E0032600E00026A6403C
:102D280034003C43424E1832920094513768EA43CB
:102D38003E00AE434C68E40201D53E002E433C4CB5
:102D4800266067683E0016404C68A40201D53E0024
:102D58002E43374C66608426A7593E0016404C68BF
:102D6800A40301D53E002E43314C8427E65180262A
:102D7800A65932404C68E40301D52A0032432C4D51
:102D880080242A5101330C682200DA404ED00122F7
:102D98009A40250015401442F4D04E68032434406C
:102DA800013C012C95D94C6803222240032A08D003
:102DB800C4685E000322B24094438A68B24022434A
:102DC800C2604C6803222240022A95D004685E0043
:102DD80003221700B740BC434F683A40B240224331
:102DE80002604C68C02292021442CBD09A081400A8
:102DF8001834A4000E4EA75903241C40E4000F26E3
:102E0800A640B743A026F605B04287D0094EB04287
:102E180008D0094EB04207D0084EB04200D17BE737
:102E280005267CE701267AE7022678E7F0BDC0464A
:102E3800001802400004005000080050000C005028
:102E4800F0B5CE46474680B58946002323E00321E6
:102E5800884601E0002188464146A140A94247D062
:102E680004685E000325B5402C430460DC08083480
:102E7800A400275807261E40B6000F21B1408F43F3
:102E880027508468AC438460446894434460C268B3
:102E9800AA43C26001334A46DA4045D001229A402B
:102EA8004C461440A44649461142F3D09F083C00C2
:102EB8001834A4001E4D655903261E40F4000F2641
:102EC800A6403540A021C9058842C3D01949884287
:102ED80008D01949884208D018498842B7D0052136
:102EE8008846B9E701218846B6E702218846B3E754
:102EF8000F4D802188466C5861468C4341466C5082
:102F0800043188466C5861468C4341466C506C6865
:102F180061468C436C602C688C432C601837BC006D
:102F28006759B74367519BE7C0BCB946B046F0BD87
:102F3800001802400004005000080050000C005027
:102F480003690B4201D0012070470020FCE7002AEA
:102F580001D0816170478162FCE7000010B5040070
:102F6800094BDB68184204D1074B1B69234205D182
:102F780010BD054BD860FEF773F9F5E7024B1C61ED
:102F88002000FEF7F3F9F3E700180240026893699E
:102F98009B0701D50023936203689A69D20703D47B
:102FA8009A6901210A439A617047000010B58905A2
:102FB800890D120411431943029B1943490049081A
:102FC800046862685B0D8020C00003400348034327
:102FD8009A4313000B43636010BDC046FF63FF03B1
:102FE800F0B5C64600B504000E00904601688B692E
:102FF800102217001F401A4248D01023CB61002529
:10300800206883699B063AD4002D38D1731CF7D009
:10301800FFF730F94346C01AB04201D8002EEFD16D
:1030280021684B688022D20113404222A25CD2B2AE
:103038008869000403D5002B01D1202A16D1236802
:103048009B699B06DCD4FFF715F94346C01A19287B
:10305800F5D9636C2022134363644123E2540023AF
:103068002232A354023AA3540125E8E74A68802390
:10307800DB0113434B60FFF7FDF88046DFE7002DC7
:1030880037D12023C3610427013500E000252268D9
:103098009369D90504D501210F43FF31D161012579
:1030A8005A0506D50822174322688021C900D16134
:1030B80001259B051FD502231F4323688022920008
:1030C800DA6101252000FFF761FF226853680B4988
:1030D8000B405360636C3B43636441232022E254FA
:1030E80000232232A354023AA354280080BCB846D5
:1030F800F0BD0427CBE7002DF7D0E3E700E800FE9A
:1031080070B504000D00160023689B699B071CD44A
:10311800320029002000FFF763FF002817D16B1C3D
:10312800F2D0FFF7A7F8801BA84201D8002DEBD1F9
:10313800636C2022134363644123E2540023223248
:10314800A354023AA354012000E0002070BD0120DE
:10315800FCE7F0B5C64600B507000D0090461E0016
:103168003B689C692C40641B63425C41444516D112
:10317800731CF5D0FFF77EF8069BC01AB04201D841
:10318800002EEDD17B6C202213437B644123FA543B
:1031980000232232BB54023ABB54012000E0002035
:1031A80080BCB846F0BD000070B582B004001500C0
:1031B8001E008023F2B2194800905B042000FFF73C
:1031C800F5FE079A06992000FFF79AFF00281ED1FE
:1031D800012E0ED12368EDB29D62079B0093069BDA
:1031E800002280212000FFF7B4FF002813D102B08D
:1031F80070BD23682A0A9A62079A06992000FFF789
:103208007FFF002805D12368EDB29D62E5E7012024
:10321800EDE70120EBE70120E9E7C0460020008048
:1032280070B582B0040015001E00DAB2184B009386
:103238000023FFF7BBFE079A06992000FFF760FFFF
:1032480000281ED1012E0ED12368EDB29D62079B86
:103258000093069B002240212000FFF77AFF0028F8
:1032680013D102B070BD23682A0A9A62079A069998
:103278002000FFF745FF002805D12368EDB29D62C5
:10328800E5E70120EDE70120EBE70120E9E7C0468B
:103298000020008070B505000C0016002B689B69A3
:1032A8009B061AD4320021002800FFF799FE002857
:1032B80015D1FEF7DFFF801BA04201D8002CEDD10D
:1032C8006B6C202213436B644123EA54002322329F
:1032D800AB54023AAB54012070BD0020FCE701203A
:1032E800FAE7000010B5041E59D04123C35C002B37
:1032F80043D041232422E2542268136801218B43DE
:1033080013606368226827490B4013612268936839
:1033180025490B409360E368012B34D0A1682268EB
:1033280084231B020B439360E368022B32D022688C
:1033380051681E4B0B4353602268D3681A490B40EF
:10334800D360236962691343A26912022168134397
:10335800CB60E369216A22680B4313602268136813
:1033680001210B4313600023636441221F31A154E0
:1033780023630132A354002010BD40330022C254FD
:10338800FEF7A2FAB5E7A168226880231B020B4367
:103398009360C9E72368802212015A60C7E70120B9
:1033A800EAE7C046FFFFFFF0FF7FFFFF0080000253
:1033B800F0B587B004000391049205930CAB20CBC1
:1033C8001F884123C35C202B00D0B3E0002D18D008
:1033D800002F16D04023C35C012B00D1ADE0402361
:1033E8000122C254FEF746FF0600802100901923EF
:1033F800012209022000FFF7ACFE002806D00120B8
:1034080099E080239B006364012094E041232122FA
:10341800E25401331F32E254002363646562678516
:10342800636301960E9B0093059B049A0399200001
:10343800FFF7BAFE00280FD1638D9BB2FF2B10D97E
:10344800FF2323857F3B002200925B04FF32039910
:103458002000FFF7ABFD21E040230022E2540120C9
:1034680069E0628D92B222858023D2B20021009158
:103478009B0403992000FFF799FD0FE0628D92B23B
:1034880022858023D2B2002100919B040399200059
:10349800FFF78CFD638D9BB2002B34D032000E9960
:1034A8002000FFF72DFE002849D1626A23681278B0
:1034B8009A62636A01336362638D013B9BB26385E1
:1034C800238D013B9BB22385628D92B2002AE1D005
:1034D800002BDFD100960E9B002280212000FFF7F1
:1034E80038FE00282DD1638D9BB2FF2BC6D9FF2350
:1034F80023857F3B002200925B04FF320399200062
:10350800FFF754FDC6E732000E992000FFF7C2FE10
:10351800002818D123682022DA6121684B680B4DF6
:103528002B404B604123E25400232232A354023A39
:10353800A35400E0022007B0F0BD0220FBE7012001
:10354800F9E70120F7E70120F5E7C04600E800FEAB
:10355800F0B587B004000391049205930CAB20CB1F
:103568001F884123C35C202B00D0B5E0002D18D064
:10357800002F16D04023C35C012B00D1AFE04023BD
:103588000122C254FEF776FE06008021009019231E
:10359800012209022000FFF7DCFD002806D00120E7
:1035A8009BE080239B006364012096E04123222254
:1035B800E25401331E32E254002363646562678576
:1035C800636301960E9B0093059B049A0399200060
:1035D800FFF726FE00280FD1638D9BB2FF2B10D971
:1035E800FF2323857F3B424A00925B04FF22039915
:1035F8002000FFF7DBFC21E040230022E2540120F9
:103608006BE0628D92B222858023D2B23849009154
:103618009B0403992000FFF7C9FC0FE0628D92B26A
:1036280022858023D2B2002100919B0403992000B7
:10363800FFF7BCFC638D9BB2002B36D000960E9B27
:10364800002204212000FFF784FD002849D12368C7
:103658005A6A636A1A70636A01336362238D013B95
:103668009BB22385628D013A92B26285628D92B2D5
:10367800002ADFD0002BDDD100960E9B002280218E
:103688002000FFF766FD00282DD1638D9BB2FF2B2C
:10369800C4D9FF2323857F3B002200925B04FF32BD
:1036A80003992000FFF782FCC4E732000E9920003E
:1036B800FFF7F0FD002818D123682022DA6121687D
:1036C8004B680C4D2B404B604123E25400232232BF
:1036D800A354023AA35400E0022007B0F0BD022030
:1036E800FBE70120F9E70120F7E70120F5E7C046ED
:1036F8000024008000E800FEF0B54123C35C202BC5
:1037080020D12033C35C012B1ED040240122025556
:10371800412524234355066833689343336006687C
:1037280033680A4F3B403360066833680B433360A5
:1037380001680B6813430B6020234355002303558E
:103748000020F0BD0220FCE70220FAE7FFEFFFFFB0
:10375800F0B54123C35C202B1ED12033C35C012B61
:103768001CD04024012202554125242343550668D4
:1037780033689343336006683368094F3B40090256
:103788001943316001680B6813430B6020234355CC
:10379800002303550020F0BD0220FCE70220FAE7D1
:1037A800FFF0FFFF002816D00F4A13680720834355
:1037B8000638034313600D4A136904200343136159
:1037C80001290ED040BF20BF20BF084A1369042139
:1037D8008B4313617047044A1368072083431360BF
:1037E800E9E730BFF1E7C0460070004000ED00E0B7
:1037F80010B5104A136810490B4003431360802327
:103808009B00984201D0002010BD0C4B1B6858004B
:10381800C01840000A49FCF779FC0130054B5B6988
:103828005B0503D5002803D00138F7E70020EBE754
:103838000320E9E700700040FFF9FFFF00000020C7
:1038480040420F0070B582B0041E00D129E203681F
:10385800DB0739D5C14A916838230B40D168032268
:103868000A40102B26D0082B26D0636880225202EB
:1038780093427FD0A022D202934200D181E0B74B7D
:103888001A68B7490A401A601A68B6490A401A60A5
:103898006368002B00D180E0FEF7ECFC0500AF4B1D
:1038A8001B689B0310D4FEF7E5FC401B6428F6D97F
:1038B8000320F7E1032AD6D1A84B1B689B0303D545
:1038C8006368002B00D1EFE123689B0731D5A34A39
:1038D800916838230B40D16803220A40102B6AD024
:1038E800002B6BD19D4A1268520503D5E268002A65
:1038F80000D1DBE1994842689B490A4061690902A5
:103908000A434260002B0DD1036898490B40216996
:103918000B4303600368DB0A07221A40944BD34029
:10392800944A1360944B1868FEF758FC002800D09E
:10393800BEE123681B0700D481E0884B9A683823CE
:103948001340182B73D0A369002B00D1B4E0834A2D
:10395800136E01210B431366FEF78CFC05007F4BA9
:103968001B6E9B076BD4FEF785FC401B0228F6D91B
:10397800032097E1794A116880235B020B431360A7
:1039880086E7764B19688022D2020A431A601968C2
:10399800802252020A431A607AE7FEF76BFC0500A0
:1039A8006E4B1B689B038FD5FEF764FC401B642895
:1039B800F6D9032076E1022A92D193E7E368002B37
:1039C80022D0664A136869490B4021690B4313608A
:1039D800116880235B000B431360FEF74BFC050066
:1039E8005E4B1B685B0506D4FEF744FC401B0228AF
:1039F800F6D9032056E159494B685B4A134062697E
:103A0800120213434B6094E7544A13685B490B4016
:103A18001360FEF72FFC0500504B1B685B0588D52B
:103A2800FEF728FC401B0228F6D903203AE14B4B4D
:103A38001B6E9B0703D5A369002B00D13AE12368CD
:103A48005B0700D4A2E0454B9A6838231340202B2B
:103A580045D0424BDB6BDB004AD4404BDA6B80210C
:103A680049050A43DA63DB6B0B400193019B01258F
:103A7800434B1B68DB053DD5A368012B4ED0052BB6
:103A880052D0364BDA6D01218A43DA65DA6D03319B
:103A98008A43DA65A368002B50D0FEF7EBFB0600DB
:103AA8002E4BDB6D9B076FD4FEF7E4FB801B354B79
:103AB8009842F5D90320F5E0284A136E01218B437B
:103AC8001366FEF7D7FB0500244B1B6E9B07B6D584
:103AD800FEF7D0FB401B0228F6D90320E2E01F4B7B
:103AE800DB6D9B0752D5A368002B4FD10120D9E08D
:103AF8000025BDE7224A116880235B000B43136051
:103B0800FEF7B8FB06001E4B1B68DB05B4D4FEF7B6
:103B1800B1FB801B0228F6D90320C3E00F4AD36DFE
:103B280001210B43D365B5E70C4BDA6D04210A4339
:103B3800DA65DA6D03390A43DA65ABE7FEF79AFB13
:103B48000600064BDB6D9B071ED5FEF793FB801B1B
:103B58000C4B9842F5D90320A4E0C046001002405F
:103B6800FFFFFEFFFFFFFBFFFF80FFFFFFC7FFFF19
:103B78000024F4000000002008000020FFFEFFFFE2
:103B88000070004088130000012D1ED0E369002B4F
:103B980000D191E04F4A916838220A40102A5ED03D
:103BA800022B18D04B4A13684B490B401360FEF7A1
:103BB80061FB0400474B1B689B0149D5FEF75AFB84
:103BC800001B0228F6D903206CE0424AD36B434914
:103BD8000B40D363DAE73F4A13683F490B40136051
:103BE800FEF748FB05003B4B1B689B0106D5FEF71B
:103BF80041FB401B0228F6D9032053E0354AD3681D
:103C080037491940236A606A0343A06A00020343E4
:103C1800E06A0343206B03430B43D360116880239E
:103C28005B040B431360D16880235B050B43D360AF
:103C3800FEF720FB0400274B1B689B0106D4FEF708
:103C480019FB001B0228F6D903202BE0002029E0ED
:103C5800204AD36823490B40D360002022E0012B7F
:103C68002CD01C4BDA6803231340216A8B4227D1DE
:103C780070231340616A8B4224D1FE21C90111408F
:103C8800A36A1B0299421FD1F8239B031340E16AE0
:103C98008B421BD1520F5207236B9A4218D1002036
:103CA80000E0012002B070BD0120FBE70120F9E728
:103CB8000120F7E70120F5E70020F3E70120F1E70D
:103CC8000120EFE70120EDE70120EBE70120E9E71C
:103CD8000120E7E700100240FFFFFFFEFFFFFFEFB4
:103CE8008C80C11FFCFFFEEF10B52A4B9B68382261
:103CF8001A4207D1274B1A68D20A072313402648CD
:103D0800D84010BD234B9A6838231340082B3BD06A
:103D1800204B9A6838231340102B0DD01D4B9A68FE
:103D280038231340202B31D01A4B9A68382313407C
:103D3800182B26D00020E4E7164AD1680D3B0B402B
:103D4800D2681209072111400131032B0FD0124804
:103D5800FCF7DCF90F4BDA68120A7F23134058434B
:103D68000C4BD968490F0131FCF7D0F9C9E70B486A
:103D7800FCF7CCF9074BDA68120A7F231340584343
:103D8800EEE7FA20C001BCE70448BAE78020000249
:103D9800B7E7C046001002400024F40000127A0081
:103DA80070B504000D00002800D1AAE0574B1A682E
:103DB800072313408B4221D323689A070ED55B074C
:103DC80005D5534A9168E023DB010B439360504AC1
:103DD800936850490B40A1680B4393602368DB0745
:103DE80054D56368012B20D0022B3BD0002B3FD148
:103DF800474A126852051CD401206AE0434A1368F6
:103E080007218B432B431360FEF734FA06003F4B20
:103E18001A6807231340AB42CED0FEF72BFA801B5B
:103E28003D4A9042F3D9032053E0394A126892037D
:103E380069D537498A680720824313438B60FEF7A8
:103E480019FA0600324B9B6838221A406368DB0077
:103E58009A421BD0FEF70EFA801B2F4B9842F1D9DD
:103E6800032036E02A4A12689201E2D4012030E0A9
:103E7800032B05D0264AD26D9207DAD4012028E018
:103E8800234A126E9207D4D4012022E01F4B1A68ED
:103E980007231340AB421DD823685B0706D51C4A8D
:103EA80093681E490B40E1680B439360FFF71CFFC2
:103EB800174B9A68120A0F231340194A9B009A5805
:103EC8001F231340D840174B1860174B1868FEF78C
:103ED80085F970BD0D4A136807218B432B43136086
:103EE800FEF7C8F90600094B1A6807231340AB42CE
:103EF800D2D0FEF7BFF9801B074B9842F3D90320B5
:103F0800E7E70120E5E70120E3E7C046002002409B
:103F180000100240FFF0FFFF88130000FF8FFFFF33
:103F2800005C00080000002008000020014B186811
:103F38007047C0460000002010B5FFF7F7FF064B9A
:103F48009A68120B07231340044A9B009A581F23B0
:103F58001340D84010BDC04600100240E05B000886
:103F6800F0B583B0040003689B0362D5534BDB6B49
:103F7800DB001ED4514BDA6B802149050A43DA6312
:103F8800DB6B0B400193019B01264D4A116880238E
:103F98005B000B431360FEF76DF90500484B1B6887
:103FA800DB0508D4FEF766F9401B0228F6D903257D
:103FB80002E00026E9E70025002D23D13F4BD96D0B
:103FC800C02292000B001340114212D062699A423B
:103FD8000DD03A4AD36D3B490B40D06D8021490240
:103FE8000143D165D16D38480140D165D365DB0700
:103FF80010D4002D06D1314AD36D32490B40616986
:104008000B43D365012E15D12C4AD36B2F490B4096
:10401800D3630FE0FEF72EF90700284BDB6D9B07F3
:10402800E7D4FEF727F9C01B294B9842F5D9032599
:10403800DFE700252368DB0706D5204A536D0321F7
:104048008B4361680B43536523689B0606D51B4A5F
:10405800536D20490B40A1680B43536523685B04EB
:104068000BD5164A536D9B009B0821690B4353657A
:1040780022698023DB059A4211D023681B050BD5E2
:104088000E4A536D14490B40E1680B435365E268CF
:104098008023DB019A4209D0280003B0F0BD074A0B
:1040A800D16880235B020B43D360E6E7034AD168FB
:1040B80080235B020B43D360EEE7C046001002404A
:1040C80000700040FFFCFFFFFFFFFEFFFFFFFFEF58
:1040D80088130000FFCFFFFFFF3FFFFF30B5EFF36E
:1040E8001084012282F3108801680B68124D2B405E
:1040F8000B6084F31088EFF3108182F31088026854
:1041080093680E4C2340936081F31088C36E012B93
:1041180006D088232022C2500023C366036730BD1F
:10412800EFF3108183F31088026813681024A34307
:10413800136081F31088ECE7DFFEFFFFFEFFFFEF5F
:10414800704710B5EFF31081012383F310880268DC
:1041580013684024A343136081F31088842320222A
:10416800C25000234367FFF7EBFF10BD704770474D
:1041780010B5806A00235E228352083A8352FFF703
:10418800F6FF10BD70470000F8B504000268D36957
:1041980010689168B74D2B420BD19D0611D5850645
:1041A80001D4CD000DD5236F002B2AD020009847CD
:1041B80027E0B14D0E002E40294223D1AF4D2842B1
:1041C80020D1E56E012D00D1A1E0DD0202D54D021E
:1041D80000D534E11A0605D5020600D536E10902F4
:1041E80000D533E15A0602D5420600D535E11A0258
:1041F80002D5420000D534E1DB0102D5002800DAFF
:1042080033E1F8BDDD0707D5C50505D501271762D8
:104218008C2562593A4362519A0709D5CA0707D5CE
:104228002268022515628A35625904273A43625189
:104238005A0709D5CA0707D52268042515628835A3
:10424800625902273A4362511A070AD5820601D4F5
:10425800002E06D02268082616628C256259324341
:1042680062511A050AD5420108D5226880252D0118
:1042780015628C2562592026324362518C22A2583D
:10428800002ABED09B0608D5800601D4C90004D5F3
:10429800236F002B01D0200098478C23E258236815
:1042A8009B685B0602D42823134229D02000FFF71D
:1042B80015FF23689B685B061ED5EFF31081012369
:1042C80083F310882268936840208343936081F3C6
:1042D8001088E36F002B0BD0694A9A63E06FFEF7F2
:1042E800B5FC002800D18CE7E06F836B984788E71E
:1042F8002000FFF73CFF84E72000FFF738FF80E746
:104308002000FFF734FF8C230022E25079E7DD0616
:1043180000D45AE7C50600D457E710231362236870
:104328009B685B0651D5E26F13685B689BB2002BF4
:1043380000D166E75C21615A994200D861E75E21A5
:10434800635213681B689B0609D55C23E15A023344
:10435800E35AC91A89B22000FFF714FF51E7EFF3B7
:104368001080012383F3108821680A68454D2A408C
:104378000A6080F31088EFF3108083F310882168B7
:104388008A689A438A6080F31088EFF3108083F379
:10439800108821688A684235FF35AA438A6080F30D
:1043A800108888222021A1500022E266EFF31081B4
:1043B80083F310882268136810208343136081F305
:1043C8001088E06FFEF702FCBFE75C23E35A5E2229
:1043D800A15A591A89B2A35A9BB2002B00D110E7EF
:1043E800002900D10DE7EFF31085012383F310882E
:1043F80020680268244E3240026085F31088EFF38B
:10440800108583F3108820688268204E32408260CD
:1044180085F3108888222020A0500022E2662267B7
:10442800EFF3108083F31088226813681025AB43DC
:10443800136080F310882000FFF7A4FEE1E68023D4
:104448005B031362200000F047FEDAE6636F002B7F
:1044580000D1D6E620009847D3E62000FFF771FE8A
:10446800CFE6200000F03AFECBE6200000F035FE53
:10447800C7E6C0460F080000010000102001000434
:1044880079410008FFFEFFFFDFFEFFFFFEFFFFEFA1
:1044980010B56023C35A88228258222A05D00268A0
:1044A800936908210B43936110BD0268526ADBB21D
:1044B800816D13400B70836D013383655E22835ACF
:1044C800013B9BB28352835A9BB2002BECD1EFF392
:1044D800108C5D3A82F3108801680B68184C2340F1
:1044E8000B608CF31088EFF3108C82F3108801684E
:1044F8008B6893438B608CF3108888231F32C250DB
:1045080000230367C36E012B17D10023C366EFF3A3
:104518001084013383F3108801680B68103A9343C1
:104528000B6084F310880368D9690A4200D01A62C4
:104538005C23C15AFFF726FEB6E7FFF717FEB3E77D
:10454800DFFEFFFF10B56023C25A2833C358222B61
:1045580005D00268936908210B43936110BD036875
:104568005B6A816D13400B80836D023383655E2225
:10457800835A013B9BB28352835A9BB2002BEDD1E5
:10458800EFF3108C5D3A82F3108801680B68194CC0
:1045980023400B608CF31088EFF3108C82F31088A3
:1045A80001688B6893438B608CF3108888231F32D3
:1045B800C25000230367C36E012B17D10023C366C3
:1045C800EFF31084013383F3108801680B68103A05
:1045D80093430B6084F310880368D9690A4200D0BA
:1045E8001A625C23C15AFFF7CDFDB7E7FFF7BEFD9E
:1045F800B4E7C046DFFEFFFFF0B5CE46474680B5BC
:1046080083B004006023C35A01930368DD691A6804
:1046180090469A68914688228258222A08D09A6938
:1046280008210A439A6103B0C0BCB946B046F0BD40
:104638006823C65A3FE08C23E358002B78D15E23C9
:10464800E35A9BB2002B36D1EFF31080012282F39C
:10465800108821680B684E4F3B400B6080F3108830
:10466800EFF3108182F31088226893684948034069
:10467800936081F3108888232022E2500023236767
:10468800E36E012B5BD10023E366EFF31080013367
:1046980083F3108821680B68103A93430B6080F30A
:1046A80010882368D9690A4200D01A625C23E15A4B
:1046B8002000FFF767FD002E45D0AD0643D52368DF
:1046C8005B6A6A461279A16D13400B70A36D0133C2
:1046D800A3655E22A35A013B9BB2A3522368DD69FE
:1046E8006A07ACD0EA0708D54246D20505D50121AC
:1046F80019628C22A3580B43A350AB070AD54B462B
:10470800DB0707D5236802221A628A32A3580421DC
:104718000B43A3506B078ED54B46DB078BD523681D
:1047280004221A628832A35802210B43A35082E75D
:104738002000FFF71CFD8C230022E2507FE72000B9
:10474800FFF714FDB7E75E23E35A9BB2002B00D1B5
:1047580069E76822A25A9A4200D864E7EFF310800A
:10476800012282F3108821688B680B4D2B408B60E7
:1047780080F31088094B2367EFF3108182F31088C8
:104788002268136820200343136081F310884AE7E6
:10479800FFFEFFFFFEFFFFEFFFFFFFEF994400085A
:1047A800F8B5DE4657464E464546E0B50400602358
:1047B800C55A0368DF691A6890469A689146882244
:1047C8008258222A09D09A6908210A439A61F0BCC2
:1047D800BB46B246A946A046F8BD6823C65A42E081
:1047E8008C23E358002B79D15E23E35A9BB2002B2C
:1047F80039D1EFF3108001339B4683F31088216889
:104808000B689A464D4B52461A400A6080F310884E
:10481800EFF310818BF310882268936848480340AF
:10482800936081F3108888232022E25000232367B5
:10483800E36E012B59D10023E366EFF310800133B7
:1048480083F3108821680B68103A93430B6080F358
:1048580010882368D9690A4200D01A625C23E15A99
:104868002000FFF78FFC002E43D0BF0641D52368F8
:104878005B6AA26D2B401380A36D0233A3655E2291
:10488800A35A013B9BB2A3522368DF697A07ABD0D6
:10489800FA0708D54246D20505D5012119628C22AE
:1048A800A3580B43A350BB070AD54B46DB0707D5D4
:1048B800236802221A628A32A35804210B43A350A8
:1048C8007B078DD54B46DB078AD5236804221A62FD
:1048D8008832A35802210B43A35081E72000FFF739
:1048E80046FC8C230022E2507EE72000FFF73EFCC6
:1048F800B9E75E23E35A9BB2002B00D167E7682231
:10490800A25A9A4200D862E7EFF31080012282F39C
:10491800108821688B680B4D2B408B6080F31088C2
:10492800094B2367EFF3108182F31088226813681C
:1049380020200343136081F3108848E7FFFEFFFF40
:10494800FEFFFFEFFFFFFFEF4D45000810B5040025
:1049580083680269134342691343C26913430168B8
:104968000A685A48024013430B6022685368584942
:104978000B40E1680B435360A369226A1A4321681C
:104988008B685448034013438B602268D36A0F2115
:104998008B43616A0B43D36223684F4A934211D019
:1049A8004E4A93421FD01023E0698022120290429F
:1049B80023D0042B76D054D8002B59D0022B4ED1BB
:1049C800474859E0474B5A6D03231340022B0CD03C
:1049D80005D8002B0BD0012B0BD10333E4E7032BB5
:1049E80009D10533E0E70023DEE70223DCE70023F3
:1049F800DAE71023D8E71023D6E7042B2CD007D802
:104A0800002B09D0022B01D1354809E0012053E0E1
:104A1800082B05D001204FE0FFF78EFA002844D07C
:104A2800626A314B5200D15AFBF770FB4000616853
:104A38004B08C018FBF76AFB0200103A2B4B9A424E
:104A480035D882B20F239A434008083B03401343EA
:104A58002268D36000202FE0FFF746F9DEE7012047
:104A68002AE0082B02D18020000205E0012023E083
:104A7800FFF762FA00281CD0626A1B4B5200D15A19
:104A8800FBF744FB61684B08C018FBF73FFB0200CB
:104A9800103A164B9A420ED823680004000CD860CE
:104AA800002009E0FFF720F9E4E7002004E00120F6
:104AB80002E0002000E0012001236A22A352023A0A
:104AC800A35200232367636710BDC046F369FFCF75
:104AD800FFCFFFFFFFF4FF11003801400044004002
:104AE8000024F4000010024028760008EFFF0000C0
:104AF800836ADB0706D5026853682C490B40C16AF4
:104B08000B435360836A9B0706D50268536828499C
:104B18000B40016B0B435360836A5B0706D5026841
:104B2800536824490B40416B0B435360836A1B074E
:104B380006D50268536820490B40816B0B435360CC
:104B4800836ADB0606D5026893681C490B40C16B73
:104B58000B439360836A9B0606D5026893681849DD
:104B68000B40016C0B439360836A5B060BD50268AC
:104B7800536814490B40416C0B435360426C8023CB
:104B88005B039A420AD0836A1B0606D502685368FB
:104B98000D490B40C16C0B43536070470268536862
:104BA8000A490B40816C0B435360ECE7FFFFFDFFA4
:104BB800FFFFFEFFFFFFFBFFFF7FFFFFFFEFFFFF92
:104BC800FFDFFFFFFFFFEFFFFFFFF7FFFFFF9FFF85
:104BD800F8B5CE46474680B506000D001700994641
:104BE800089B98463368DC692C40641B63425C412F
:104BF800BC4257D143460133F4D0FDF73BFB4B464B
:104C0800C01A40452ED84346002B2BD03268136873
:104C18005B07E7D5D3691B05E4D580231B01136225
:104C2800EFF31080012282F3108831680B68204C62
:104C380023400B6080F31088EFF3108082F3108814
:104C480031688B6893438B6080F31088202383320C
:104C5800B3500432B3500432B35060330022F254DC
:104C6800032020E0EFF31080012282F310883168DE
:104C78000B680F4C23400B6080F31088EFF3108013
:104C880082F3108831688B6893438B6080F31088B7
:104C980020238332B3500432B35060330022F254DD
:104CA800032000E00020C0BCB946B046F8BDC046AD
:104CB8005FFEFFFFF0B5C64600B582B004000D00E8
:104CC80090461E008423C358202B6AD1002900D1A6
:104CD8006CE0002A00D16BE0826880235B019A4275
:104CE8001FD08023E35C012B64D080230122E2548F
:104CF8000C330022E250083B2132E250FDF7BAFAA9
:104D0800070054234246E2520233E252A26880234B
:104D18005B019A420CD00023984680230022E2547B
:104D28001DE00369002BDCD1CB07DAD5012039E07F
:104D38002369002B02D000239846EEE7A8460025F9
:104D4800EBE743461B882268DB05DB0D93620223F1
:104D58009C46E0445623E25A013A92B2E252562364
:104D6800E35A9BB2002B0FD000963B000022802113
:104D78002000FFF72DFF00281ED1002DE1D02A7852
:104D880023689A620135E5E700963B00002240213E
:104D98002000FFF71DFF002810D184232022E250B5
:104DA80000E0022002B080BCB846F0BD0120F9E75F
:104DB8000120F7E70220F5E70320F3E70320F1E7F6
:104DC80030B583B004008C230022C250FDF752FA9C
:104DD800050023681B681B070FD423681B685B0743
:104DE80018D420238422A3500432A3500023E3665E
:104DF800083AA354002003B030BD80210C4B009327
:104E08000300002289032000FFF7E2FE0028E4D017
:104E18000320F0E78021064B00932B000022C903F2
:104E28002000FFF7D5FE0028DBD00320E3E7C046CB
:104E3800FFFFFF0110B5041E30D08423C358002B98
:104E480022D084232422E2502268136801218B4354
:104E580013602000FFF77AFD012814D0A36A002B05
:104E680018D1226853680E490B4053602268936832
:104E78002A218B4393602268136829390B431360F6
:104E88002000FFF79DFF10BD80330022C254FCF7BD
:104E9800F9FED6E72000FFF72BFEE2E70120F2E754
:104EA800FFB7FFFF10B581655C23C2520233C252BF
:104EB800002303678368802149018B4208D0002BB7
:104EC80015D10369002B0ED16033FF21C15215E0C3
:104ED8000369002B03D160334949C1520EE06023B6
:104EE800FF21C1520AE060237F21C15206E08021E0
:104EF80049058B4234D060230021C1528C23002104
:104F0800C150043B2231C150EFF3108C012484F3CB
:104F1800108801688B6823438B608CF31088416E7E
:104F280080239B05994226D0826880235B019A42A0
:104F380052D0344B036780230022C2540369002BEC
:104F480050D0EFF31081012383F3108802681068B2
:104F58002033FF330343136081F31088002010BD12
:104F68000369002B03D160337F21C152C6E7602358
:104F78003F21C152C2E76823C35A9342D4D88268FA
:104F880080235B019A4221D01F4B036780230022B4
:104F9800C2540369002B0BD0EFF31081012383F374
:104FA800108802681468FF332343136081F3108864
:104FB800EFF31081012383F310880268906880233F
:104FC8005B050343936081F31088C7E70369002BEF
:104FD800DAD10E4B0367D9E70369002BA9D10C4B33
:104FE8000367A8E7EFF31081012383F310880268B1
:104FF800136820200343136081F31088AEE7C0468E
:10500800FF0100009944000801460008A94700086C
:105018004D45000870B58823C358202B2CD1002992
:105028002CD0002A2CD0846880235B019C421CD0A1
:105038008023C35C012B25D080230124C454002382
:10504800C36603685B681B020CD5EFF3108C012361
:1050580083F31088046825688023DB042B432360CE
:105068008CF31088FFF71EFF07E00369002BDFD1E0
:10507800CB07DDD5012000E0022070BD0120FCE750
:105088000120FAE70220F8E7F8B50400436E002B88
:1050980005D101336A228352023A8352F8BD02686D
:1050A80095686D0E07231D409268520F1340084FF4
:1050B800F85CC000074EF15CFBF7B2F86A23E052D7
:1050C800785DC000715DFBF7ABF86823E052E5E757
:1050D800487600084076000870477047704700001F
:1050E80070B58023C35C012B15D08024012606559A
:1050F800842524234351026813681168B143116061
:10510800064A13400022426601680B60202343517F
:105118000255002070BD0220FCE7C046FFFFFFDFFC
:10512800F8B504000A008023C35C012B1BD080253E
:105138000120605584262423A35123681F68196819
:105148008143196020688368DB00D90811438160B6
:105158002000FFF799FF23681F602023A351002335
:1051680063550020F8BD0220FCE70000F8B50400F4
:105178000B008022825C012A1BD08025012060550B
:1051880084262422A251226817681168814311607D
:105198002268916808480140194391602000FFF790
:1051A80073FF23681F602023A35100236355002049
:1051B800F8BD0220FCE7C046FFFFFFF10EB410B5B2
:1051C80000240C499DB01FAB0290069007910491F2
:1051D80009480A4904CB0591006802A901931B9468
:1051E80000F09EF9029B1C701DB010BC08BC03B0F7
:1051F8001847C046FFFFFF7F0C0000200802FFFF92
:1052080003008218934200D1704719700133F9E7FF
:10521800014B18687047C0460C00002070B5002686
:105228000C4C0D4D641BA410A64209D1002600F0B9
:1052380061FC0A4C0A4D641BA410A64205D170BD3E
:10524800B300EB5898470136EEE7B300EB589847A0
:105258000136F2E78476000884760008887600082C
:10526800847600087047704770B505000C1E10D092
:10527800043C2368002B00DAE418280000F0E0F86A
:105288001D4A1368002B05D163601460280000F0E4
:10529800DFF870BDA34208D9206821188B42F3D1EA
:1052A80019685B6809182160EEE71A005B68002B33
:1052B80001D0A342F9D911685018A0420BD1206837
:1052C8000918501811608342E0D118685B684118CA
:1052D80011605360DAE7A04202D90C232B60D5E7AE
:1052E800206821188B4203D119685B68091821606E
:1052F80063605460CAE7C046C008002070B50F4E0E
:105308000D0031680400002902D100F095FB3060DF
:105318002900200000F090FB431C03D101256D42B9
:10532800280070BD0323C51C9D43A842F8D0291A44
:10533800200000F081FB0130F2D1EFE7BC0800202B
:10534800F7B50322CB1C9343083305001F000C2B31
:1053580034D20C27B94233D8280000F071F8374E00
:1053680033681C00002C2FD139002800FFF7C6FF36
:105378000400431C5FD134680094009B002B4AD181
:10538800002C52D023682800E3180099019300F0FC
:1053980053FB019B834248D123682800FF1A390038
:1053A800FFF7ACFF013040D02368DB192360336876
:1053B8005A68002A33D1009B336019E0002BC9DA00
:1053C8000C232B600020FEBD2168C91B20D40B29AB
:1053D8000AD9E2192760A34204D1326063681160D8
:1053E800536005E05A60F9E76268A3420ED1326063
:1053F800280000F02DF8200007220B30231D9043D1
:10540800C21A9842DFD01B1AA350DCE75A60EFE7B4
:1054180023006468A6E7009C63680093ADE71A0060
:105428005B68A342FBD10023DAE70C2328002B603A
:1054380000F00EF8C6E70760DAE7C046C0080020AB
:1054480010B50248FFF70EFF10BDC046B80800208F
:1054580010B50248FFF707FF10BDC046B808002086
:10546800F0B58E6885B01F000C000B68029003929F
:10547800BE4230D80C21625E9021C9000A4228D071
:10548800032021695B1A0193636943430198DD0F87
:10549800ED187B1C1B186D10AB4200D91D0052057E
:1054A80028D529000298FFF74BFF061E2CD0019A39
:1054B800216900F0DEFAA289184B1A4080231343B1
:1054C800A381019B2661F61826603E006561ED1AEE
:1054D800A560BE4200D93E0032000399206800F062
:1054E80099FA0020A3689B1BA36023689B1923607B
:1054F80005B0F0BD2A00029800F0C4FA061EE0D1FB
:1055080021690298FFF7B0FE0C230120029A40425D
:105518001360A28934331343A381E9E77FFBFFFFBC
:10552800F0B5A1B003901D008B890F0016001B0673
:1055380011D50B69002B0ED14021FFF701FF386010
:105548003861002805D10C23039A136001204042DA
:10555800CFE040237B61002308AC6361203363768E
:105568001033A376079535002B78002B01D0252B17
:1055780048D1AB1B0593B5420BD0320039000398D4
:10558800FFF76EFF013000D1AEE06369059A9B1802
:1055980063612B78002B00D1A6E001220023524240
:1055A800626004A9543252186E1C2360E360A36041
:1055B8001370A365544B052218003178059300F049
:1055C8004DFA751C00281FD12268D30604D5532331
:1055D80004A95B1820211970130704D5532304A9C3
:1055E8005B182B21197033782A2B16D0350000212F
:1055F8000A20E3682A786E1C303A092A50D9002913
:1056080011D117E00135AFE7059B2268C01A0123C5
:10561800834013432E002360CCE7079B191D1B68AA
:105628000791002B01DB0B9304E05B42E36002234C
:10563800134323602B782E2B0CD16B782A2B34D173
:10564800079B02351A1D1B680792002B01DA0123FC
:105658005B4209932D4E03223000297800F0FEF9B1
:10566800002806D04023801B83402268013513435D
:1056780023602978062226486E1C217600F0EEF970
:10568800002838D0234B002B22D10722079B073351
:105698009343083307936369049A9B18636162E72D
:1056A8004343350001219B18A4E700230A20190071
:1056B800013563602A786E1C303A092A03D9002B19
:1056C800C8D00991C6E74143350001238918F1E79D
:1056D80007AA009221003A000F4B039800E000BF90
:1056E8000490049B0133D6D1BB890D985B0600D585
:1056F8002CE721B0F0BD07AA009221003A00064B22
:10570800039800F07BF8EBE750760008567600081F
:105718005A7600080000000069540008F7B5160022
:1057280001938A680B690C000090934200DA130019
:105738002200336043321278002A01D001333360EB
:1057480023689B0602D53368023333602268062338
:1057580015001D401A4227D0230043331B785A1ED8
:1057680093412268920630D4220001990098089D3E
:105778004332A847013025D006222368002513406C
:10578800042B05D13368E568ED1AEB43DB171D40A0
:10579800A3682269934201DD9B1AED180026B542E1
:1057A80020D1002010E00135E36832689B1AAB4233
:1057B800D2DD2200012301990098089F1932B847C9
:1057C8000130F0D101204042FEBD3020E1184331C4
:1057D800087021005A1C45310978A2184332023357
:1057E8001170C1E72200012301990098089F1A321D
:1057F800B8470130E6D00136D1E70000F0B58BB0EC
:1058080006920A0043320793059003920A7E0C0021
:10581800109B782A09D8622A0BD8002A00D1BAE04E
:105828007A490491582A00D18EE0250042352A7021
:1058380022E0100063381528F7D8FAF75DFC160047
:105848001F00F6FFF6FFF6FFF6FF1F00F6FFF6FF54
:10585800F6FFF6FF9F0036007E00F6FFF6FFB00069
:10586800F6FF3600F6FFF6FF820025001A6842357B
:10587800111D196013682B7001239EE018680968D0
:10588800021D0D060BD506681A60002E03DA2D23BB
:10589800039A764213705D4B0A27049318E0066852
:1058A8001A604906F1D536B2EFE70868196840C9A9
:1058B800050602D4400600D5B6B21960534B0A2734
:1058C80004936F2A00D1023F2300002243331A7049
:1058D8006368A360002B06DB04212268039D8A43CA
:1058E800226033430CD0039D30003900FAF794FC52
:1058F800049B013D5B5C2B70330006009F42F3D98B
:10590800082F09D12368DB0706D5626823699A4204
:1059180002DC3023013D2B70039B5B1B2361079B3B
:10592800210000930598069B09AAFFF7F7FE0130AE
:1059380048D1012040420BB0F0BD202209680A433B
:105948002260782232490491210045310A70196891
:10595800226840C9100602D4500600D5B6B21960B4
:10596800D30702D5202313432360002E01D010272C
:10597800AAE72022236893432360F8E71A680D6892
:10598800101D4969186013682E0601D5196002E0D8
:105998006D06FBD519800023039D2361BFE71A68B4
:1059A800111D1960156800212800626800F056F87A
:1059B800002801D0401B6060636823610023039ABC
:1059C8001370ACE72A00236906990598079DA84734
:1059D8000130AED023689B0715D4099BE068984234
:1059E800A9DA1800A7E72200012306990598079E5F
:1059F8001932B04701309CD00135E368099A9B1AE7
:105A0800AB42F0DCE9E70025F7E7C046617600081D
:105A18007276000810B5884202D98B18984208D3CC
:105A280000239A4207D0CC5CC4540133F9E78B5C5D
:105A38008354013AFBD210BD002370B5064D040013
:105A480008002B60FCF792F8431C03D12B68002B4D
:105A580000D0236070BDC046B4080020C9B28218C7
:105A6800904201D10020704703788B42FBD001306F
:105A7800F6E7002310B59A4200D110BDCC5CC4549F
:105A88000133F8E7F7B506000C001500002905D129
:105A98001100FFF755FC04002000FEBD002A03D1C9
:105AA800FFF7E2FB2C00F7E700F01CF8070085423F
:105AB80002D84308AB42EFD329003000FFF740FC7F
:105AC8000190002801D1019CE6E72A00BD4200D9D7
:105AD8003A0021000198FFF7CCFF21003000FFF7C2
:105AE800C3FBF0E70B1F1B68181F002B01DA0B58CC
:105AF800C0187047F8B5C046F8BC08BC9E46704749
:0C5B0800F8B5C046F8BC08BC9E467047CB
:105B140060110008F610000864110008181100084C
:105B24001C11000820110008241100082811000885
:105B34002C11000830110008341100083811000835
:105B44003C110008401100084411000848110008E5
:105B54004C11000850110008541100085811000895
:105B64005C110008312E302E362020543A25640D65
:105B74000A0000007C252525647C25642E2530330D
:105B840064767C2030782578207C202020256420B1
:105B940020207C202025642020207C25646D410D5C
:105BA4000A0000006B65793A307825782C4B6579CA
:105BB4005F41746F6D69633A25640D0A000000004B
:105BC400252525640000000025642E2530336476E5
:105BD40000000000256C646D41000000000000001E
:105BE40000000000000000000000000001000000B0
:105BF4000200000003000000040000000000000098
:105C04000000000000000000000000000000000090
:105C1400000000000000000000000000010000007F
:105C24000200000003000000040000000600000061
:105C34000700000008000000090000000000000048
:105C44000000000000000000000000000000000050
:105C54000000000000000000000000000000000040
:105C64000000000000F0F0F0000000000000000060
:105C740000017F010000000000000000001C1C1C4B
:105C84000000000000008060301C8C60301C0C00A0
:105C94000000000000000000000000000000000000
:105CA4000000000000000000000000E00000000010
:105CB40000E000000086E69F86868686E69F8600D2
:105CC40000011F01010101011F010100000080C04A
:105CD4006020F820E0C00000000003070C18FF70EB
:105CE400E18100000000070F10107F100F07000073
:105CF4008060206080000000E02000000F30203031
:105D04009F70DC371030C0000000100E030007182D
:105D1400101807000000C02020E0C00000000000B0
:105D240080E01F38E88703C43C040000070F181004
:105D3400100B070D1010080000808C4C3800000078
:105D4400000000000000000000000000000000004F
:105D5400000000000000000000000000000000003F
:105D6400000080E0300804000000000000FEFF0195
:105D740000000000000000000000030F1820400095
:105D840000040830E0800000000000000000000073
:105D940001FFFE0000000000004020180F03000077
:105DA40000000000000000000000C000000000002F
:105DB400004266663C18FF183C666642000000001C
:105DC400000003000000000000000000000080004C
:105DD40000000000001010101010FF101010101020
:105DE40000000000000003000000000000000000AC
:105DF400000000000000000000000000000000009F
:105E04000000000000808C4C3800000000000000FE
:105E1400000000000000000000000000001010104E
:105E240010101010101010000000000000000000FE
:105E3400000000000000000000000000000000005E
:105E440000000000000000000000000000001C1C16
:105E54001C00000000000000000000000000000022
:105E6400E0380C000000000080701C0300000000FB
:105E74000060380E0100000000000000000080C037
:105E840060202060C080000000FEFF0100000000D0
:105E940001FFFE000001070E181010180E07010084
:105EA4000000808080C0E0000000000000000000CE
:105EB40000FFFF000000000000001010101F1F1062
:105EC400101000000080402020202060C0800000CE
:105ED40000030300804020381F070000001C1A192B
:105EE40018181818181F00000080C020202060C057
:105EF40080000000000303001010182FE78000004A
:105F040000070F10101010180F0700000000000009
:105F14000000C0E0F000000000C0B088868180FF6F
:105F2400FF808000000000000010101F1F101000F0
:105F34000000E060606060606060000000003F108E
:105F440008080818F0E0000000070B101010101CDF
:105F54000F030000000080C040202020E0C00000AB
:105F640000FCFF211008080818F0E0000001070CED
:105F740018101010080F03000000C0E0606060609B
:105F840060E06000000003000000E018070000006B
:105F940000000000001F1F00000000000080C0601F
:105FA4002020202060C080000087EF2C181830309B
:105FB40068CF830000070F0810101010180F070097
:105FC4000000C0C020202020C0800000001F3F60CF
:105FD4004040402010FFFE0000000C1C1010100870
:105FE4000F0300000000000000000000000000009B
:105FF40000000000000E0E0E000000000000000073
:10600400001C1C1C00000000000000000000000038
:106014000000000000000000000C0C000000000064
:1060240000000000005838000000000000000000DC
:10603400000000804020100000001028448201006D
:10604400000000000000000000000102040810002D
:1060540000000000000000000000000000848484B0
:106064008484848484848400000000000000000090
:10607400000000000000102040800000000000002C
:1060840000000000000001824428100000001008F5
:10609400040201000000000000C0202010101010B5
:1060A40030E0C0000003030000F010080C070300F8
:1060B400000000001C1C1C0000000000000000C0C8
:1060C400406020202040C00000FCFF01F00E03C10E
:1060D400FE03807F0001070E08111110110904024C
:1060E4000000000080E0E000000000000000807C70
:1060F4004340477FF880000010181F100000000084
:10610400131F1C1020E0E02020202060C08000002D
:1061140000FFFF10101010182FE78000101F1F1031
:1061240010101010180F0700000080C0402020201D
:106134002060E00000FCFF010000000000000100FE
:106144000001070E181010100804030020E0E020DE
:1061540020202040C080000000FFFF00000000005D
:1061640001FFFE00101F1F10101018080E07010079
:1061740020E0E020202020202060800000FFFF108D
:106184001010107C00000000101F1F1010101010C1
:106194001018060020E0E02020202020606080000D
:1061A40000FFFF101010107C00000100101F1F10D2
:1061B4000000000000000000000080C060202020DB
:1061C40040E0000000FCFF0100004040C0C140402E
:1061D4000001070E181010100F0F000020E0E0203F
:1061E4000000000020E0E02000FFFF10101010105D
:1061F40010FFFF00101F1F1000000000101F1F10D1
:106204000000202020E0E02020200000000000000A
:1062140000FFFF000000000000001010101F1F10FE
:106224001010000000000000202020E0E0202020CA
:1062340000000000000000FFFF0000000060E0809C
:106244008080C07F3F00000020E0E020000020A00C
:106254006020200000FFFF30187CE3C00000000035
:10626400101F1F10000001131F1C181020E0E02055
:10627400000000000000000000FFFF00000000001C
:1062840000000000101F1F1010101010101806003E
:1062940020E0E0E000000000E0E0E02000FF013F3B
:1062A400FEC0E01E01FFFF00101F1000031F0300CB
:1062B400101F1F1020E0E0C0000000000020E020BC
:1062C40000FF0003071C78E08000FF00101F10008F
:1062D40000000000030F1F00000080C06020206049
:1062E400C080000000FEFF010000000000FFFE006F
:1062F4000001070E181010180C07010020E0E02020
:106304002020202060C0800000FFFF2020202020CB
:10631400301F0F00101F1F100000000000000000BD
:10632400000080C060202060C080000000FEFF01EB
:106334000000000000FFFE000001070E1111133CD5
:106344007C67210020E0E0202020202060C0800025
:1063540000FFFF101030F0D0080F0700101F1F10AF
:10636400000000030F1C10100080C06020202020BB
:106374004040E00000070F0C1818303060E0810046
:10638400001F0C0810101010180F07008060202048
:1063940020E0E020202060800100000000FFFF00DA
:1063A4000000000100000000101F1F10000000008A
:1063B40020E0E020000000000020E02000FFFF00BB
:1063C400000000000000FF0000070F18101010105C
:1063D400100807002060E0E02000000020E06020BA
:1063E4000000077FF88000807C03000000000000AC
:1063F400071F1C070000000020E0E02000E0E02070
:106404000020E0200007FFF8E01FFFFCE01F000071
:106414000000031F0300011F03000000002060E0D0
:10642400A0000020E0602000000000038F7CF8C67C
:10643400010000000010181E130001171F1810009F
:106444002060E0E02000000020E060200000010760
:106454003EF8E0180700000000000010101F1F1095
:106464001000000000806020202020A0E0E0200038
:1064740000000000C0F03E0F0300000000101C1FCD
:1064840017101010101806000000000000FC04048F
:10649400040404000000000000FF000000000000ED
:1064A40000000000007F404040404000000010E039
:1064B400000000000000000000000000031C6080D9
:1064C4000000000000000000000000030C708000C9
:1064D40000000404040404FC0000000000000000A8
:1064E400000000FF00000000000040404040407FEA
:1064F4000000000000000010080C040C081000004C
:106504000000000000000000000000000000000087
:106514000000000000000000000000000000000077
:106524000000000000000000000000000000000067
:106534008080808080808080808080800000000453
:106544000408080000000000000000000000000033
:106554000000000000000000000000000000000037
:10656400000000000000000000000000000098D8B7
:1065740044642424FCF80000000F1F1810101008B5
:106584001F1F10180020E0F00000000000000000B1
:106594000000FFFF180804040CF8F00000001F0FAF
:1065A40018101010180F0300000000000000000075
:1065B4000000000000E0F8180404043C3800000067
:1065C40000030F0C1010101008060000000000005B
:1065D40000000020E0F0000000E0F81C04040408BF
:1065E400FFFF000000030F18101010081F0F080011
:1065F4000000000000000000000000000000E0F8BF
:10660400484444444C7870000000030F0C181010E8
:10661400100804000000000080C0602020E0C000DA
:1066240000040404FFFF040404040000000010102C
:106634001F1F1010100000000000000000000000E8
:1066440000000000000070F88C04048CF874040C42
:10665400007076CF8D8D8D89C87870000020E0F0B1
:1066640000000000000000000000FFFF0804040414
:10667400FCF8000000101F1F100000101F1F100066
:10668400000000000060600000000000000004043E
:1066940004FCFC000000000000001010101F1F107C
:1066A4001010000000000000000000606000000006
:1066B40000000000040404FCFC0000000000C0C052
:1066C4008080C07F3F0000000020E0F00000000058
:1066D400000000000000FFFF80C0F41C0404000060
:1066E40000101F1F1100031F1C10100000002020A9
:1066F40020E0F000000000000000000000FFFF00A8
:106704000000000000001010101F1F1010100000E7
:1067140000000000000000000000000004FCFC0871
:1067240004FCFC0804FCFC00101F1F10001F1F10B9
:10673400001F1F1000000000000000000000000007
:106744000004FCFC08080404FCF8000000101F1FEF
:10675400100000101F1F10000000000000000000C7
:106764000000000000E0F0180C04040C18F0E00035
:1067740000030F0C101010100C0F03000000000099
:1067840000000000000000000004FCFC08040404F5
:106794000CF8F0000080FFFF889010101C0F03001D
:1067A40000000000000000000000000000E0F81CF1
:1067B40004040408F8FC000000030F18101090886B
:1067C400FFFF800000000000000000000000000047
:1067D400040404FCFC100804040C0C001010101F2A
:1067E4001F10101000000000000000000000000056
:1067F4000000000000003078CCC48484840C1C00A9
:1068040000001E1810101011190F060000000000DF
:1068140000C000000000000000040404FFFF0404A2
:1068240004000000000000000F1F1010100C0000F6
:106834000000000000000000000000000004FCFE56
:1068440000000004FCFE000000000F1F18101008D8
:106854001F0F0800000000000000000000000000FE
:1068640000040C3CFCC40000C43C0C040000000008
:10687400010F1E0E010000000000000000000000D7
:1068840000000000043CFCC400E47CFC84807C0424
:106894000000071F070000071F070000000000009A
:1068A40000000000000000000004041C7CE4C0346C
:1068B4001C0404000010101C1601131F1C181000E7
:1068C40000000000000000000000000000040C3C78
:1068D400FCC400C43C0404000000C080C1370E01A5
:1068E40000000000000000000000000000000000A4
:1068F40000001C0404C4F47C1C0400000000101CF0
:106904001F17111010180E0000000000000000F8FE
:106914000C04000000000000001028EF000000003C
:10692400000000000000003F604000000000000084
:106934000000FF0000000000000000000000FF0055
:1069440000000000000000000000FF000000000044
:106954000000040CF800000000000000000000002B
:10696400EF28100000000000000040603F0000001D
:10697400000000000018060202040810202030085D
:106984000000000000000000000000000000000003
:1069940000000000000000000000000000000000F3
:1069A4000000000000000000000000F800000000EB
:1069B400000000333000000000100C06100C06002C
:1069C400000000000000000040C07840C078400093
:1069D400043F04043F040400007088FC08300000F5
:1069E400001820FF211E0000F008F000E01800004D
:1069F40000211C031E211E0000F008887000000006
:106A04001E2123241927211010160E000000000057
:106A14000000000000000000000000E01804020074
:106A2400000000071820400000020418E0000000E5
:106A34000040201807000000404080F080404000E3
:106A44000202010F01020200000000F00000000039
:106A54000101011F0101010000000000000000000D
:106A640080B0700000000000000000000000000082
:106A7400000101010101010100000000000000000B
:106A840000303000000000000000000080601804A6
:106A9400006018060100000000E010080810E00083
:106AA400000F102020100F00001010F8000000004C
:106AB4000020203F20200000007008080888700093
:106AC4000030282422213000003008888848300013
:106AD4000018202020110E000000C02010F8000033
:106AE40000070424243F240000F8088888080800CC
:106AF4000019212020110E0000E0108888180000E1
:106B0400000F112020110E0000380808C8380800B2
:106B14000000003F00000000007088080888700032
:106B2400001C222121221C0000E010080810E000B3
:106B34000000312222110F00000000C0C00000003C
:106B44000000003030000000000000800000000061
:106B54000000806000000000000080402010080059
:106B64000001020408102000404040404040400022
:106B740004040404040404000008102040800000FD
:106B84000020100804020100007048080808F00002
:106B94000000003036010000C030C828E810E000D2
:106BA4000718272423140B000000C038E00000005D
:106BB400203C23020227382008F8888888700000C7
:106BC400203F202020110E00C0300808080838009B
:106BD400071820202010080008F808080810E00012
:106BE400203F202020100F0008F88888E8081000B3
:106BF400203F20202320180008F88888E808100087
:106C0400203F200003000000C030080808380000BE
:106C140007182020221E020008F808000008F808BF
:106C2400203F210101213F20000808F80808000046
:106C34000020203F2020000000000808F808080079
:106C4400C08080807F00000008F888C028180800F1
:106C5400203F20012638200008F80800000000002A
:106C6400203F20202020300008F8F800F8F8080021
:106C7400203F003F003F200008F830C00008F8081B
:106C8400203F200007183F00E01008080810E0002B
:106C94000F10202020100F0008F808080808F00042
:106CA400203F210101010000E01008080810E00065
:106CB4000F18242438504F0008F8888888887000FA
:106CC400203F2000030C302000708808080838009A
:106CD4000038202121221C00180808F80808180090
:106CE4000000203F2000000008F808000008F80811
:106CF400001F202020201F000878880000C83808C2
:106D0400000007380E010000F80800F80008F80039
:106D1400033C0700073C03000818688080681808D3
:106D240020302C03032C30200838C800C838080051
:106D34000000203F2000000010080808C8380800A0
:106D44002038262120201800000000FE0202020044
:106D54000000007F40404000000C30C000000000F4
:106D6400000000010638C00000020202FE0000001C
:106D7400004040407F0000000000040202020400C2
:106D840000000000000000000000000000000000FF
:106D940080808080808080800002020400000000E7
:106DA40000000000000000000000808080800000DF
:106DB4000019242222223F2008F8008080000000CD
:106DC400003F112020110E00000000808080000090
:106DD400000E112020201100000000808088F8009F
:106DE400000E112020103F200000808080800000D1
:106DF400001F222222221300008080F08888881835
:106E04000020203F2020000000008080808080003F
:106E1400006B94949493600008F8008080800000D4
:106E2400203F210000203F200080989800000000AF
:106E34000020203F202000000000008098980000DF
:106E440000C08080807F000008F8000080808000FF
:106E5400203F24022D302000000808F80000000024
:106E64000020203F202000008080808080808000DF
:106E7400203F20003F20003F808000808080000071
:106E8400203F210000203F200000808080800000FF
:106E9400001F202020201F00808000808000000030
:106EA40080FFA12020110E0000000080808080005F
:106EB400000E112020A0FF80808080008080800050
:106EC40020203F212000010000008080808080007D
:106ED4000033242424241900008080E080800000F2
:106EE4000000001F2020000080800000008080003F
:106EF400001F202020103F208080800000808080A0
:106F040000010E300806010080800080008080802F
:106F14000F300C030C300F00008080008080800054
:106F24000020312E0E31200080808000008080807F
:106F340080818E701806010000808080808080002F
:106F44000021302C2221300000000000807C02024D
:106F540000000000003F404000000000FF0000006F
:106F640000000000FF0000000002027C800000001E
:106F74000040403F0000000000060101020204043A
:106F840000000000000000000000000000000000FD
:106F9400000000000000FC000000000002000000EF
:106FA400000C020C020000000000000090D0BCD0D5
:106FB400BC900003000300001824FE448C0003026C
:106FC400070201001824D8B04C800003000102011C
:106FD400C038E438E00001020201020208060000A1
:106FE4000000000000000000000000F8040200009F
:106FF40000010204000204F8000000040201000081
:107004009060F86090000000010000002020FC2047
:10701400200000000100000000000000000008063D
:1070240000000000202020202000000000000000BC
:107034000000000000000002000000000080601C4E
:107044000200040300000000F8040404F800010234
:10705400020201000008FC0000000002030200001C
:1070640018844424180003020202020008042424A1
:10707400D80001020202010040B088FC8000000038
:10708400000302003C242424C40001020202010083
:10709400F824242CC0000102020201000C04E41CA8
:1070A4000400000003000000D8242424D8000102B6
:1070B4000202010038444444F800000302020100C3
:1070C400000010000000000002000000000020008A
:1070D40000000000060000000020508804020000A8
:1070E40000000102909090909000000000000000C9
:1070F4000002048850200002010000001804C42487
:107104001800000002000000F804E494F8000102F2
:107114000202020000E09CF080000203000003026F
:1071240004FC2424D800020302020100F80404042D
:107134000C0001020202010004FC0404F800020332
:107144000202010004FC24740C0002030202030086
:1071540004FC24740C00020302000000F008044440
:10716400CC4000010202010004FC2020FC040203C4
:10717400000003020404FC040400020203020200EF
:10718400000404FC040406040403000004FC24D0EA
:107194000C0402030200030204FC040000000203C6
:1071A40002020203FC3CC03CFC0003000300030099
:1071B40004FC30C4FC04020302000300F8040404C9
:1071C400F80001020202010004FC24241800020356
:1071D40002000000F8848404F8000102020705009C
:1071E40004FC2464980002030200030218242444CB
:1071F4008C000302020201000C04FC040C000002D7
:107204000302000004FC0000FC040001020201006F
:10721400047C80E01C040000030000001CE03CE04F
:107224001C00000300030000049C609C0400020393
:1072340000030200041CE01C04000002030200001E
:107244000C84641C04000203020203000000FE021A
:107254000200000007040400000E30C0000000001B
:1072640000010200000202FE000000040407000006
:107274000004020400000000000000000000000000
:1072840000000808080808080000020000000000C8
:10729400000000000040A0A0C000000102020302A0
:1072A40004FC2020C00000030202010000C02020D2
:1072B400600000010202020000C02024FC00000162
:1072C4000202030200C0A0A0C000000102020200EA
:1072D4000020F82424040002030202000040A0A0BD
:1072E400602000070A0A0A0404FC2020C0000203EC
:1072F400020003020020E400000000020302000078
:10730400000020E4000008080807000004FC80E0F6
:1073140020200203020003020404FC000000020215
:1073240003020200E020E020C00003000300030089
:1073340020E02020C00002030200030200C020203D
:10734400C00000010202010020E02020C000080F5C
:107354000A02010000C02020E0000001020A0F0818
:1073640020E0402020000203020000000060A0A0F2
:1073740020000002020203000020F82000000000A8
:107384000102020020E00020E000000102020302EA
:1073940020E0208060200000030100006080E08085
:1073A40060000003000300002060806020000203EE
:1073B4000003020020E0208060200808070100008C
:1073C4000020A0602000000203020200000020DE72
:1073D4000200000000070400000000FF000000009D
:1073E400000F00000002DE2000000004070000007F
:1073F400020102040402000000000000000000007A
:1074040000000000002F0000000007000700001427
:107414007F147F1400242A7F2A1200626408132335
:1074240000364955225000000503000000001C22CC
:107434004100000041221C000014083E081400080A
:10744400083E0808000000A06000000808080808BA
:10745400000060600000002010080402003E514952
:10746400453E0000427F40000042615149460021F0
:1074740041454B31001814127F100027454545390A
:10748400003C4A4949300001710905030036494965
:10749400493600064949291E00003636000000001E
:1074A4005636000000081422410000141414141469
:1074B4000000412214080002015109060032495912
:1074C400513E007C1211127C007F49494936003E2E
:1074D40041414122007F4141221C007F49494941E9
:1074E400007F09090901003E4149497A007F0808E3
:1074F400087F0000417F4100002040413F01007FA0
:1075040008142241007F40404040007F020C027F6B
:10751400007F0408107F003E4141413E007F09097D
:107524000906003E4151215E007F091929460046A3
:10753400494949310001017F0101003F4040403F7A
:10754400001F2040201F003F4038403F00631408C4
:10755400146300070870080700615149454300009F
:107564007F41410000552A552A55000041417F00C2
:1075740000040201020400404040404000000102B7
:107584000400002054545478007F484444380038A0
:107594004444442000384444487F00385454541828
:1075A40000087E0901020018A4A4A47C007F08043A
:1075B40004780000447D4000004080847D00007F0A
:1075C400102844000000417F4000007C0418047827
:1075D400007C0804047800384444443800FC242423
:1075E40024180018242418FC007C0804040800480B
:1075F4005454542000043F444020003C4040207C2C
:10760400001C2040201C003C4030403C004428101A
:107614002844001CA0A0A07C004464544C441414CE
:1076240014141414010002000400060008000A00E7
:107634000C00100020004000800000010804020437
:10764400080101010101010307010000232D302B72
:107654002000686C4C00656667454647003031324F
:1076640033343536373839414243444546003031A6
:107674003233343536373839616263646566000005
:04768400E100000819
:04768800B90000083D
:10768C000024F400010000000400000010000020A1
:10769C00000000007C070020E40700204C080020BC
:1076AC0000000000000000000000000000000000CE
:1076BC0000000000000000000000000000000000BE
:1076CC0000000000000000000000000000000000AE
:0C76DC00000000000000000000000000A2
:04000005080021913D
:00000001FF
