BL51 BANKED LINKER/LOCATER V6.22.2.0                                                    02/27/2025  00:20:16  PAGE 1


BL51 BANKED LINKER/LOCATER V6.22.2.0, INVOKED BY:
E:\KEIL-C51\KEIL\C51\BIN\BL51.EXE .\Objects\main.obj TO .\Objects\FM_REC PRINT (.\Listings\FM_REC.m51) RAMSIZE (256)


MEMORY MODEL: SMALL


INPUT MODULES INCLUDED:
  .\Objects\main.obj (MAIN)
  E:\KEIL-C51\KEIL\C51\LIB\C51S.LIB (?C_STARTUP)


LINK MAP OF MODULE:  .\Objects\FM_REC (MAIN)


            TYPE    BASE      LENGTH    RELOCATION   SEGMENT NAME
            -----------------------------------------------------

            * * * * * * *   D A T A   M E M O R Y   * * * * * * *
            REG     0000H     0008H     ABSOLUTE     "REG BANK 0"
                    0008H     0018H                  *** GAP ***
            BIT     0020H.0   0000H.1   UNIT         ?BI?MAIN
                    0020H.1   0000H.7                *** GAP ***
            IDATA   0021H     0001H     UNIT         ?STACK

            * * * * * * *   C O D E   M E M O R Y   * * * * * * *
            CODE    0000H     0003H     ABSOLUTE     
            CODE    0003H     009FH     UNIT         ?PR?MAIN?MAIN
            CODE    00A2H     0021H     UNIT         ?PR?I2C_ISR?MAIN
            CODE    00C3H     0003H     ABSOLUTE     
            CODE    00C6H     0017H     UNIT         ?PR?RECVACK?MAIN
            CODE    00DDH     0013H     UNIT         ?PR?DELAY?MAIN
            CODE    00F0H     0012H     UNIT         ?PR?SENDNAK?MAIN
            CODE    0102H     0012H     UNIT         ?PR?STOP?MAIN
            CODE    0114H     0011H     UNIT         ?PR?_SENDDATA?MAIN
            CODE    0125H     0011H     UNIT         ?PR?RECVDATA?MAIN
            CODE    0136H     0011H     UNIT         ?PR?SENDACK?MAIN
            CODE    0147H     000CH     UNIT         ?PR?START?MAIN
            CODE    0153H     000CH     UNIT         ?C_C51STARTUP



OVERLAY MAP OF MODULE:   .\Objects\FM_REC (MAIN)


SEGMENT
  +--> CALLED SEGMENT
---------------------
?C_C51STARTUP
  +--> ?PR?MAIN?MAIN

?PR?MAIN?MAIN
  +--> ?PR?START?MAIN
  +--> ?PR?_SENDDATA?MAIN
  +--> ?PR?RECVACK?MAIN
  +--> ?PR?STOP?MAIN
  +--> ?PR?DELAY?MAIN

BL51 BANKED LINKER/LOCATER V6.22.2.0                                                  02/27/2025  00:20:16  PAGE 2


?PR?RECVACK?MAIN
  +--> ?PR?_SENDDATA?MAIN

?PR?STOP?MAIN
  +--> ?PR?_SENDDATA?MAIN
  +--> ?PR?RECVACK?MAIN



SYMBOL TABLE OF MODULE:  .\Objects\FM_REC (MAIN)

  VALUE           TYPE          NAME
  ----------------------------------

  -------         MODULE        MAIN
  C:0000H         SYMBOL        _ICE_DUMMY_
  D:0092H         PUBLIC        P1M0
  D:0093H         PUBLIC        P0M1
  D:0096H         PUBLIC        P2M0
  D:0091H         PUBLIC        P1M1
  D:00B2H         PUBLIC        P3M0
  D:0095H         PUBLIC        P2M1
  D:0090H         PUBLIC        P1
  D:00B4H         PUBLIC        P4M0
  D:00B1H         PUBLIC        P3M1
  D:00CAH         PUBLIC        P5M0
  D:00B3H         PUBLIC        P4M1
  D:00C9H         PUBLIC        P5M1
  B:00A8H.7       PUBLIC        EA
  C:0114H         PUBLIC        _SendData
  D:00BAH         PUBLIC        P_SW2
  C:0125H         PUBLIC        RecvData
  C:0147H         PUBLIC        Start
  C:0003H         PUBLIC        main
  C:0108H         PUBLIC        Stop
  B:0020H.0       PUBLIC        busy
  C:00A2H         PUBLIC        I2C_Isr
  C:0136H         PUBLIC        SendACK
  C:00D1H         PUBLIC        RecvACK
  C:00F0H         PUBLIC        SendNAK
  C:00DDH         PUBLIC        Delay
  D:0094H         PUBLIC        P0M0
  -------         PROC          I2C_ISR
  C:00A2H         LINE#         33
  C:00A8H         LINE#         35
  C:00AAH         LINE#         36
  C:00ADH         LINE#         37
  C:00B4H         LINE#         38
  C:00B4H         LINE#         39
  C:00B8H         LINE#         40
  C:00BAH         LINE#         41
  C:00BAH         LINE#         42
  C:00BCH         LINE#         43
  -------         ENDPROC       I2C_ISR
  -------         PROC          START
  C:0147H         LINE#         45
  C:0147H         LINE#         46
BL51 BANKED LINKER/LOCATER V6.22.2.0                                                  02/27/2025  00:20:16  PAGE 3


  C:0147H         LINE#         47
  C:0149H         LINE#         48
  C:014FH         LINE#         49
  C:0152H         LINE#         50
  -------         ENDPROC       START
  -------         PROC          _SENDDATA
  D:0007H         SYMBOL        dat
  C:0114H         LINE#         52
  C:0114H         LINE#         53
  C:0114H         LINE#         54
  C:0119H         LINE#         55
  C:011BH         LINE#         56
  C:0121H         LINE#         57
  C:0124H         LINE#         58
  -------         ENDPROC       _SENDDATA
  C:00C6H         SYMBOL        L?0033
  -------         PROC          L?0032
  -------         ENDPROC       L?0032
  C:00C6H         SYMBOL        L?0033
  -------         PROC          RECVACK
  C:00D1H         LINE#         60
  C:00D1H         LINE#         61
  C:00D1H         LINE#         62
  C:00D3H         LINE#         63
  C:00D9H         LINE#         64
  C:00DCH         LINE#         65
  -------         ENDPROC       RECVACK
  -------         PROC          RECVDATA
  C:0125H         LINE#         67
  C:0125H         LINE#         68
  C:0125H         LINE#         69
  C:0127H         LINE#         70
  C:012DH         LINE#         71
  C:0130H         LINE#         72
  C:0135H         LINE#         73
  -------         ENDPROC       RECVDATA
  -------         PROC          SENDACK
  C:0136H         LINE#         75
  C:0136H         LINE#         76
  C:0136H         LINE#         77
  C:013BH         LINE#         78
  C:013DH         LINE#         79
  C:0143H         LINE#         80
  C:0146H         LINE#         81
  -------         ENDPROC       SENDACK
  -------         PROC          SENDNAK
  C:00F0H         LINE#         83
  C:00F0H         LINE#         84
  C:00F0H         LINE#         85
  C:00F6H         LINE#         86
  C:00F8H         LINE#         87
  C:00FEH         LINE#         88
  C:0101H         LINE#         89
  -------         ENDPROC       SENDNAK
  -------         PROC          L?0034
  -------         ENDPROC       L?0034
  -------         PROC          STOP
BL51 BANKED LINKER/LOCATER V6.22.2.0                                                  02/27/2025  00:20:16  PAGE 4


  C:0108H         LINE#         91
  C:0108H         LINE#         92
  C:0108H         LINE#         93
  C:010AH         LINE#         94
  C:0110H         LINE#         95
  C:0113H         LINE#         96
  -------         ENDPROC       STOP
  -------         PROC          DELAY
  -------         DO            
  D:0006H         SYMBOL        i
  -------         ENDDO         
  C:00DDH         LINE#         98
  C:00DDH         LINE#         99
  C:00DDH         LINE#         102
  C:00E0H         LINE#         103
  C:00E0H         LINE#         104
  C:00E1H         LINE#         105
  C:00E2H         LINE#         106
  C:00E3H         LINE#         107
  C:00E4H         LINE#         108
  C:00EFH         LINE#         109
  -------         ENDPROC       DELAY
  -------         PROC          MAIN
  C:0003H         LINE#         111
  C:0003H         LINE#         112
  C:0003H         LINE#         113
  C:0006H         LINE#         114
  C:0008H         LINE#         115
  C:000AH         LINE#         116
  C:000CH         LINE#         117
  C:000EH         LINE#         118
  C:0010H         LINE#         119
  C:0012H         LINE#         120
  C:0014H         LINE#         121
  C:0016H         LINE#         122
  C:0018H         LINE#         123
  C:001AH         LINE#         124
  C:001CH         LINE#         126
  C:001FH         LINE#         128
  C:0025H         LINE#         129
  C:002AH         LINE#         130
  C:002CH         LINE#         132
  C:002FH         LINE#         133
  C:0034H         LINE#         134
  C:0037H         LINE#         135
  C:003CH         LINE#         136
  C:003FH         LINE#         137
  C:0041H         LINE#         138
  C:0041H         LINE#         139
  C:0041H         LINE#         140
  C:0044H         LINE#         141
  C:0047H         LINE#         142
  C:004AH         LINE#         143
  C:004CH         LINE#         144
  C:004CH         LINE#         145
  C:004CH         LINE#         146
  C:004FH         LINE#         147
BL51 BANKED LINKER/LOCATER V6.22.2.0                                                  02/27/2025  00:20:16  PAGE 5


  C:0054H         LINE#         148
  C:0057H         LINE#         149
  C:0059H         LINE#         150
  C:0059H         LINE#         151
  C:0059H         LINE#         152
  C:005CH         LINE#         153
  C:005FH         LINE#         154
  C:0062H         LINE#         155
  C:0067H         LINE#         156
  C:006AH         LINE#         157
  C:006CH         LINE#         158
  C:006CH         LINE#         163
  C:006FH         LINE#         165
  C:0072H         LINE#         166
  C:0075H         LINE#         167
  C:0078H         LINE#         168
  C:007DH         LINE#         169
  C:0080H         LINE#         170
  C:0085H         LINE#         171
  C:0088H         LINE#         172
  C:008DH         LINE#         173
  C:0090H         LINE#         174
  C:0095H         LINE#         175
  C:0098H         LINE#         176
  C:009AH         LINE#         177
  C:009AH         LINE#         178
  C:009DH         LINE#         196
  C:00A0H         LINE#         198
  -------         ENDPROC       MAIN
  -------         ENDMOD        MAIN

*** WARNING L16: UNCALLED SEGMENT, IGNORED FOR OVERLAY PROCESS
    SEGMENT: ?PR?RECVDATA?MAIN

*** WARNING L16: UNCALLED SEGMENT, IGNORED FOR OVERLAY PROCESS
    SEGMENT: ?PR?SENDACK?MAIN

*** WARNING L16: UNCALLED SEGMENT, IGNORED FOR OVERLAY PROCESS
    SEGMENT: ?PR?SENDNAK?MAIN

Program Size: data=9.1 xdata=0 code=351
LINK/LOCATE RUN COMPLETE.  3 WARNING(S),  0 ERROR(S)
