:10143B0056493A252E326656202000564F3A252E15
:10144B003266562020202000434F3A252E3266412B
:10145B0020202000504F3A252E32665720202000A6
:100DF0004A02AB3031323334353637383942025358
:100E000000004202B8000042025700004202A9005E
:010E100000E1
:10103E001205FB900281E0FCA3E0FDA3E0FEA3E01D
:10104E00FF2253BCDFE49002A9F0A3F0E5BEC41367
:10105E005403FDAFBDEF75F004A4FFEF4DFF9002FA
:10106E00A9E5F0F0A3EFF09002A9E0FFA3E0227D46
:10107E003DE0FEA3E0FF7C001205AFAC06AD07E439
:10108E001202C9E4FBFA22900257E0FCA3E0FDE451
:10109E001202C9A804A905AA06AB0722F5831205F8
:1010AE00FB900250E0FB25E025E022F583E0F8A35B
:1010BE00E0F9A3E0FAA3E0FB227E00121555D2CD93
:1010CE0022E4FBFA79107841020227CFF0A3EFF069
:1010DE00E5BC54F022EBF0A3EAF0A3E9F022E0FB2A
:1010EE00A3E0FAA3E0F92225E025E0245DF582E4F1
:1010FE003402F58322C39408748094802279EE78AA
:10110E004202011E797A784402022725E025E02466
:10111E0061F582E434022225E025E02489F582E49B
:10112E0034022225E025E02430F582E43402221236
:10113E0002270203029002280205FB2485F582E4B1
:0F114E003402F58322242CF582E43402F5832247
:061530009002D81210E346
:10153600E4FF9002DCE0FEEFC39E50129002D81248
:0E15460010EC8F82758300ED12058D0F80E48E
:011554002274
:03002300021606BC
:0D160600309904C299C209309802C298328E
:1015B300759850E4F589758BB5758DFFD28E758E50
:0415C30040C20922F7
:08161F002009FDD2098F992278
:10146B009003081210E39003081210EC120535607C
:10147B0017900308A3E475F0011205D7A9F0FA122F
:09148B000535FF12161F80DE2258
:10155500E4FDFCC3ED9FEC9E5016E4FBFA000BBBCB
:1015650000010AEB64024A70F40DBD00010C80E332
:011575002253
:10000300E4FFFEE4FDFC0DBD00010CBC01F8BDF4F2
:0C001300F50FBF00010EBE03EABFE8E7D6
:01001F0022BE
:10157600E4FDFCC3ED9FEC9E5016E4FBFA000BBBAA
:1015860000010ABA10F7BBFEF40DBD00010C80E3A2
:011596002232
:0E15EA00D2CD7F047E00121555D2B1021555E8
:1015C700D2B17F051210C7121555C2B1121555C2F7
:0215D700CD2223
:0E15F800C2CDC2B17F041210C7D2B102155588
:1015D900C2CDC2B17F021210C77F05121555C2CD07
:0115E90022DF
:0C161300D2CD7F057E00121555C2CD22FD
:10149400E4F9D2B17F01FE121555D2CD12155530A3
:1014A400B11109E9D394FA7480948040F21215F8CA
:0714B4007F0122C2CD7F0081
:0114BB00220E
:0513C6009002E8EFF0C9
:1013CB00A3E4F0A374CDF0C2CDE4F9E912110350FC
:1013DB002C9002E8E0FF54809400748094804004C9
:1013EB00D2B18002C2B1EF25E09002E8F07F01128A
:0D13FB0010C7121555C2CD1215550980CE30
:0114080022C1
:10150A009002E7EFF01215C77F781213C61216136E
:10151A00E41215289002E7E01215280215F8FF12C6
:06152A0013C61216132285
:1014BC009002E7EFF01215C77F781214DC7F401210
:1014CC0014DC9002E7E0FF1213C61216130215F893
:0714DC001213C612161322C1
:101597009002E5EEF0A3EFF0ED4C9002E56006A3B4
:0C15A700E0FF0214BCA3E0FF12150A22B2
:10115D007F327E00121576E4FDFC7FAE1215977F6F
:10116D00401211EB7FB0FE1215977FC81211EB7F65
:10117D0081FE1215977FFF1211F67FA1FE121597B2
:10118D007FA61211F67FA8FE1215977F1F1212016E
:10119D007FD3FE121597E4FDFCFFFE1215977FD548
:1011AD001212017FF0FE1215977FD912120C7F22B9
:1011BD00FE1215977FDA12120C7F02FE1215977F21
:1011CD00DB1212177F49FE1215977F8D1212177FB2
:1011DD0014FE121597E4FDFC7FAFFE021597E4FD9A
:1011ED00FCFE121597E4FDFC22E4FDFCFE121597A2
:1011FD00E4FDFC22E4FDFCFE121597E4FDFC22E467
:10120D00FDFCFE121597E4FDFC22E4FDFCFE12151B
:05121D0097E4FDFC2236
:10131C00E49002D8F09002D8E0FF7E001211035046
:10132C004AEF24B0FFEE33FEE4FDFC121597E4FD0A
:10133C00FCFFFE121597E4FDFC7F10FE121597E4DE
:10134C009002D9F09002D9E0C394807480948050BC
:10135C00127D017C00E4FFFE1215979002D9E00487
:0B136C00F080E19002D8E004F080AABD
:011377002253
:101409009002E4EFF0ED24B0FFE433FE12143054FF
:10141900F0C4540F7E004410FF121430540FFF7EA5
:1014290000E4FDFC021597E4FDFC1215979002E417
:02143900E022AF
:0212AE00AC078B
:1012B000E49002E2F0A3F0EB24E09002E2F0ECD341
:1012C000947F748094804004E4FC0D0D9002E1E072
:1012D00064106047AF04121409E49002E3F0900236
:1012E000E3E0FFC3940674809480502F9002E2E004
:1012F00075F006A42400F582E5F03400F583E5825C
:101300002FF582E43583F583E0FF7E007D017C00CC
:0B1310001215979002E3E004F080C388
:01131B0022AF
:101378009002D8EFF0A3EDF0A31210E39002DA1276
:1013880010EC120535FB60359002D8E0FFA3E0FDB4
:101398009002E17408F01212AE9002D8E02408F02E
:1013A800E0D39478748094804007E4F0A3E02402AA
:0E13B800F09002DBE475F0011205C180BF2247
:100AD000E4F594F593F592F591F596F59575B202D6
:100AE000F5B1F5CAF5C9FA9002B5CAF0A3EAF0A3C8
:100AF00074EFF075CA2075C9DF53B2F343B10C43EC
:100B0000BA8090FEA8743FF053BA7F75DE0F75BCB3
:100B10008F12115D12131C75BC8F43BC400000E5A1
:100B2000BC30E5FB1210509002571210D94404F566
:100B3000BC43BC400000E5BC30E5FB121050900205
:100B4000531210D94403F5BC43BC400000E5BC304F
:100B5000E5FB1210509002551210D94402F5BC4327
:100B6000BC400000E5BC30E5FB1210509002B8CF4D
:100B7000F0A3EFF0120DDE900253E0FCA3E0FD12B3
:100B8000108D12110BC004C005C006C007121095CD
:100B9000D007D006D005D00412113D900253EEF0DC
:100BA000A3EFF0A3E0FCA3E0FD12108D12110BC027
:100BB00004C005C006C007121095D007D006D005A6
:100BC000D00412113D900255EEF0A3EFF09002B860
:100BD0007D6412107F12110BC004C005C006C0074F
:100BE000121095D007D006D005D00412113D900206
:100BF000B8EEF0A3EFF090025312107D1211129094
:100C000002591205FB90025512107D12111290022A
:100C1000811205FB9002B8E0FCA3E0FD12108D12DA
:100C20001112121143E4900250F0900250E0FB12B6
:100C300011034003020CF4E0FA1210F5121044EA1A
:100C4000121119F5831205FB900250E0FA25E025F8
:100C5000E02459F582E43402F583121044EA1210BC
:100C6000F51205FB900259121044EB1211191210E3
:100C7000B912002D9002591210AC121149121044F1
:100C8000EB1211251210AA2481F582E43402F583B7
:100C9000121044EB25E025E012114912103E90029B
:100CA00050E01211251210B912002D90028112107D
:100CB000AC121153121044EB1211311210AA242855
:100CC000F582E43402F583121044EB25E025E012AE
:100CD00011531205FB900228121044900250E012AA
:100CE00011311210B912002D121143900250E0047C
:100CF000F0020C2A9002591210441210CF9002599F
:100D000012103E1210CF9002811205FB90022812A1
:100D100010441210CF1211439002DB74FFF0A37441
:100D200014F0A3743BF0900259121044120D8BFD85
:100D3000120DA67414F0A37446F0121041120D8B1C
:100D40007D01120DA67414F0A37453F090022812C2
:100D50001044120DC37D02FF121378120DDE9002B3
:100D6000DB74FFF0A37414F0A3745FF012104190D1
:100D700002281210BB12011E120DC37D03FF1213B5
:100D8000787F327E00121576020B179002DE120574
:100D9000FB7B017A0279BA1206B27B017A0279BA38
:100DA000E49002DDF022FF1213787B017A0279BA17
:100DB0009002DC741EF0E4FD1215309002DB74FF2B
:100DC000F0A3229002DE1205FB7B017A0279BA12AF
:100DD00006B27B017A0279BAE49002DDF0227B014F
:100DE0007A0279BA9002DC741EF0E4FD121530220A
:100E1100622800000000000000000000002F000018
:100E210000000700070000147F147F1400242A7FAC
:100E31002A1200626408132300364955225000002B
:100E41000503000000001C224100000041221C009B
:100E51000014083E08140008083E0808000000A01D
:100E61006000000808080808000060600000002019
:100E710010080402003E5149453E0000427F4000F7
:100E8100004261514946002141454B31001814127D
:100E91007F10002745454539003C4A49493000014A
:100EA1007109050300364949493600064949291E99
:100EB10000003636000000005636000000081422FB
:100EC10041000014141414140000412214080002FB
:100ED1000151090600324959513E007C1211127C20
:100EE100007F49494936003E41414122007F41414D
:100EF100221C007F49494941007F09090901003E3F
:100F01004149497A007F0808087F0000417F41007C
:100F1100002040413F01007F08142241007F4040F2
:100F21004040007F020C027F007F0408107F003EDA
:100F31004141413E007F09090906003E4151215EC0
:100F4100007F091929460046494949310001017FBD
:100F51000101003F4040403F001F2040201F003F53
:100F61004038403F00631408146300070870080705
:100F710000615149454300007F41410000552A5518
:100F81002A55000041417F00000402010204004093
:100F910040404040000001020400002054545478B5
:100FA100007F4844443800384444442000384444D5
:100FB100487F00385454541800087E090102001873
:100FC100A4A4A47C007F080404780000447D4000B0
:100FD100004080847D00007F102844000000417F94
:100FE1004000007C04180478007C08040478003870
:100FF1004444443800FC242424180018242418FCF8
:10100100007C0804040800485454542000043F4460
:101011004020003C4040207C001C2040201C003C23
:101021004030403C004428102844001CA0A0A07C73
:0C103100004464544C44141414141414AF
:1000260002036EE86480F8E933E83360110460F097
:10003600ED33EC337009E8FCE9FDEAFEEBFF220440
:1000460060DED3EB9FEA9EE99DE8C2E78CF0C2F73B
:1000560095F0400CE8CCF8E9CDF9EACEFAEBCFFB07
:1000660012033985D0F05804700320D5B3E8047024
:10007600075002B2D502037892D5EC0460F7E4CCBF
:10008600C0E0C398F8603B94186008400DD0E0FBD0
:10009600020350E4FBFAC9FC8028E830E406E4C910
:1000A600FBE4CAFCE830E305E4C9CACBFCE8540724
:1000B6006010F8C3E913F9EA13FAEB13FBEC13FC2F
:1000C600D8F130F52FC3E49CFCEF9BFFEE9AFEEDD2
:1000D60099FDD0E0FBEF4E4D4C701222DB0302037C
:1000E60075EC2CFCEF33FFEE33FEED33FDED30E720
:1000F600EB020350EF2BFFEE3AFEED39FDD0E0FBAD
:1001060050130BBB0003020378ED13FDEE13FEEF55
:0801160013FFEC13FC0203507F
:10011E00EC4D6011E8497017ED33EC3304600DE4DB
:10012E00FCFFFEFD22E933E8330470F802036E1281
:10013E00033958046009E4CC248150062850090282
:10014E000378284003020375C0E0EB4A7044B9807F
:10015E0006D0E0FB020364EF4E701CBD8008EBFF7F
:10016E00EAFEE9FD80EBE98DF0A4FEE5F002020760
:10017E00E9CDF9EAFEEBFFEF89F0A4FCE5F0CE89BC
:10018E00F0A42EFFE435F0CD89F0A42DFEE435F079
:10019E008067EF4E7005BD80D780C3EF8BF0A4ACA7
:1001AE00F0EE8BF0A42CFCE435F0F8EF8AF0A42CE2
:1001BE00E5F038FCE433CB8DF0A42CFCE5F03BF8F5
:1001CE00EE8AF0A42CFCE5F038F8E433CF89F0A4E5
:1001DE002CFCE5F038CF3400CE89F0A42FFFE5F0EB
:1001EE003EFEE433C98DF0A42EFEE5F039CD8AF043
:1001FE00A42FFFE5F03EFEE43DFD33D0E0FB5007BB
:10020E000BBB000F020378EC2CFCEF33FFEE33FE3A
:06021E00ED33FD02035068
:10022400020378EC5D046005E85904700302036E70
:10023400120339580460F6EC4860F2EC7004FDFED9
:10024400FF22C860DB2481C85009C39860025006AD
:100254000203759850CAF582E9294B4A7005AB82AE
:1002640002036475F0007C1A7880C3EF9BEE9AED6C
:1002740099400DC3EF9BFFEE9AFEED99FDE842F025
:10028400DC23ACF0D0E0FFD0E0FED0E0FDAB822078
:10029400E7101BEB60BAEC2CFCEF33FFEE33FEED02
:1002A40033FD020350E803F830E705C0F075F000B1
:1002B400EF2FFFEE33FEED33FD40B830E7C280AAE6
:1002C40075F020800E75F010800575F0087D007EB5
:1002D400007F003392D530D5031205EDEC33401086
:1002E400EF33FFEE33FEED33FDEC33FCD5F0ED22BE
:0E02F400E5F0247EA2D513CC92E7CDCEFF22FA
:10030200EDD2E7CD33EC3392D524814006E4FFFEF3
:10031200FDFC22FCE4CFCECDCC24E0501174FF8052
:10032200EDC3CC13CCCD13CDCE13CECF13CF0470EF
:07033200F030D5DE0205EDFD
:10064D00E50824DBF582E43402F583E00508229009
:10065D0002D83007039002DBE475F00112060702A1
:10066D0005352000E97F2ED2008018EF540F24901D
:10067D00D43440D4FF30040BEF24BFB41A00500320
:10068D002461FFE50960021509050CE50C700205F2
:10069D000B30070E9002D8E475F001120607EF0239
:1006AD00057B0214E37403D2078003E4C207F50847
:1006BD009002D812061EE4F509F50BF50CE509605C
:1006CD00077F2012069080F5750AFFC201C200C295
:1006DD0002C203C205C206C20812065CFF700D30CD
:1006ED0007057F001206A1AF0CAE0B22B4255FC229
:1006FD00D5C20412065CFF24D0B40A00501A75F05E
:10070D000A780930D50508B6FF0106C6A426F620DD
:10071D00D5047002D20380D924CFB41A00EF50044F
:10072D00C2E5D204020993D20180C6D20080C0D2A4
:10073D000280BCD2D580BAD20580B47F201206903B
:10074D002002077401B5090040F112064DFF120693
:10075D00900206CAD208D206809512064DFB1206EB
:10076D004DFA12064DF94A4B700679917A0A7BFFC4
:10077D0020022EE509602A7E008E82758300120507
:10078D004E60060EEE650A70F0C2D5EBC0E0EAC011
:10079D00E0E9C0E0EE1209F4D0E0F9D0E0FAD0E0E3
:1007AD00FB120535FF60AAEBC0E0EAC0E0E9C0E04E
:1007BD00120690D0E02401F9D0E03400FAD0E0FB2D
:1007CD00E50A0460DCD50AD98087D20280A212091D
:1007DD00D660F7E50A700104120383A90A600DE5DE
:1007ED000A600914F50A120A7EEF60F3EA30E70297
:1007FD00F404C3995079EAF4250A0430E701E404BE
:10080D00F50A800D1209D660C1EA050A250A120300
:10081D0083EA900307F030E701E4250A04D50A04C2
:10082D00200501141209F4E4C0E0120A7E900307BA
:10083D00E0601320E70714F0120678802204F0D050
:10084D00E014C0E07F00120678E50A600712066F1B
:10085D00150A800B30050312066FD0E00206CAD0D0
:10086D00E00480C41209D6609EE50A041203839049
:10087D000307EAF0E50A20050260010424041209C9
:01088D00F476
:10088E0074FF04C0E0120A7E120678E50A20050203
:10089E00600312066FD0E0B50AE87F45120682901B
:1008AE000307E07F2B30E7047F2DF404C0E012062F
:1008BE0090D0E075F00A84C0F0120679D0E01206EE
:1008CE00790206CA791080027908C206C208800829
:1008DE00D2D5790A8004790AC2D5E50A047002F5E8
:1008EE000AE4FAFDFEFF12064DFC7B0820011312EE
:1008FE00064DFD7B1030000A12064DFE12064DFF0E
:10090E007B20EC3382D592D55013C3E43000069F82
:10091E00FFE49EFEE42001039DFDE49CFCE4CBF885
:10092E00C201EC700CCFCECDCCE824F8F870F38079
:10093E0017C3EF33FFEE33FEED33FDEC33FCEB3339
:10094E00FB994002FB0FD8E9EB300105F8D0E0C46B
:10095E0048B201C0E00AEC4D4E4F78207B0070C2C9
:10096E00EAB50A0040BCC0E01209F6D0F0D0E02093
:10097E000104C4C0E0C4B201C0F0120679D0F0D5B3
:10098E00F0EB0206CA12062707675308D25807383B
:10099E004C07344208D64F08DE4408DE49074D4363
:1009AE0008E45508114608714507DB470AB15007A0
:1009BE003C2D07402E07632B0744230761200A9A1C
:1009CE002A06FC480000075BE50AB4FF03750A0619
:1009DE0012064DFC12064DFD12064DFE12064DFF7F
:1009EE009003000203C0790AA2D520031430050932
:1009FE00B910020404B9080104A2D5200602500160
:100A0E00042002689202B509005034C0E07F203005
:100A1E0003197F30A20272067205500F120A4DC2E0
:100A2E0002C206C205C2087F30800F300503E9C03E
:100A3E00E0120690300503D0E0F9D0E0B509CC30D5
:100A4E0005177F30B9100C1206907F583004077FBF
:100A5E00788003B908031206903002057F2D020636
:100A6E00907F202008F87F2B2006F322920280CF61
:100A7E007F00B40700500B2400F582E43403F583A5
:100A8E00E0FF22286E756C6C2900D20112064D30E3
:100A9E0001F8C201780930D50108F60206FC2D5086
:100AAE0043495812064D2403B405004001E4900A50
:100ABE00AC93120681743A120681D20375090402B0
:020ACE0008D24C
:10033900E9D2E7C933E833F892D5EDD2E7CD33EC0A
:0703490033FC5002B2D52283
:10035000EC30E7100FBF000C0EBE00080DBD00040E
:100360000BEB6014A2D5EB13FCED92E7FD2274FFBA
:10037000FCFDFEFF22E480F8A2D574FF13FC7D8013
:03038000E480EF27
:10038300F920E73624F950037907E4F42402FBE566
:1003930082158270021583DBF6E024FB501BE960B3
:1003A30014E4F0E582158270021583E004F0B40AC8
:0D03B30008E4F0D9EE7401F00A22C2D52250
:1003C000ED33EC3392D5FA602AB4FF33EDC2E77B0C
:1003D000FF60067A0379E5E4227A0379EE20D504FA
:1003E0007A0379E9224E614E002B494E46002D4991
:1003F0004E4600E47A08F0A3DAFC7B00740722C0C2
:1004000083C082ECC0E0EDC0E0EEC0E0EFC0E0EA07
:1004100075F010A4CAABF075F04DA42BFBE435F0D9
:10042000FCEA2410FAEB34C5FBEC34D9FCEDC2E74E
:10043000FF75F056A4F42411C5F0F434C58FF0A470
:100440002AE5F03BE43CF020E7141204F5D0E0FF8D
:10045000D0E0FED0E0FDD0E0FC1202278014F404CE
:100460001204F5D0E0FFD0E0FED0E0FDD0E0FC12B9
:10047000011ED082D083E0FAEDD2E7CD33EC3324F5
:1004800082FBE4C3CF33CFCE33CECD33CD33DBF3DA
:100490007B0775F00A846004F0A31B0AE5F0F0A363
:1004A0008FF0740AA4FFACF08EF0740AA42CFEAC9A
:1004B000F050010C8DF0740AA42CFDE435F0F0A38B
:0504C000DBDE740722E1
:1004C5003F8000004120000042C80000447A00003F
:1004D500461C400047C35000497424004B189680C1
:1004E5004CBEBC205A0E1BCA6753C21C749DC5AEB8
:1004F500FB60065407601C2323120523EB54386068
:100505000912050F12051E12011EECF8EDF9EEFA9F
:10051500EFCB22EB12051E80F1543803241C900406
:10052500C5FE93FC0EEE93FD0EEE930ECE93FF22C9
:03000000021222C7
:0C122200787FE4F6D8FD75812102126986
:10053500BB010689828A83E0225002E722BBFE02C4
:09054500E32289828A83E49322F7
:10054E00BB010CE58229F582E5833AF583E0225062
:10055E0006E92582F8E622BBFE06E92582F8E222AC
:0D056E00E58229F582E5833AF583E49322C6
:10057B00BB010689828A83F0225002F722BBFE015F
:02058B00F32259
:10058D00F8BB010DE58229F582E5833AF583E8F0A4
:10059D00225006E92582C8F622BBFE05E92582C850
:0205AD00F22238
:1005AF00EF8DF0A4A8F0CF8CF0A428CE8DF0A42E60
:0205BF00FE221A
:1005C100C5F0F8A3E028F0C5F0F8E58215827002C5
:0605D1001583E038F02262
:1005D700A3F8E0C5F025F0F0E582158270021583D7
:0605E700E0C838F0E82234
:0E05ED00C3E49FFFE49EFEE49DFDE49CFC221F
:0C05FB00ECF0A3EDF0A3EEF0A3EFF02273
:10060700F8E0FBA3A3E0F925F0F0E582158270027C
:070617001583E0FA38F02220
:09061E00EBF0A3EAF0A3E9F022DD
:10062700D083D082F8E4937012740193700DA3A362
:1006370093F8740193F5828883E473740293686076
:06064700EFA3A3A380DF76
:1014E300EFB40A07740D1214EE740A309811A89918
:1014F300B8130CC2983098FDA899C298B811F63069
:0715030099FDC299F5992240
:10122E00020AD0E493A3F8E493A34003F68001F2FC
:10123E0008DFF48029E493A3F85407240CC8C333C1
:10124E00C4540F4420C8834004F456800146F6DF90
:10125E00E4800B0102040810204080900DF0E47E23
:10126E00019360BCA3FF543F30E509541FFEE49385
:10127E00A360010ECF54C025E060A840B8E493A34C
:10128E00FAE493A3F8E493A3C8C582C8CAC583CA77
:10129E00F0A3C8C582C8CAC583CADFE9DEE780BE2F
:01103D0000B2
:00000001FF
