:0300C3000200A296
:1000A200C0E0C083C082C0BA43BA8090FE82E03012
:1000B200E606E054BFF0C200D0BAD082D083D0E0CE
:0100C200320B
:0C014700D20090FE817481F02000FD22A7
:1001140090FE86EFF0D20090FE817482F02000FD04
:0101240022B8
:0B00C6001201141200D1E4FF1201141B
:0C00D100D20090FE817483F02000FD221C
:10012500D20090FE817484F02000FD90FE87E0FFF0
:0101350022A7
:1001360090FE82E4F0D20090FE817485F02000FDEE
:010146002296
:1000F00090FE827401F0D20090FE817485F02000A1
:02010000FD22DE
:060102001201141200D1ED
:0C010800D20090FE817486F02000FD22E1
:1000DD00E4FFFE000000000FBF00010EBE0BF4BFD9
:0200ED00B8F168
:0100EF0022EE
:10000300E4F594F593F592F591F596F595F5B2F53A
:10001300B1F5B4F5B3F5CAF5C975BA8090FE80742D
:10002300E0F090FE82E4F0D2AF1201477F2012018C
:10003300141200D17FC11201141200D17F031200E8
:10004300C61201141200D17F0A1200C67F88120162
:10005300141200D17F0F1200C61201141200D17FB7
:10006300421201141200D17F021201021200DD12AA
:1000730000DD1201477F201201141200D17FC0124C
:1000830001141200D17F011201141200D17F2E122C
:0F00930001141200D17F90120102E4F5BA80FE31
:03000000020153A7
:0C015300787FE4F6D8FD758120020003DF
:00000001FF
